:1000000003308A00972B0000FF00030E8301A1003C
:100010000A08A0008A010408A2007708A300780853
:10002000A4007908A5007A08A600831383128B1D0B
:100030001B280B1830288B1E1F280B193328220869
:1000400084002308F7002408F8002508F900260892
:10005000FA0020088A00210E8300FF0E7F0E09009F
:100060008A110A124B288A110A12FD284D30840089
:100070008313000803194A280130F800F701F70B31
:100080003F28F80B3E284A30F700F70B4528482850
:10009000800B3C2808000608CC001E30CD0036201E
:1000A00006084C02031956280608CC0006084C0224
:1000B000031D4D28061E6528861E6528061F652817
:1000C000861F65280030F800F9280430AE002E089D
:1000D000073C031C7B280608F7002E08F8000319CC
:1000E00075280310F70CF80B7128771879282E085B
:1000F000AC00AE0A6728FF308600AE012E08023C35
:10010000031CD8280130F7002E08F80003198C28AA
:100110000310F70DF80B88287708FF3A86050608C4
:10012000F7002C08F800031999280310F70CF80BB6
:1001300095287718CA2804302C02CE004E08CF002C
:100140000330D000F701F8014F0803105018F707EB
:10015000F70CF80CD018F707F70CF80C5019F70744
:10016000F70CF80CD019F707F70CF80C501AF70732
:10017000F70CF80CD01AF707F70CF80C501BF70720
:10018000F70CF80CD01BF707F70CF80C2E087807C3
:10019000013EAD000130F7002E08F8000319D42805
:1001A0000310F70DF80BD02877088604AE0A7E28D6
:1001B00008308600061EE628861EE628061FE6286A
:1001C000861FE6280030F800F928F5280608CC003C
:1001D0001E30CD00362006084C020319F12806080F
:1001E000CC0006084C02031DE8280030F800F9286E
:1001F00065280B108A110A121F281F151F19FE28C7
:1002000083161E088312A9001E08AA000B118A116A
:100210000A121F282D080A3A03191529063A03194C
:100220001A29073A031925292629B0012708AF0002
:10023000AB0162292F082702031D2129B0080319E9
:1002400062292F08A700AB016229AD01AB08031D8D
:100250002F29B0012D08AF000130AB005329300821
:10026000B8002F08B700BA010A30B9001030BB003F
:10027000F701FA01B80CB70C031C44293908F70739
:100280000318FA0A3A08FA07FA0CF70CF90CF80CFA
:10029000BB0B3A292D087807AF007908B000031886
:1002A000B00A0130AB07B008031D5E292F08B43C2B
:1002B000031C5E292B08033C03186229B0012708A0
:1002C000AF00AB01AD018A110A12E62B8E30F700A8
:1002D0004008F8003F08F900FA01F808031D7A29E0
:1002E0007908F800F9010830F702F808031D7A29A7
:1002F000F70182290310F81B8129F90DF80DF70386
:100300007A29F81308003F080319F329C7004308A6
:100310000319F329C707031894297F30C702031C68
:10032000F3290319F32998298130C7070318F32902
:100330004708F700F801F901FA014008CB00CB1794
:100340004108CA004208C9001830C700C801491C4A
:10035000C1294608FA07031CB329F90A031DB3296A
:10036000F80A0319C8174508F907031CBA29F80A3F
:100370000319C8174408C100C1174108F80703183A
:10038000C817C80DF80CF90CFA0CCB0CCA0CC90C28
:100390000310C70BA6290130F7070318F329F81B30
:1003A000D829CB0DFA0DF90DF80DF7030319F32930
:1003B000CB1FE929FA0A031DE929F90A031DE929D6
:1003C000F80A031DE929F80CF90CFA0CF70A0319CD
:1003D000F3294008C8004408C806C81FF129F817C7
:1003E000F729F813F729F701F801F901FA010800D4
:1003F00080308318C006C501C6013C08C40040080F
:10040000C4063B080319E82AC300F7003F08031994
:10041000F12AC30203198D2A031C4B2A4008C90084
:10042000C9174108C8004208C700C6010310C90C1B
:10043000C80CC70CC60CC30B152AC41F222A4514AE
:10044000052B4510431045163E30840083131A2BAC
:100450004512C41B352A431C402AC90CC80CC70CC2
:10046000C60CF70A0319002B402AC91B432A0310A4
:10047000C60DC70DC80DC90DF7030319002B352A8A
:100480004517AD2A45133C08C400C41F492AC917A3
:10049000F92AC913F92A3F08C300F7003B08C30231
:1004A0003C08C900C9173D08C8003E08C700C6017E
:1004B0000310C90CC80CC70CC60CC30B572AC41FA9
:1004C000642AC514052BC5104310C516423084009C
:1004D00083131A2BC512C41B772A431C822AC90C0A
:1004E000C80CC70CC60CF70A0319002B822AC91BBB
:1004F000852A0310C60DC70DC80DC90DF7030319D2
:10050000002B772AC517AD2AC5134008C400C41FA5
:100510008B2AC917F92AC913F92A4008C900C91733
:100520004108C8004208C700C41F9A2AC9134515CC
:10053000052B4511C60143103E30840083131A2B4E
:10054000C41BC32A3C08C400431CAD2AC90CC80CF8
:10055000C70CC60CF70A0319002BC61FBE2AC70A10
:10056000031DBE2AC80A031DBE2AC90A031DBE2ACE
:10057000C90CC80CC70CF70A0319002B451B422AEB
:10058000C51B842AE22A8030C906C91FCB2A052B45
:100590004008C400D82A3C08C400C908031DD82A52
:1005A000C808031DD82AC708031DD82AF701F92A4D
:1005B000C91BE22A0310C60DC70DC80DC90DF70BE4
:1005C000D82A002BC41FE62AC917F92AC913F92A09
:1005D0003F08F7004008C9004108C8004208C700AA
:1005E000F92A3B08F7003C08C9003D08C8003E084E
:1005F000C7004908F8004808F9004708FA00382BF6
:10060000F701F801F901FA01382BC601C709C80939
:10061000C909C609C60A031D132BC70A031D132BDC
:10062000C80A0319C90A4518212AC518632A451999
:10063000992AC82A0008C707031C242BC80A031DCF
:10064000242BC90A0319431484030008C807031C98
:100650002C2BC90A0319431484030008801F803A15
:10066000C90703184314451A282AC51A6A2AA02A5A
:1006700008008E30F7003708F7023808F90039080B
:10068000F800F917F7080319502B0310F908031D98
:100690004C2BF8080319502BF90CF80CF70B452BD1
:1006A000B81F572BF809F909F80A0319F90A0800C5
:1006B0003C08C3004008C306C31F632B031103108B
:1006C000BC1B0314962B3C08C3003F08C4003B0826
:1006D000C4020319712BC31F962B0308013A830030
:1006E000962B4008C4003C08C40203197D2BC31F8D
:1006F000962B0308013A8300962B4108C4003D085D
:10070000C4020319892BC31F962B0308013A8300E7
:10071000962B4208C4003E08C4020319952BC31F40
:10072000962B0308013A8300962B031008008401DE
:1007300083131F30830583161F149F141F159F11E9
:1007400007309C008312A7010A30A80001308316ED
:100750008500F03086000030870088008312860113
:10076000831681131F109F101F119F111F138312D7
:100770001F179F1383169F1783121F14F8001F085B
:10078000C73978049F002130F700F70BC52B0711FC
:100790000C3097000030F80004389200FF308316C8
:1007A00092000108C0398100F730831281002130A6
:1007B000F700F70BD92BC0308B048B158B168316E3
:1007C00001178312AD080319E62B0A29280827020E
:1007D00003196C2E27083C3C031C672CC00127081A
:1007E000BF0066217930C2005830C1005C30C000C3
:1007F0008130BF007A08C6007908C5007808C400B7
:100800007708C30083217708B7007808B800790813
:10081000B9007A08BA0083107A08BE007908BD00D2
:100820007808BC007708BB005C30C2000F30C10004
:100830004E30C0008430BF00F8217A08B600790835
:10084000B5007808B4007708B3003608BA00350858
:10085000B9003408B8003308B70039237908B2006A
:100860007808B1003208C0003108BF006621831447
:100870003608BE003508BD003408BC003308BB0094
:100880007A08C2007908C1007808C0007708BF0064
:10089000F8217708B7007808B8007908B9007A0815
:1008A000BA00BE01BD01BC017E30BB003A08C200E7
:1008B0003908C1003808C0003708BF0058230318A2
:1008C000632C031D672C0130B1070318B20A2708F7
:1008D0003C3C03189D2D2708633C031C9D2DC00143
:1008E0002708BF0066216C30C2000930C100793092
:1008F000C0007530BF007A08C6007908C5007808C6
:10090000C4007708C30083217708B7007808B800CF
:100910007908B9007A08BA00C0012708BF0066212B
:100920003A08C2003908C1003808C0003708BF00C3
:100930007A08C6007908C5007808C4007708C300A3
:1009400083217708B7007808B8007908B9007A08D9
:10095000BA00C0012708BF0066213A08C200390862
:10096000C1003808C0003708BF007A08C6007908FF
:10097000C5007808C4007708C30083217708B70052
:100980007808B8007908B9007A08BA00C0012708C9
:10099000BF0066212230C2006C30C1007830C00038
:1009A0007D30BF007A08C6007908C5007808C40009
:1009B0007708C30083217708BB007808BC0079085A
:1009C000BD007A08BE00C0012708BF0066213E08AE
:1009D000C2003D08C1003C08C0003B08BF007A08C7
:1009E000C6007908C5007808C4007708C3008321D1
:1009F00083143A08BE003908BD003808BC00370827
:100A0000BB007A08C2007908C1007808C0007708E6
:100A1000BF00F8217708B7007808B8007908B90056
:100A20007A08BA00C0012708BF0066216030C20002
:100A3000E530C1002430C0008430BF007A08C60011
:100A40007908C5007808C4007708C30083218310A3
:100A50003A08BE003908BD003808BC003708BB00A2
:100A60007A08C2007908C1007808C0007708BF0082
:100A7000F8217708B7007808B8007908B9007A0833
:100A8000BA0083147A08BE007908BD007808BC005B
:100A90007708BB005C30C2005F30C1002A30C00064
:100AA0008830BF00F8217A08B6007908B5007808C8
:100AB000B4007708B3003608BA003508B900340826
:100AC000B8003308B70039237908B2007808B100BC
:100AD0003208C0003108BF00662183143608BE000A
:100AE0003508BD003408BC003308BB007A08C200DA
:100AF0007908C1007808C0007708BF00F82177089E
:100B0000B7007808B8007908B9007A08BA00BE01C1
:100B1000BD01BC017E30BB003A08C2003908C100EB
:100B20003808C0003708BF0058230318992D031D4B
:100B30009D2D0130B1070318B20A2708633C031842
:100B40006A2E2708B43C031C6A2EC0012708BF0088
:100B500066210730C2005F30C1009830C0007A3093
:100B6000BF007A08C6007908C5007808C400770875
:100B7000C30083217708B7007808B8007908B90066
:100B80007A08BA00C0012708BF0066213A08C200EF
:100B90003908C1003808C0003708BF007A08C6000D
:100BA0007908C5007808C4007708C3008321770856
:100BB000B7007808B8007908B9007A08BA00C0010F
:100BC0002708BF0066211D30C2005A30C100033023
:100BD000C0008330BF007A08C6007908C5007808D5
:100BE000C4007708C300832183103A08BE00390887
:100BF000BD003808BC003708BB007A08C20079087D
:100C0000C1007808C0007708BF00F8217708B70056
:100C10007808B8007908B9007A08BA0083147A080D
:100C2000BE007908BD007808BC007708BB000A3018
:100C3000C200F730C1003C30C0008830BF00F8214E
:100C40007A08B6007908B5007808B4007708B300D0
:100C50003608BA003508B9003408B8003308B700C0
:100C600039237908B2007808B1003208C000310891
:100C7000BF00662183143608BE003508BD00340865
:100C8000BC003308BB007A08C2007908C1007808AC
:100C9000C0007708BF00F8217708B7007808B800CF
:100CA0007908B9007A08BA00BE01BD01BC017E30E6
:100CB000BB003A08C2003908C1003808C000370834
:100CC000BF0058230318662E031D6A2E0130B1079A
:100CD0000318B20A2708A80032082A02031C8F2E24
:100CE000031D762E31082902031C8F2E8710310830
:100CF0002902B7002A08B8003208031C320FB802D4
:100D0000B80CB70CB80CB70CB80C37089500B80C79
:100D1000380C3039F7001708CF39770497002A08C4
:100D20003202031CBB2E031D992E31082902031821
:100D3000BB2E871429083102F7003208FA002A086E
:100D4000031C2A0FFA027708FF3CB7000330B800F3
:100D50007A08031C7A0FB802B80CB70CB80CB70CA1
:100D6000B80C37089500B80C380C3039F700170864
:0A0D7000CF3977049700E22B6300EF
:02400E00713F00
:00000001FF
;PIC16F877A
;CRC=1613  CREATED="03-mai-12 18:33"
