:10000000000000308A00F628FF00030E8301A100E3
:100010000A08A0008A010408A2007708A300780853
:10002000A4007908A5007A08A600831383128B1D0B
:100030001B280B182C28220884002308F70024080A
:10004000F8002508F9002608FA0020088A00210E89
:100050008300FF0E7F0E09008A110A122F2806085E
:10006000A8000030F8000B108A110A121B28861F06
:100070004D28061F4D28861E4D28061E4D280619A0
:100080004428061006154D2886184928061186149E
:100090004D2806184D2886100614A8080319B828FC
:1000A0002808A900AB012B08043C031C5928AB0A03
:1000B00053282808EF3C031CB7280430AB002B085A
:1000C000073C031C74282808F7002B08F8000319C4
:1000D0006D280310F70CF80B6928771872282B0885
:1000E000AA007428AB0A5F28AB012B08023C031C52
:1000F000B7282808F7002B08F800031983280310F5
:10010000F70CF80B7F287718B52804302A02B000C6
:100110003008B1000330B200F701F80131080310D4
:100120003218F707F70CF80CB218F707F70CF80CB1
:100130003219F707F70CF80CB219F707F70CF80C9F
:10014000321AF707F70CF80CB21AF707F70CF80C8D
:10015000321BF707F70CF80CB21BF707F70CF80C7B
:100160002B087807013EAA00B728AB0A7528A8011A
:100170008A110A121E29AF01B001AC080319C22866
:100180002C08B0002A080A3A0319CD28013A0319AD
:10019000CF28073A0319D028D528AC01F328D7284F
:1001A0003008AC000130AD00D7282A08AF00300875
:1001B000103C0318DF283008203C031DE828300ECF
:1001C000F700F030F70577082F07233C0318EB28DA
:1001D0002F08AC00F228300EF700F030F705770852
:1001E0002F07AC00AA018A110A1221298401831366
:1001F0001F308305A801FF30AE0083161F149F1423
:100200001F159F1107309C0000308500F0308600DC
:100210000030880087008312AE00831681130E30F1
:10022000831285008701F03086008801C0308B047E
:100230008B15A801AD08031D24293728AA08031D22
:0A024000BB282C0888001A29242985
:02400E00393740
:00000001FF
;PIC16F877A
;CRC=E167  CREATED="18-jun-12 21:33"
