:1000000000308A000428000084011F30830504307A
:10001000910092013F306600003065008316811325
:100020000E308312850086011108043C031D25282B
:1000300086191C2801309100061A202802309100F0
:10004000861A242803309100142811088500061808
:100050002B280130920086182F28023092000619B2
:100060003328033092008619372801308F07061A8B
:100070003B2801308F07861A3F2801308F070F0871
:10008000013C031846280E3085003F288F01861E4C
:100090005328061E5328861D53289208031D5328F3
:1000A0000E30850047281208110203185B28013022
:1000B0009000061767289208031966281108120293
:1000C000031866280230900086176728900192086E
:1000D000031906291008003A03197528013A031973
:1000E0007828033A0319BE280629861306139201BD
:1000F0001108023A03198028033A03199D28BD28E4
:100100001108023C031D9C28920803199C28061E16
:100110009428861A8E280330910006138619932896
:100120000E3085008E289B28861D9828861A9B28CD
:100130000E30850094288028BD28110BBC28920819
:100140000319BC28861DB428061AAE280230910077
:1001500011081202031DAE2892010613861AB32855
:100160000E308500AE28BB28861EB828061ABB288C
:100170000E308500B4289D28BD2806291108033AB1
:100180000319C628013A0319E82805291108033C78
:10019000031DE72892080319E728861EDF28061AA0
:1001A000D9280230910011081202031DD9289201AA
:1001B00086138619DE280E308500D928E628861D8C
:1001C000E328061AE6280E308500DF28C628052910
:1001D0001108023C031D0429920803190429061E74
:1001E000FC288619F628013091008613861AFB2810
:1001F0000E308500F6280329861D0029861A03295A
:100200000E308500FC28E8280529062911088500FC
:040210002728630038
:02400E00F93F78
:00000001FF
;PIC16F84
