:1000000001308A009F290000A01520088316870070
:100010008312201620088316870083128A110A1281
:10002000BD290830F80000008711A01120088316B0
:10003000870000008312A90D0712031C2528201633
:10004000200883168700292883122012200883168F
:10005000870000008312A0152008831687008312F2
:10006000871D3028F80B132800008711A0112008E5
:10007000831687000000831220162008831687004D
:10008000000000008312A015200883168700831249
:10009000871D4828F8010000071A78148711A0115D
:1000A0002008831687008312071220122008831667
:1000B000870083120800201620088316870000009E
:1000C0008312A015200883168700000083120712F0
:1000D0002012200883168700000083128711A011C8
:1000E000200883168700AE308312A900112024084F
:1000F000A700A8012408A90011202308A9001120A5
:100100002508A9001120201220088316870000006E
:100110008312A0152008831687008312871D8E285E
:100120000000922800002016200883168700000097
:100130008312201620088316870000008312A01562
:10014000200883168700000083120712201220085F
:1001500083168700000083128711A01120088316E0
:100160008700AE308312A900112078082610781875
:100170002614261CDE28201620088316870000007F
:100180008312A01520088316870000008312871DA4
:10019000C728071220122008831687000000831248
:1001A0008711A011200883168700AE308312A900A2
:1001B00011207808261078182614B9288A110A12F6
:1001C000C62924308400831300080319F528013060
:1001D000F800F701F70BEA28F80BE9284A30F70096
:1001E000F70BF028F328800BE7288A110A12CB2995
:1001F000201620088316870000008312A01520080F
:100200008316870000008312871D0429071220121D
:10021000200883168700000083128711A011200890
:1002200083168700AE308312A90011202408A6008F
:10023000A7012408A90011202308A90011202016D5
:1002400020088316870000008312A015200883165B
:10025000870000008312871D2B2907122012200817
:1002600083168700000083128711A01120088316CF
:100270008700AF308312A9001120F7010830A700D2
:100280007708A80020162008831687000000831234
:10029000A0152008831687008312871D4D29071A91
:1002A0000314071E0310F80D0000A0112008831688
:1002B000870083128711A70B422920162008831676
:1002C0008700000083120712280803196C292012E6
:1002D00020088316870083120000A01520088316CB
:1002E00087008312871D722900008711A011200842
:1002F000831687000000831207122012200883163D
:10030000870078088312A500201220088316870032
:1003100000008312A0152008831687008312871D12
:100320008F290000932900002016200883168700DB
:10033000000083122508F8008A110A12D1298401CD
:1003400083131F308305FF30A00083161F149F14F2
:100350001F159F111413003085008800F0308600AF
:10036000FF308312860083168700831205168316DA
:100370008113C230831288000428A1013630A20004
:10038000A4010F30A3002208A5005B280230A300BF
:100390009630A400E128A30BC829A4010F30A300C4
:1003A000F8287808A100210888000130A207C02998
:0203B0006300E8
:02400E00713F00
:00000001FF
;PIC16F877
;CRC=B5B3  CREATED="18-jun-12 14:43"
