:1000000002308A00F12A00000A108A100A118207C1
:1000100028340F34013406348C28D5204429412259
:100020004F10D62441224F00333084008313000840
:10003000031927280230F800F701F70B1D28F80BE9
:100040001C289730F700F70B2328800B1A2808008C
:100050003A182C2808122D280816BA1831288812A8
:10006000322888163A193628081337280817BA197B
:100070003B2888133C288817891489100800091028
:10008000B708031D45280910462809144230F70017
:10009000F70B482800008910380EB9000F30B90559
:1000A0003908BA00282038080F39B900BA002820CA
:1000B00008000812881208138813091089100F30DD
:1000C000B30014200130A9002908033C031C702848
:1000D0000330BA0028200530B3001420A90A642890
:1000E0000230BA002820A9012908033C031C8128FA
:1000F00029080420AA00B7012A08B8003F20A90A4D
:1001000074288A110A12272B32080C3A03199228F4
:10011000063A03199A28073A03199A28053A031947
:10012000B028B528B7010130B8003F200230B30035
:100130001420BB280130B3000230B400340BA128D6
:10014000A4284030B500A528B50101303302B50719
:1001500035088038B600B7013608B8003F20BB2804
:10016000B7011030B8003F20BB280130B70032087B
:10017000B8003F20BB280800831603178C170C1407
:100180000000000083120C087F39031900290313B3
:10019000A90003170D080313AA0003170F08031380
:1001A000AB002908B20084202A0803178D0003132E
:1001B0002B0803178F0083168C170C140000000007
:1001C00083120C0D0E0D7F39031900290313A900AA
:1001D00003170D080313AA0003170F080313AB003E
:1001E0002908B20084202A0803178D0003132B0866
:1001F00003178F008D0A03198F0A0313BC280317F6
:1002000003138A110A12312B8E30F7002A08F800E6
:100210002908F900FA01F808031D18297908F800DF
:10022000F9010830F702F808031D1829F701202901
:100230000310F81B1F29F90DF80DF7031829F813FF
:100240008A110A12462B29080319E829B5002D083E
:100250000319E829B502031C32297F30B5070318BA
:10026000E82938298130B502031CE8290319E82957
:100270003508F700F801F901FA01B4012A08B300C2
:10028000B3172B08B2002C08B1001930B5003008A4
:10029000B10203185B290130B20203185B29B302D3
:1002A00003185B29B40203185B29B40AB30AB20A23
:1002B0003008B1078D292F08B202031876290130C2
:1002C000B30203187629B40203187629B40AB30AD4
:1002D0002F08B2073008B107031C8D29B20A031D8D
:1002E0008D29B30A031D8D29B40A8D292E08803863
:1002F000B30203188C290130B40203188C29B40A04
:100300002E088038B3072F08B207031C6A29B30AE6
:10031000031D6A29B40A6A297A14B50B90299B290E
:100320000310B10DB20DB30DB40D0310FA0DF90D9C
:10033000F80DB60D4729361CA3290310F80CF90C4B
:10034000FA0CB60CA629F7030319E829B61BCF2926
:100350000310B10DB20DB30DB40D3008B102031886
:10036000BB290130B2020318BB29B3020318BB2911
:10037000B402031CDE292F08B2020318C62901307B
:10038000B3020318C629B402031CDE292E088038E4
:10039000B3020318CF290130B402031CDE29FA0A84
:1003A000031DDE29F90A031DDE29F80A031DDE29D3
:1003B000F70A0319E829F80CF90CFA0C2A08B50019
:1003C0002E08B506B51FE629F817EC29F813EC2915
:1003D000F701F801F901FA018A110A12572B8E3040
:1003E000F7002908F7022A08F9002B08F800F91786
:1003F000F7080319062A0310F908031D022AF80852
:100400000319062AF90CF80CF70BFB29AA1F0D2A71
:10041000F809F909F80A0319F90A8A110A12602B76
:10042000B1010408B0003110831B31142A0EF038DA
:10043000AC00AC07E23EAD00323EAF002A080F39F7
:10044000AD07AD07AF07E93EAE00AE07AE07290E18
:100450000F39AE07AF07AE0DAF0DAF09AF0D2908CD
:100460000F39AF07AC0D0730AB000A30AF07AE0352
:10047000031C362AAE07AD03031C3A2AAD07AC03B2
:10048000031C3E2AAC07AB03031C422A2B3084001A
:10049000831307303005301384072F30040203190B
:1004A00030170008F700031D5D2A301B5D2A301A43
:1004B0006F2AB0195D2A2030602AB0153012303012
:1004C000F707AA010408A9002A10831B2A14770839
:1004D000B20084202908840083132A188317840A11
:1004E000301F4D2A8A110A12722B3008F8012F0290
:1004F00003187D2A2F08F700892AF7010830B10078
:10050000AF0DF70D300877020318F700F80DB10BA7
:10051000802A080020302A1E3030AB002908F7005E
:10052000A91F992AF709F70A7708A9002D30AB000F
:10053000AA172908AF006430B00075227708A90017
:1005400030307807AC002908AF000A30B0007522BF
:1005500030307707AE0030307807AD002B08F70059
:10056000AA1DB42AAA1F2A112A1AC12AAA1FDC2AE4
:100570002A19DC2A7708AC00AA18DC2A7708AD0013
:10058000DC2A30302C02031DDC2A7708AC00203036
:10059000AB00AA1DCF2A2A11AA14AA1FAA10303014
:1005A0002D02031DDC2A7708AD002030AC00AA1D07
:1005B000CF2AAA10AA1F2A102A1DE12A2B08B2004E
:1005C0008420AA1CE62A2C08B20084202A1CEB2ACC
:1005D0002D08B20084202E08B20084208A110A124D
:1005E000802B840183131F30830583161F149F14EF
:1005F0001F159F1107309C008312A001A10102303A
:1006000083168500F83086000030870088000910C6
:1006100089100911831286018316811383128801C0
:1006200083161F109F101F159F111F1383121F1772
:100630009F1383169F1783121F140830F8001F089A
:10064000C73978049F006430B300142059286430FF
:10065000B30014200C3003178D0000308F000313FB
:10066000BC280430A900FA30B3001420A90B332BA6
:100670001F151F19392B83161E088312A6001E088A
:10068000A7002708AA002608A90004297A08AC00B8
:100690007908AB007808AA007708A900AA30B00052
:1006A000F130AF000230AE008030AD0023297A086F
:1006B000AC007908AB007808AA007708A900EF29F8
:1006C0007808A8000C30B20084205630B200842094
:1006D0003A30B2008420093084002708AA00260896
:1006E000A900102A0A30B20084205430B2008420BD
:1006F0003A30B20084202808A9000130AA008A2AD2
:100700008715C830B30014208711C830B3001420F7
:04071000382B63001F
:02400E00723FFF
:00000001FF
;PIC16F877A
;CRC=00D1  CREATED="31-jan-13 14:44"
