:1000000000308A009D2800008C018D011F0803101C
:1000100020188C078C0C8D0CA0188C078C0C8D0C68
:1000200020198C078C0C8D0CA0198C078C0C8D0C56
:10003000201A8C078C0C8D0CA01A8C078C0C8D0C44
:10004000201B8C078C0C8D0CA01B8C078C0C8D0C32
:1000500000349C011C08033C031C7E281C08FC3E49
:1000600003184028043E80287E30860040287D30DA
:10007000860040287B308600402877308600402864
:10008000061A51281B08840003309F001C08A0009A
:10009000042001300D0780007F30860000308D0085
:1000A0007F28861A6B281B08840003309F001C08D9
:1000B000A000042002300D0780001B088400000807
:1000C0000B3C031D66281B08840080017F308600DE
:1000D00000308D007F28061B7C281B08840003301D
:1000E0009F001C08A000042003300D0780007F3013
:1000F000860000308D007F289C0A2A282928003499
:100100000A108A100A118207342837283A283D2815
:100110001C308400000803199C2801308D008C01DC
:100120008C0B90288D0B8F284A308C008C0B9628D6
:1001300000000000800B8D28003484011F308305EF
:100140008F0191010F309200703066000030650021
:10015000831681130A30831285007F3086000130B8
:1001600090001008053C031C032912309B00292035
:1001700086171E309C008820861312080A3A03193D
:10018000C528063A0319D928E9281008023C0318A3
:10019000D02803301002133E840000088500D228C6
:1001A0000A308500023090021008FD3C031C9001CB
:1001B000F8281008053C031DE0280C308500E328D2
:1001C0000E3085009001C8309C0088200A308500E0
:1001D000F8281008053C0319F6281208850001309C
:1001E0001002133E840012088000F82801309002AB
:1001F00086010608703C031901290A309C008820FA
:10020000F928900AB128013090001008053C031C21
:10021000762912309B00292086171E309C008820EA
:10022000861312080A3A03191929063A03192229D2
:1002300039290A308500023090021008FD3C031C69
:1002400090015B291008053C031D2E290F08023C74
:1002500003182E290C308500910133290E308500BA
:10026000013091079001C8309C0088208F019001D7
:100270005B291008053C031946290A308500013026
:100280001002173E840012088000482901309002B5
:1002900001301002173E840000089C00013010025B
:1002A000133E840000081C02031D592901308F07EA
:1002B0005B2901308F020A30850086010608703CF8
:1002C000031966290A309C0088205E291108033C26
:1002D000031D742986170A309B00FA309C00882081
:1002E0009B0B6D2986139101900A05290329630050
:02400E00F93F78
:00000001FF
;PIC16F84
