:1000000004308A00DD2C0000FF00030E8301A100F4
:100010000A08A0008A010408A2007708A300780853
:10002000A4007908A5007A08A600831383128B1D0B
:100030001B280B1838288C308400801E21288C1A2D
:100040003B288D308400001C27280D183E282208EC
:1000500084002308F7002408F8002508F900260882
:10006000FA0020088A00210E8300FF0E7F0E09008F
:100070008A110A1249288A110A12C5288A110A12FD
:100080000E290A108A100A11820728340C34013410
:1000900006343308B4000608B3003308F03C0318F4
:1000A00053283408B3000030F8000B108A110A12EC
:1000B0002728690EF039F7000F300805770488000B
:1000C000000089146328891008000910661C0910B3
:1000D000661809140000091100008910670EE80075
:1000E0000F30E8056808E900592067080F39E80073
:1000F000E9005920080062308400831300080319C6
:100100008F280130F800F701F70B8428F80B8328BB
:100110004A30F700F70B8A288D28800B81280800C9
:1001200061080C3A03199B28063A0319A328023ADE
:100130000319B928BE28E6010130E7006520023026
:10014000E2007B20C4280130E2000230E300630BB0
:10015000AA28AD284030E400AE28E4010130620254
:10016000E40764088038E500E6016508E7006520DB
:10017000C428E6011030E7006520C4280130E600FD
:100180006108E7006520C428080030303F07DF0021
:100190008C1EC8281A085F020319F428F8300317C8
:1001A0008D0000308F0083168C170C1400000000A7
:1001B00083128C080319F3280D080313DF000317BB
:1001C0000F080313E00003170C080313E10090204D
:1001D0005F0803178D000313600803178F008D0A53
:1001E00003198F0AD32803138C128A110A122728A5
:1001F000463441344C344834413420344E34413454
:1002000020340A3443344F344D3455344E34493459
:1002100043344134C734C3344F3400343608023CCD
:10022000031D29291608B8001508B7001C08BA00D4
:100230001B08B9000130B6000F08FA000E08F700DD
:100240000F087A02031D1C297708BD007A08BE003A
:10025000C20A0D108A110A1227280C102010A02A99
:100260004C2AD220D3274D102010201000000C3A29
:100270006D39311D20102010E434733A3A008A128F
:10028000B01AEC3A201020102518333675102000D3
:100290008316091089100911003088008312091093
:1002A00009118910A7018B1BA7178B130F30E200D0
:1002B0007B20A71B8B170130CB004B08033C031C92
:1002C0007529A7018B1BA7178B130330E900592051
:1002D000A71B8B17A7018B1BA7178B130530E200F9
:1002E0007B20A71B8B17CB0A5D29A7018B1BA717A8
:1002F0008B130230E9005920A71B8B17CB014B0849
:10030000033C031C92294B084120CC00A7018B1B06
:10031000A7178B13E6014C08E7006520A71B8B1776
:10032000CB0A7F298A110A123B2D831603178C17DB
:100330000C140000000083120C087F390319E52912
:100340000313CB0003170D080313CC0003170F088A
:100350000313CD00A7018B1BA7178B134B08E100DC
:100360009020A71B8B174C0803178D0003134D0813
:1003700003178F0083168C170C14000000008312E3
:100380000C0D0E0D7F390319E5290313CB0003175C
:100390000D080313CC0003170F080313CD00A701AA
:1003A0008B1BA7178B134B08E1009020A71B8B1703
:1003B0004C0803178D0003134D0803178F008D0A97
:1003C00003198F0A031395290317031308008E30AE
:1003D000F7004E08F8004D08F900FA01F808031D6F
:1003E000FB297908F800F9010830F702F808031D25
:1003F000FB29F701032A0310F81B022AF90DF80D57
:10040000F703FB29F8138A110A128B2D4D080319E3
:10041000762AD50051080319762AD5070318172A1A
:100420007F30D502031C762A0319762A1B2A8130D5
:10043000D5070318762A5508F700F801F901FA01E3
:100440004E08D900D9174F08D8005008D7001830E7
:10045000D500D601571C442A5408FA07031C362A33
:10046000F90A031D362AF80A0319D6175308F907A3
:10047000031C3D2AF80A0319D6175208CF00CF17DC
:100480004F08F8070318D617D60DF80CF90CFA0C1C
:10049000D90CD80CD70C0310D50B292A0130F7073B
:1004A0000318762AF81B5B2AD90DFA0DF90DF80D01
:1004B000F7030319762AD91F6C2AFA0A031D6C2A3E
:1004C000F90A031D6C2AF80A031D6C2AF80CF90CB2
:1004D000FA0CF70A0319762A4E08D6005208D606F7
:1004E000D61F742AF8177A2AF8137A2AF701F80126
:1004F000F901FA018A110A129C2D8E30F7004B087F
:10050000F7024C08F9004D08F800F917F70803192D
:10051000942A0310F908031D902AF8080319942A55
:10052000F90CF80CF70B892ACC1F9B2AF809F9095A
:10053000F80A0319F90A8A110A12A52DD50104082F
:10054000D4005510831B55144E0EF038D000D00740
:10055000E23ED100323ED3004E080F39D107D10719
:10056000D307E93ED200D207D2074D0E0F39D2078A
:10057000D307D20DD30DD309D30D4D080F39D307AF
:10058000D00D0730CF000A30D307D203031CC42A92
:10059000D207D103031CC82AD107D003031CCC2ADD
:1005A000D007CF03031CD02A4F30840083130730B9
:1005B00054055413840753300402031954170008D8
:1005C000F700031DEB2A541BEB2A541A032BD419F2
:1005D000EB2A2030EE2AD41554123030F707CE0122
:1005E0000408CD004E10831B4E14A7018B1BA717C8
:1005F0008B137708E1009020A71B8B174D08840010
:1006000083134E188317840A541FDB2A08008316AD
:1006100003178C170C140000000003183C2B8312E6
:100620000C087F390313CE0003170D080313CF0006
:1006300003170F080313D000A7018B1BA7178B13F9
:100640004E08E1009020A71B8B174F0803178D0061
:100650000313500803178F0083168C170C14000027
:10066000000083120313CD0B362B392B831603178F
:100670003C2B612B8316031783120C0D0E0D7F3953
:100680000313CE0003170D080313CF0003170F0841
:100690000313D000A7018B1BA7178B134E08E10093
:1006A0009020A71B8B174F0803178D0003135008CA
:1006B00003178F008D0A03198F0A03100313CD0B44
:1006C000072B8A110A12E22D5208F8015102031871
:1006D0006C2B5108F700782BF7010830D300D10DAF
:1006E000F70D520877020318F700F80DD30B6F2BA4
:1006F0000800F701F8014D0803104E18F707F70C32
:10070000F80CCE18F707F70CF80C4E19F707F70C92
:10071000F80CCE19F707F70CF80C4E1AF707F70C80
:10072000F80CCE1AF707F70CF80C4E1BF707F70C6E
:10073000F80CCE1BF707F70CF80C08003B08CB00B1
:100740002F08D1006430D20064237808C600460820
:10075000CD006430CE00792378082F02CD00D1007F
:100760000A30D20064237808C7004608CD00643000
:10077000CE00792378082F02CC004708CD000A303C
:10078000CE00792378084C02C8004708460748077E
:10079000BF003F08093C0318DC2B3F08D1000A309A
:1007A000D20064237808CC003F08D1000A30D20080
:1007B000642377084C07BF00CA014330C9002F08E3
:1007C000CC001B30CD0078084C08D1006430D2003A
:1007D00064237708CC0078083030031DF62BCD1C3D
:1007E000082CCD19082C4D1A2030F92BCD114D12A3
:1007F0004D14F8077808CE004908840083134A187E
:1008000083174E088000840A8001C90A0319CA0AA6
:100810004C08D1000A30D20064237708CC00780855
:100820003030031D192CCD19282C4D1C282C4D1AA5
:100830002030F8077808CE004908840083134A184E
:1008400083174E088000840A8001C90A0319CA0A66
:100850003030CC074C08CE004908840083134A1876
:1008600083174E088000840A8001C90A0319CA0A46
:100870006930CE004908840083134A1883174E0854
:100880008000840A8001C90A0319CA0A2F08633C40
:10089000031C502C4408C5004308C4003030C3007A
:1008A0002F08093C031C5A2C4408C5004308C40007
:1008B0003030C30043300C1E5B2C990043080C1EE3
:1008C0005F2C990044080C1E632C990045080C1EEF
:1008D000672C99003F08CB001F30CC0020304C1E05
:1008E0003030CD004B08F700CB1F7D2CF709F70AFD
:1008F0007708CB002D30CD00CC174B08D1006430E9
:10090000D20064237708CB0030307807CE004B0844
:10091000D1000A30D200642330307707D000303065
:100920007807CF004D08F700CC1D982CCC1F4C1138
:100930004C1AA52CCC1FC02C4C19C02C7708CE000B
:10094000CC18C02C7708CF00C02C30304E02031DCD
:10095000C02C7708CE002030CD00CC1DB32C4C111C
:10096000CC14CC1FCC1030304F02031DC02C7708A4
:10097000CF002030CE00CC1DB32CCC10CC1F4C109F
:100980004C1DC62C4D080C1EC32C9900CC1CCC2C25
:100990004E080C1EC92C99004C1CD22C4F080C1E62
:1009A000CF2C990050080C1ED32C990046300C1EF9
:1009B000D72C99008A110A12FC2D840183131F3051
:1009C0008305193083169900A63098009030831261
:1009D0009800FF30A800AF01B301C001C101C201FE
:1009E000CA01C90183161F149F141F159F110730D8
:1009F0009C008312A901AA01003083168500F830FB
:100A000086008F30870000308800831286018316AD
:100A10008113831205168801AF010A30B0008316D6
:100A20001F109F101F159F111F1383121F179F1355
:100A300083169F1783121F140830F8001F08C73948
:100A400078049F002130F700F70B242D0030F800C8
:100A500004389200FF308316920095308312900084
:100A600083160108C039063881002130F700F70BE2
:100A7000372D831248299701053097009D010430D6
:100A80009D00C0308B048B1583160D148312A701B3
:100A90008B1BA7178B130A30E2007B20A71B8B1739
:100AA000B301B5018F018E012D3003178D00013088
:100AB0008F00031395210C30CB00A7018B1BA717C8
:100AC0008B13FA30E2007B20A71B8B17CB0B5D2D1D
:100AD000373003178D0001308F00031395218514E3
:100AE000712D722D85108F018E01023083168500C5
:100AF00001308312B600360B072E37083902CB00BF
:100B00003A08CC003808031C380FCC024C08CE0041
:100B10004B08CD00E7297A08D0007908CF00780883
:100B2000CE007708CD002930D400ED30D3000D3051
:100B3000D2007A30D100062A7A08CE007908CD009A
:100B40007808CC007708CB007D2A7908BC007808AB
:100B5000BB00BC08031DB02D3B08B43C0318B32DEB
:100B6000BC01B430BB00BC08031DBD2D3B08093CD3
:100B7000031CBD2DBC010A30BB003B08AF00370889
:100B80003902CB003A08CC003808031C380FCC02DD
:100B9000A7018B1BA7178B130A30E1009020A71B1E
:100BA0008B17083084004C08CE004B08CD009E22E5
:100BB000423003178D0001308F00031004300313FF
:100BC000CD00072B0A3084003C08CE003B08CD0046
:100BD0009E22A7018B1BA7178B132030E1009020CA
:100BE000A71B8B17A7018B1BA7178B132030E100C6
:100BF0009020A71B8B179E2BB601A7018B1BA71755
:100C00008B131E30E2007B20A71B8B17C10AB6088E
:100C1000031D202E00308316850083128514213099
:100C2000F700F70B112E8510023083168500F9307E
:100C3000F700F70B192E1C2E02308312B600C00AE3
:040C40007B2D6300A5
:02400E00713F00
:00000001FF
;PIC16F877A
;CRC=B730  CREATED="23-out-12 13:33"
