:1000000004308A004B2C0000FF00030E8301A10086
:100010000A08A0008A010408A2007708A300780853
:10002000A4007908A5007A08A600831383128D30F6
:100030008400001C1D280D182E2822088400230887
:10004000F7002408F8002508F9002608FA0020081F
:100050008A00210E8300FF0E7F0E09008A110A120A
:1000600039280A108A100A11820728340C34013406
:1000700006343808023C031D48281608C600150837
:10008000C5001C08C8001B08C7000130B800BB0A27
:100090000D108A110A121D280C102010A02A4C2ABB
:1000A000D220D3274D000C32693365392E1DA012A2
:1000B000EC3A2005E434733A6137E334611DA01251
:1000C000753200008934ED32F2183A10A51AEC3A74
:1000D0002005E434733A6137E334611DA012B33A6A
:1000E000000057308400831300080319852801306D
:1000F000F800F701F70B7A28F80B79284A30F70057
:10010000F70B80288328800B772808005E0EF039D3
:10011000F7000F3008057704880000008914902844
:100120008910080009105B1C09105B1809140000F5
:100130000911000089105C0EDD000F30DD055D083F
:10014000DE0086205C080F39DD00DE008620080016
:1001500083160910891009110030880083120910D4
:10016000091189100F30D70071200130CB004B08E6
:10017000033C031CC3280330DE0086200530D70073
:100180007120CB0AB7280230DE008620CB014B0855
:10019000033C031CD4284B083120CC00DB014C0865
:1001A000DC009220CB0AC7288A110A12A72C560815
:1001B0000C3A0319E228063A0319EA28023A03190D
:1001C00000290529DB010130DC0092200230D70034
:1001D00071200B290130D7000230D800580BF128CC
:1001E000F4284030D900F528D90101305702D90749
:1001F00059088038DA00DB015A08DC0092200B290C
:10020000DB011030DC0092200B290130DB005608A6
:10021000DC0092200B290800831603178C170C149E
:100220000000000083120C087F39031950290313C2
:10023000CB0003170D080313CC0003170F0803139B
:10024000CD004B08D600D7204C0803178D000313B0
:100250004D0803178F0083168C170C140000000044
:1002600083120C0D0E0D7F39031950290313CB0097
:1002700003170D080313CC0003170F080313CD0059
:100280004B08D600D7204C0803178D0003134D08E8
:1002900003178F008D0A03198F0A03130C29031704
:1002A00003138A110A12C12C831603178C170C141E
:1002B000000000000318832983120C087F39031300
:1002C000CE0003170D080313CF0003170F08031305
:1002D000D0004E08D600D7204F0803178D00031317
:1002E000500803178F0083168C170C1400000000B1
:1002F00083120313CD0B7D298029831603178329CD
:10030000A2298316031783120C0D0E0D7F390313D8
:10031000CE0003170D080313CF0003170F080313B4
:10032000D0004E08D600D7204F0803178D000313C6
:10033000500803178F008D0A03198F0A0310031347
:10034000CD0B54290800D5010408D4005510831B97
:1003500055144E0EF038D000D007E23ED100323EA8
:10036000D3004E080F39D107D107D307E93ED20099
:10037000D207D2074D0E0F39D207D307D20DD30DB6
:10038000D309D30D4D080F39D307D00D0730CF0057
:100390000A30D307D203031CC929D207D103031C97
:1003A000CD29D107D003031CD129D007CF03031CCB
:1003B000D5294F3084008313073054055413840724
:1003C00053300402031954170008F700031DF029E5
:1003D000541BF029541A022AD419F0292030F32989
:1003E000D41554123030F707CE010408CD004E105A
:1003F000831B4E147708D600D7204D088400831342
:100400004E188317840A541FE02908005208F80187
:10041000510203180E2A5108F7001A2AF701083072
:10042000D300D10DF70D520877020318F700F80D2D
:10043000D30B112A080078084D08D1006430D2008F
:1004400006227708CD0078083030031D2E2ACE1CF6
:10045000352ACE19352A4E1A2030312ACE114E12A5
:100460004E14F8077808D600D7204D08D1000A307E
:10047000D20006227708CD0078083030031D462AC6
:10048000CE194A2A4E1C4A2A4E1A2030F8077808FC
:10049000D600D7203030CD074D08D600D720080031
:1004A0008E30F7004E08F8004D08F900FA01F80800
:1004B000031D642A7908F800F9010830F702F808EA
:1004C000031D642AF7016C2A0310F81B6B2AF90D2F
:1004D000F80DF703642AF8138A110A12022D4D0849
:1004E0000319DF2AD50051080319DF2AD50703189D
:1004F000802A7F30D502031CDF2A0319DF2A842AD1
:100500008130D5070318DF2A5508F700F801F901F3
:10051000FA014E08D900D9174F08D8005008D70063
:100520001830D500D601571CAD2A5408FA07031C11
:100530009F2AF90A031D9F2AF80A0319D6175308A0
:10054000F907031CA62AF80A0319D6175208CF0088
:10055000CF174F08F8070318D617D60DF80CF90C6B
:10056000FA0CD90CD80CD70C0310D50B922A0130F9
:10057000F7070318DF2AF81BC42AD90DFA0DF90D65
:10058000F80DF7030319DF2AD91FD52AFA0A031D2C
:10059000D52AF90A031DD52AF80A031DD52AF80C15
:1005A000F90CFA0CF70A0319DF2A4E08D600520894
:1005B000D606D61FDD2AF817E32AF813E32AF70137
:1005C000F801F901FA018A110A12132D8E30F70091
:1005D0004B08F7024C08F9004D08F800F917F70826
:1005E0000319FD2A0310F908031DF92AF808031955
:1005F000FD2AF90CF80CF70BF22ACC1F042BF80992
:10060000F909F80A0319F90A8A110A121C2DF701CF
:10061000F8014D0803104E18F707F70CF80CCE1828
:10062000F707F70CF80C4E19F707F70CF80CCE1972
:10063000F707F70CF80C4E1AF707F70CF80CCE1A60
:10064000F707F70CF80C4E1BF707F70CF80CCE1B4E
:10065000F707F70CF80C08004908840083134A18C0
:1006600083174E088000840A8001C90A0319CA0A48
:1006700008002E08CB002E08D1006430D2000622DC
:100680007808C2004208CD006430CE000723780805
:100690002E02CD00D1000A30D20006227808C30015
:1006A0004208CD006430CE00072378082E02CC002B
:1006B0004308CD000A30CE00072378084C02C4005E
:1006C000430842074407BE003E08093C0318772B45
:1006D0003E08D1000A30D20006227808CC003E083D
:1006E000D1000A30D200062277084C07BE00CA01AA
:1006F0003F30C9002E08CC001B30CD004C08D10083
:100700006430D20006227708CC0078083030031D10
:10071000902BCD1C972BCD19972B4D1A2030932B56
:10072000CD114D124D14F8077808CE002C234C083B
:10073000D1000A30D20006227708CC007808303089
:10074000031DA82BCD19AC2B4D1CAC2B4D1A203002
:10075000F8077808CE002C233030CC074C08CE00A8
:100760002C236930CE002C232E08633C031CBE2BA7
:100770004008C1003F08C0003030BF002E08093CCF
:10078000031CC82B4008C1003F08C0003030BF0028
:1007900043300C1EC92B99003F080C1ECD2B99002D
:1007A00040080C1ED12B990041080C1ED52B990036
:1007B0003E08CB001F30CC0020304C1E3030CD0026
:1007C0004B08F700CB1FEB2BF709F70A7708CB0094
:1007D0002D30CD00CC174B08D1006430D20006225A
:1007E0007708CB0030307807CE004B08D1000A30B4
:1007F000D200062230307707D00030307807CF00A3
:100800004D08F700CC1D062CCC1F4C114C1A132C94
:10081000CC1F2E2C4C192E2C7708CE00CC182E2C49
:100820007708CF002E2C30304E02031D2E2C770877
:10083000CE002030CD00CC1D212C4C11CC14CC1F6F
:10084000CC1030304F02031D2E2C7708CF00203003
:10085000CE00CC1D212CCC10CC1F4C104C1D342CA8
:100860004D080C1E312C9900CC1C3A2C4E080C1E45
:10087000372C99004C1C402C4F080C1E3D2C990025
:1008800050080C1E412C990046300C1E452C990036
:100890008A110A12542D840183131F3083051930E5
:1008A00083169900A6309800903083129800FF308C
:1008B000A700AE01B401CA01C90183161F149F1419
:1008C0001F159F1107309C008312A801A901023057
:1008D00083168500F83086008030870083128601F9
:1008E00083168113831205168801AE010A30AF000A
:1008F00083161F109F101F159F111F1383121F17A0
:100900009F1383169F1783121F140830F8001F08C7
:10091000C73978049F002130F700F70B8D2C0711A1
:100920000C3097000030F80004389200FF30831636
:10093000920095308312900083160108C039063862
:1009400081002130F700F70BA32C8312A828970110
:10095000053097009D0104309D0083168C16C03031
:1009600083128B0483160D140A308312D700712072
:10097000B401B7014C3003178D0000308F00031312
:100980000C290430CB00FA30D7007120CB0BC32CDC
:100990004608C8004508C700533003178D000030D3
:1009A0008F00031009300313CD0054211030840050
:1009B0004808CE004708CD00A321593003178D0009
:1009C00000308F0003100D300313CD005421300888
:1009D000CD001B30CE001B226430D600D7200A3059
:1009E000D7007120380B592D45084702CB00480825
:1009F000CC004608031C460FCC024C08CE004B0826
:100A0000CD00502A7A08D0007908CF007808CE00AF
:100A10007708CD002930D400ED30D3000D30D2005E
:100A20007A30D1006F2A7A08CE007908CD00780894
:100A3000CC007708CB00E62A7808B0003008B43C38
:100A40000318242DB430B0003008093C031C2A2DB3
:100A50000A30B00045084702CB004808CC004608E1
:100A6000031C460FCC02623003178D0000308F004C
:100A7000031008300313CD005421003084004C08CB
:100A8000CE004B08CD00A321683003178D00003045
:100A90008F0003100D300313CD0054213008CD001A
:100AA0001330CE001B22392BB801562D572D0000D4
:100AB000BA0AB808031D722D003083168500831210
:100AC00085142130F700F70B632D85100230831653
:100AD0008500F930F700F70B6B2D6E2D0230831275
:080AE000B800B90AF22C630012
:02400E00713F00
:00000001FF
;PIC16F877A
;CRC=4222  CREATED="23-out-12 11:30"
