:100000000A308A00FA2A0000FF00030E8301A100D3
:100010000A08A0008A010408A2007708A300780853
:10002000A4007908A5007A08A600831383128C30F7
:100030008400801E1D288C1A32288B1E21280B1943
:100040003528220884002308F7002408F800250832
:10005000F9002608FA0020088A00210E8300FF0E0E
:100060007F0E09008A110A1240288A110A12B62D41
:100070000A108A100A11820728340C34013406341D
:10008000410B43288B280310420D443EF800FA012F
:100090000318FA0A7808DE007A08DF008C1E4E2862
:1000A0001A08E0006008E10061082F3C031864288A
:1000B0006108393C031C642830306102FA01F80001
:1000C0007A08F9007A2876286108433C031D6D28D8
:1000D0000A30F8000030F9007A286108463C031D18
:1000E00076280B30F8000030F9007A280C30F80040
:1000F0000030F9005E08840083135F188317840AB8
:10010000790880008403780880004208043C0318C2
:100110008B280130C1000130C207420B96284408E9
:100120000A3C031D9528C508031DC2018C128A11C3
:100130000A1221280A102010201020102518B33A86
:1001400000000A1020102010A02272396F00091040
:100150006C1C09106C1809140000091100008910AA
:100160006D0EEE000F30EE056E08EF006F0EF039E9
:10017000F7000F3008057704880000008914C028B4
:1001800089106D080F39EE006E08EF006F0EF03920
:10019000F7000F3008057704880000008914D02884
:1001A0008910080068308400831300080319E628CA
:1001B0000130F800F701F70BDB28F80BDA284A309A
:1001C000F700F70BE128E428800BD828080067081F
:1001D0000C3A0319F228063A0319FA28023A0319CD
:1001E00010291529EC010130ED00A7200230E800AC
:1001F000D2201B290130E8000230E900690B0129F7
:1002000004294030EA000529EA0101306802EA07C2
:100210006A088038EB00EC016B08ED00A7201B2971
:10022000EC011030ED00A7201B290130EC0067081D
:10023000ED00A7201B2908006108F80160020318DF
:1002400024296008F7003029F7010830E200E00DAA
:10025000F70D610877020318F700F80DE20B272964
:10026000080078085E08E0006430E1001C2177088F
:10027000DE0078083030031D4429DF1C4B29DF19CC
:100280004B295F1A20304729DF115F125F14F807EE
:100290007808E700E7205E08E0000A30E1001C2152
:1002A0007708DE0078083030031D5C29DF196029EB
:1002B0005F1C60295F1A2030F8077808E700E72004
:1002C0003030DE075E08E700E72008008E30F700D8
:1002D0006808F8006708F900FA01F808031D7A2990
:1002E0007908F800F9010830F702F808031D7A29A7
:1002F000F70182290310F81B8129F90DF80DF70386
:100300007A29F813080067080319F329EF006B082E
:100310000319F329EF07031894297F30EF02031C18
:10032000F3290319F32998298130EF070318F329DA
:100330006F08F700F801F901FA016808F300F317F4
:100340006908F2006A08F1001830EF00F001711C32
:10035000C1296E08FA07031CB329F90A031DB32942
:10036000F80A0319F0176D08F907031CBA29F80AEF
:100370000319F0176C08E900E9176908F807031872
:10038000F017F00DF80CF90CFA0CF30CF20CF10C60
:100390000310EF0BA6290130F7070318F329F81B08
:1003A000D829F30DFA0DF90DF80DF7030319F32908
:1003B000F31FE929FA0A031DE929F90A031DE929AE
:1003C000F80A031DE929F80CF90CFA0CF70A0319CD
:1003D000F3296808F0006C08F006F01FF129F817FF
:1003E000F729F813F729F701F801F901FA010800D4
:1003F00080308318E806ED01EE016408EC0068081F
:10040000EC0663080319E82AEB00F70067080319F4
:10041000F12AEB0203198D2A031C4B2A6808F1000C
:10042000F1176908F0006A08EF00EE010310F10C03
:10043000F00CEF0CEE0CEB0B152AEC1F222A6D14BE
:10044000052B6D106B106D166630840083131A2B0C
:100450006D12EC1B352A6B1C402AF10CF00CEF0CD2
:10046000EE0CF70A0319002B402AF11B432A031054
:10047000EE0DEF0DF00DF10DF7030319002B352AEA
:100480006D17AD2A6D136408EC00EC1F492AF117B3
:10049000F92AF113F92A6708EB00F7006308EB0269
:1004A0006408F100F1176508F0006608EF00EE013E
:1004B0000310F10CF00CEF0CEE0CEB0B572AEC1FB9
:1004C000642AED14052BED106B10ED166A308400D4
:1004D00083131A2BED12EC1B772A6B1C822AF10C6A
:1004E000F00CEF0CEE0CF70A0319002B822AF11B1B
:1004F000852A0310EE0DEF0DF00DF10DF703031932
:10050000002B772AED17AD2AED136808EC00EC1FDD
:100510008B2AF117F92AF113F92A6808F100F1176B
:100520006908F0006A08EF00EC1F9A2AF1136D15B4
:10053000052B6D11EE016B106630840083131A2BAE
:10054000EC1BC32A6408EC006B1CAD2AF10CF00C08
:10055000EF0CEE0CF70A0319002BEE1FBE2AEF0A70
:10056000031DBE2AF00A031DBE2AF10A031DBE2A7E
:10057000F10CF00CEF0CF70A0319002B6D1B422A4B
:10058000ED1B842AE22A8030F106F11FCB2A052BCD
:100590006808EC00D82A6408EC00F108031DD82A8A
:1005A000F008031DD82AEF08031DD82AF701F92AFD
:1005B000F11BE22A0310EE0DEF0DF00DF10DF70B1C
:1005C000D82A002BEC1FE62AF117F92AF113F92A91
:1005D0006708F7006808F1006908F0006A08EF0092
:1005E000F92A6308F7006408F1006508F00066085E
:1005F000EF007108F8007008F9006F08FA00382B56
:10060000F701F801F901FA01382BEE01EF09F009C1
:10061000F109EE09EE0A031D132BEF0A031D132B3C
:10062000F00A0319F10A6D18212AED18632A6D19D1
:10063000992AC82A0008EF07031C242BF00A031D7F
:10064000242BF10A03196B1484030008F007031C20
:100650002C2BF10A03196B1484030008801F803AC5
:10066000F10703186B146D1A282AED1A6A2AA02ABA
:1006700008005E08013A0319442B033A03197E2B44
:10068000013A03196D2CF22CE8012908E7006621D4
:100690002F30EA00DD30E9005A30E8008130E70011
:1006A0007A08EE007908ED007808EC007708EB0096
:1006B00083217708DF007808E0007908E1007A08F4
:1006C000E20083107A08E6007908E5007808E40083
:1006D0007708E3005630EA008E30E9003730E80052
:1006E0008430E700F8217A08BA007908B900780860
:1006F000B8007708B7000430BF00F22CE8012908E1
:10070000E7006621C330EA006430E9002A30E800DF
:100710007630E7007A08EE007908ED007808EC0002
:100720007708EB0083217708DF007808E00079087C
:10073000E1007A08E200E8012908E7006621620882
:10074000EA006108E9006008E8005F08E7007A084D
:10075000EE007908ED007808EC007708EB008321C3
:100760007708DF007808E0007908E1007A08E20005
:10077000E8012908E70066216208EA006108E9004B
:100780006008E8005F08E7007A08EE007908ED00ED
:100790007808EC007708EB0083217708DF00780801
:1007A000E0007908E1007A08E200E8012908E700A2
:1007B00066211230EA008330E9002030E8007E3004
:1007C000E7007A08EE007908ED007808EC00770879
:1007D000EB0083217708E3007808E4007908E5005E
:1007E0007A08E600E8012908E70066216608EA00C1
:1007F0006508E9006408E8006308E7007A08EE008D
:100800007908ED007808EC007708EB008321831469
:100810006208E6006108E5006008E4005F08E300A4
:100820007A08EA007908E9007808E8007708E70024
:10083000F8217708DF007808E0007908E1007A08FD
:10084000E200E8012908E70066219C30EA00443014
:10085000E9004E30E8008430E7007A08EE007908BD
:10086000ED007808EC007708EB0083218310620824
:10087000E6006108E5006008E4005F08E3007A082C
:10088000EA007908E9007808E8007708E700F8212D
:100890007708DF007808E0007908E1007A08E200D4
:1008A00083147A08E6007908E5007808E400770800
:1008B000E300C330EA00D530E9006930E800883051
:1008C000E700F8217A08BA007908B9007808B8007A
:1008D0007708B7000A30BF00F22CE8012908E700CA
:1008E00066214E30EA00D130E9009130E8007A30DC
:1008F000E7007A08EE007908ED007808EC00770848
:10090000EB0083217708DF007808E0007908E10038
:100910007A08E200E8012908E70066216208EA0097
:100920006108E9006008E8005F08E7007A08EE0067
:100930007908ED007808EC007708EB008321770850
:10094000DF007808E0007908E1007A08E200E801B9
:100950002908E70066210E30EA002D30E900E801A1
:100960008330E7007A08EE007908ED007808EC00A3
:100970007708EB00832183106208E6006108E50038
:100980006008E4005F08E3007A08EA007908E900FB
:100990007808E8007708E700F8217708DF00780892
:1009A000E0007908E1007A08E20083147A08E600A2
:1009B0007908E5007808E4007708E3007130EA0080
:1009C000ED30E9003630E8008830E700F8217A0899
:1009D000BA007908B9007808B8007708B700053080
:1009E000BF00F22C3A08E2003908E1003808E000C4
:1009F0003708DF008E30F7005F08F7026008F90063
:100A00006108F800F917F7080319112D0310F90808
:100A1000031D0D2DF8080319112DF90CF80CF70B17
:100A2000062DE01F182DF809F909F80A0319F90A2B
:100A30007908B6007808B5003608E8003508E70000
:100A4000662183143A08E6003908E5003808E40016
:100A50003708E3007A08EA007908E9007808E80036
:100A60007708E700F8217708DF007808E0007908C8
:100A7000E1007A08E200E601E501E4017E30E300EE
:100A80006208EA006108E9006008E8005F08E70022
:100A90006408EB006808EB06EB1F532D03110310ED
:100AA000E41B0314862D6408EB006708EC00630860
:100AB000EC020319612DEB1F862D0308013A830018
:100AC000862D6808EC006408EC0203196D2DEB1FFD
:100AD000862D0308013A8300862D6908EC0065081D
:100AE000EC020319792DEB1F862D0308013A8300D0
:100AF000862D6A08EC006608EC020319852DEB1FB1
:100B0000862D0308013A8300862D031003188A2DD1
:100B1000031D8E2D0130B5070318B60A2908AB0056
:100B20000800F801F901F701FA016208031D9B2D85
:100B300061080319B52D1030E3000310DF0DE00D3F
:100B4000F70DFA0D62087A02031DA82D61087702DD
:100B5000031CB12D6108F702031CFA036208FA02B4
:100B60000314F80DF90DE30B9D2D08001F151F1937
:100B7000B72D83161E088312AD001E08AE00AE0806
:100B8000031DC82D2D08273C031CC82DAE01AD0147
:100B90002E08023C0318D72DFF3A031DD32D2D0834
:100BA000E83C0318D72D0330AE00FF30AD00F33022
:100BB00081000130BD070318BE0ABE08031DE42DE5
:100BC0003D08643C03180D2EBE01BD012C08B23C4B
:100BD00003180D2E2A080319FA2D963A0319FE2D33
:100BE000883A0319022E663A0319062E443A03196D
:100BF0000A2E0D2E9630A900AA000D2E1E30A90037
:100C0000AA000D2E7830A900AA000D2E3C30A900B4
:100C1000AA000D2EA901AA010D2E0A30E700E72037
:100C20002030E700E7202030E700E7202908DE0039
:100C30000330DF0031212030E700E7202030E700DB
:100C4000E7202030E700E720093084003E08DF007D
:100C50003D08DE00E6010408E5006610831B66140B
:100C60005F0EF038E100E107E23EE200323EE400D0
:100C70005F080F39E207E207E407E93EE300E30714
:100C8000E3075E0E0F39E307E407E30DE40DE40923
:100C9000E40D5E080F39E407E10D0730E0000A308B
:100CA000E407E303031C502EE307E203031C542E66
:100CB000E207E103031C582EE107E003031C5C2E4E
:100CC0006030840083130730650565138407643042
:100CD0000402031965170008F700031D772E651B32
:100CE000772E651A892EE519772E20307A2EE51594
:100CF00065123030F707DF010408DE005F10831B48
:100D00005F147708E700E7205E08840083135F180C
:100D10008317840A651F672E2B0829020319AD2E3D
:100D200029083C3C031C972E0130DE00392329089A
:100D30003C3C0318A22E2908633C031CA22E02305F
:100D4000DE0039232908633C0318AD2E2908B43C82
:100D5000031CAD2E0330DE00392335082D02031DA0
:100D6000B52E36082E020319752F36082E02031CE5
:100D7000CA2E031DBF2E2D0835020318CA2E5E147D
:100D800035082D02AF002E08B0003608031C360FC0
:100D9000B002D42E5E102D083502AF003608B00028
:100DA0002E08031C2E0FB00228085E060139031915
:100DB000DD2EB2010130B100F72E0330E000FF302C
:100DC000DF00E2013F08E10091257908FA003008D0
:100DD0007902031CF72E031DF12E78082F02031849
:100DE000F72E2F08B10730080318300FB20732086A
:100DF000743C0318062FFF3A031D022F31082F3CC5
:100E00000318062F7530B2003030B1003208E00010
:100E10003108DF00E201C830E10091257908FA00CD
:100E200078082F07F80030080318300FFA07780801
:100E3000DF007A08E000E2013F08E1006008E4001A
:100E40005F08E3001030E500F701FA01E20CE10C65
:100E5000031C302F6308F7070318FA0A6408FA071F
:100E6000FA0CF70CF90CF80CE50B262F7908B400F6
:100E70007808B3003408033C0318422F0330B40051
:100E8000FF30B3005E1C592F87103408F900330877
:100E9000F800F90CF80CF90CF80CF90C780895002E
:100EA000F90C790C3039F7001708CF39770497001F
:100EB000722F87143308FF3CDF000330E000340852
:100EC000031C340FE002E00CDF0CE00CDF0CE00C44
:100ED0005F089500E00C600C3039F7001708CF3937
:100EE0007704970028105E1828140B118A110A1233
:100EF00021280C1020102028F2376739E1366110C4
:100F00000A28E13AEC37A0322010CD30F2346137B4
:100F100061000C10A020EE3375366F10D032E4342F
:100F2000E43700010A102010201020102518B33AD1
:100F300000008316091089100911003088008312FF
:100F4000091009118910A7018B1BA7178B130F30EC
:100F5000E800D220A71B8B170130D0005008033CBB
:100F6000031CCA2F0330EF006F0EF039F7000F306B
:100F700008057704880000008914BE2F8910A70196
:100F80008B1BA7178B130530E800D220A71B8B17EC
:100F9000D00AAE2F0230EF006F0EF039F7000F309D
:100FA00008057704880000008914D62F8910D00125
:100FB0005008033C031CEB2F50083820D100A70138
:100FC0008B1BA7178B13EC015108ED00A720A71B63
:0C0FD0008B17D00AD82F8A150A12572B55
:10100000831603178C170C140000000083120C08C1
:101010007F39031954280313D00003170D08031355
:10102000D10003170F080313D200A7018B1BA717CA
:101030008B135008E7008A11E7208A15A71B8B172E
:10104000510803178D000313520803178F008316EE
:101050008C170C140000000083120C0D0E0D7F394C
:10106000031954280313D00003170D080313D100EC
:1010700003170F080313D200A7018B1BA7178B13AD
:101080005008E7008A11E7208A15A71B8B17510823
:1010900003178D000313520803178F008D0A0319DD
:1010A0008F0A03130028031703130800831603177E
:1010B0008C170C140000000003188D2883120C08F4
:1010C0007F390313D10003170D080313D200031750
:1010D0000F080313D300A7018B1BA7178B1351080D
:1010E000E7008A11E7208A15A71B8B175208031700
:1010F0008D000313530803178F0083168C170C14ED
:101100000000000083120313D00B87288A2883165F
:1011100003178D28B4288316031783120C0D0E0DA8
:101120007F390313D10003170D080313D2000317EF
:101130000F080313D300A7018B1BA7178B135108AC
:10114000E7008A11E7208A15A71B8B17520803179F
:101150008D000313530803178F008D0A03198F0A9C
:1011600003100313D00B5628080044080A3C031D43
:10117000F52AC508031DF52A4E080B3C031DF52A68
:10118000CF08031DF52AE2016430E1004708E400BE
:101190004608E3001030E500F701FA01E20CE10C2B
:1011A000031CD8286308F7070318FA0A6408FA072B
:1011B000FA0CF70CF90CF80CE50BCE287908D100E5
:1011C0007808D000E2010A30E1004908E40048084C
:1011D000E3001030E500F701FA01E20CE10C031C1A
:1011E000F7286308F7070318FA0A6408FA07FA0CE5
:1011F000F70CF90CF80CE50BED287808D007790806
:101200000318790FD1074A085007C3004308B43CBC
:10121000031CF52A48084607D0004708D1004908B2
:101220000318490FD1074A085007C0004008093C7D
:1012300003183929A7018B1BA7178B134008E0005F
:101240000A30E1008A111C218A15A71B8B17780828
:10125000D000A7018B1BA7178B134008E0000A30B2
:10126000E1008A111C218A15A71B8B1777085007EC
:10127000C0004C084002031D712ACD08031D712ACD
:101280004308AC002C08B23C031C572A8710950178
:10129000A7018B1BA7178B132E08E8002D08E7006A
:1012A0008A1166218A15A71B8B177A08D300790843
:1012B000D2007808D1007708D0008F30D700C23034
:1012C000D6003530D5008130D400500803192A2AC1
:1012D000DC00540803192A2ADC02031C74297F301D
:1012E000DC0703182A2A7A298130DC02031C2A2A07
:1012F00003192A2A5C08F700F801F901FA01DB0159
:101300005108DA00DA175208D9005308D80019300A
:10131000DC005708D80203189D290130D9020318B0
:101320009D29DA0203189D29DB0203189D29DB0A97
:10133000DA0AD90A5708D807CF295608D90203185C
:10134000B8290130DA020318B829DB020318B829DA
:10135000DB0ADA0A5608D9075708D807031CCF2931
:10136000D90A031DCF29DA0A031DCF29DB0ACF29A9
:1013700055088038DA020318CE290130DB02031841
:10138000CE29DB0A55088038DA075608D907031C2E
:10139000AC29DA0A031DAC29DB0AAC297A14DC0B70
:1013A000D229DD290310D80DD90DDA0DDB0D03107C
:1013B000FA0DF90DF80DDD0D89295D1CE5290310E5
:1013C000F80CF90CFA0CDD0CE829F70303192A2AAA
:1013D000DD1B112A0310D80DD90DDA0DDB0D5708CE
:1013E000D8020318FD290130D9020318FD29DA02B9
:1013F0000318FD29DB02031C202A5608D902031812
:10140000082A0130DA020318082ADB02031C202A0A
:1014100055088038DA020318112A0130DB02031C58
:10142000202AFA0A031D202AF90A031D202AF80A95
:10143000031D202AF70A03192A2AF80CF90CFA0CC2
:101440005108DC005508DC06DC1F282AF8172E2A74
:10145000F8132E2AF701F801F901FA017A08E200DF
:101460007908E1007808E0007708DF008E30F700A7
:101470005F08F7026008F9006108F800F917F7083B
:1014800003194D2A0310F908031D492AF808031906
:101490004D2AF90CF80CF70B422AE01F542AF809E0
:1014A000F909F80A0319F90A7808A900592A2A083B
:1014B000A9009A3003178D0000308F000310083008
:1014C0000313D0005620A7018B1BA7178B132908E5
:1014D000DE000330DF008A1131218A15A71B8B172C
:1014E000782AA13003178D0000308F0003130020ED
:1014F0004008D0001F30D1002030511E3030D200C3
:101500005008F700D01F8B2AF709F70A7708D00098
:101510002D30D200D1177808A7018B1BA7178B138A
:101520005008E0006430E1008A111C218A15A71BD5
:101530008B177708D00030307807D300A7018B1BBA
:10154000A7178B135008E0000A30E1008A111C2114
:101550008A15A71B8B1730307707D50030307807F6
:10156000D4005208F700D11DB72AD11F5111511ACA
:10157000C42AD11FDF2A5119DF2A7708D300D118D6
:10158000DF2A7708D400DF2A30305302031DDF2A18
:101590007708D3002030D200D11DD22A5111D114A6
:1015A000D11FD11030305402031DDF2A7708D40038
:1015B0002030D300D11DD22AD110D11F5110511D7E
:1015C000E52A52080C1EE22A9900D11CEB2A530886
:1015D0000C1EE82A9900511CF12A54080C1EEE2A10
:1015E000990055080C1EF22A9900C101C2018A1502
:1015F0000A129E2B840183131F3083051930831632
:101600009900A63098009030831298002814A90100
:10161000AA01B601B501BB01BE01BD0183161F14AD
:101620009F141F159F1107309C0002308500F83071
:10163000860080308700831286018316811383120F
:1016400005168801A9010A30AB0083161F109F10F0
:101650001F159F111F1383121F179F1383169F17A8
:1016600083121F140830F8001F08C73978049F0040
:101670002130F700F70B3A2B07110C3097000030A0
:10168000F80004389200FF30831692000108C03938
:10169000063881002130F700F70B4C2BC030831245
:1016A0008B0483168C1683128B168A11992F8A1538
:1016B000A7018B1BA7178B130A30E8008A11D220D1
:1016C0008A15A71B8B17793003178D0007308F0001
:1016D00003130020BB01BC010430D000A7018B1B09
:1016E000A7178B13FA30E8008A11D2208A15A71B9E
:1016F0008B17D00B6E2B893003178D0007308F00AE
:1017000003130020923003178D0007308F00031061
:1017100008300313D0005620A7018B1BA7178B138B
:101720002908DE000330DF008A1131218A15A71B4A
:101730008B17C101C201410B9E2BB5289B2B630067
:02400E00713F00
:00000001FF
;PIC16F877A
;CRC=C687  CREATED="01-nov-12 14:50"
