:1000000009308A00FA290000FF00030E8301A100D5
:100010000A08A0008A010408A2007708A300780853
:10002000A4007908A5007A08A600831383128C30F7
:100030008400801E1D288C1A32288B1E21280B1943
:100040003528220884002308F7002408F800250832
:10005000F9002608FA0020088A00210E8300FF0E0E
:100060007F0E09008A110A1240288A110A120E2DE9
:100070000A108A100A11820728340C34013406341D
:100080003F0B43288B280310400D423EF800FA0135
:100090000318FA0A7808DC007A08DD008C1E4E2866
:1000A0001A08DE005E08DF005F082F3C0318642892
:1000B0005F08393C031C642830305F02FA01F80005
:1000C0007A08F9007A2876285F08433C031D6D28DA
:1000D0000A30F8000030F9007A285F08463C031D1A
:1000E00076280B30F8000030F9007A280C30F80040
:1000F0000030F9005C08840083135D188317840ABC
:10010000790880008403780880004008043C0318C4
:100110008B280130BF000130C007400B96284208F1
:100120000A3C031D9528C308031DC0018C128A11C7
:100130000A1221280A102010201020102518B33A86
:1001400000000A1020102010A02272396F008E309B
:10015000F7006608F8006508F900FA01F808031DC1
:10016000BB287908F800F9010830F702F808031DE8
:10017000BB28F701C3280310F81BC228F90DF80D9E
:10018000F703BB28F8130800650803193429ED00AC
:10019000690803193429ED070318D5287F30ED02CB
:1001A000031C342903193429D9288130ED07031899
:1001B00034296D08F700F801F901FA016608F10029
:1001C000F1176708F0006808EF001830ED00EE0145
:1001D0006F1C02296C08FA07031CF428F90A031D96
:1001E000F428F80A0319EE176B08F907031CFB281B
:1001F000F80A0319EE176A08E700E7176708F80717
:100200000318EE17EE0DF80CF90CFA0CF10CF00CCB
:10021000EF0C0310ED0BE7280130F7070318342922
:10022000F81B1929F10DFA0DF90DF80DF703031953
:100230003429F11F2A29FA0A031D2A29F90A031D64
:100240002A29F80A031D2A29F80CF90CFA0CF70AD6
:10025000031934296608EE006A08EE06EE1F3229FB
:10026000F8173829F8133829F701F801F901FA01CC
:10027000080080308318E606EB01EC016208EA0012
:100280006608EA0661080319292AE900F7006508EB
:100290000319322AE9020319CE29031C8C296608A6
:1002A000EF00EF176708EE006808ED00EC0103109F
:1002B000EF0CEE0CED0CEC0CE90B5629EA1F632950
:1002C0006B14462A6B1069106B166430840083131C
:1002D0005B2A6B12EA1B7629691C8129EF0CEE0C54
:1002E000ED0CEC0CF70A0319412A8129EF1B842934
:1002F0000310EC0DED0DEE0DEF0DF7030319412A80
:1003000076296B17EE296B136208EA00EA1F8A2927
:10031000EF173A2AEF133A2A6508E900F700610857
:10032000E9026208EF00EF176308EE006408ED00D1
:10033000EC010310EF0CEE0CED0CEC0CE90B982922
:10034000EA1FA529EB14462AEB106910EB1668305A
:10035000840083135B2AEB12EA1BB829691CC329AA
:10036000EF0CEE0CED0CEC0CF70A0319412AC32933
:10037000EF1BC6290310EC0DED0DEE0DEF0DF7038D
:100380000319412AB829EB17EE29EB136608EA0096
:10039000EA1FCC29EF173A2AEF133A2A6608EF0032
:1003A000EF176708EE006808ED00EA1FDB29EF137E
:1003B0006B15462A6B11EC016910643084008313BD
:1003C0005B2AEA1B042A6208EA00691CEE29EF0C8A
:1003D000EE0CED0CEC0CF70A0319412AEC1FFF2977
:1003E000ED0A031DFF29EE0A031DFF29EF0A031D75
:1003F000FF29EF0CEE0CED0CF70A0319412A6B1BD9
:100400008329EB1BC529232A8030EF06EF1F0C2A16
:10041000462A6608EA00192A6208EA00EF08031D66
:10042000192AEE08031D192AED08031D192AF701E0
:100430003A2AEF1B232A0310EC0DED0DEE0DEF0D04
:10044000F70B192A412AEA1F272AEF173A2AEF1336
:100450003A2A6508F7006608EF006708EE006808AA
:10046000ED003A2A6108F7006208EF006308EE0029
:100470006408ED006F08F8006E08F9006D08FA00D6
:10048000792AF701F801F901FA01792AEC01ED095D
:10049000EE09EF09EC09EC0A031D542AED0A031DCD
:1004A000542AEE0A0319EF0A6B186229EB18A429E3
:1004B0006B19DA29092A0008ED07031C652AEE0AE0
:1004C000031D652AEF0A0319691484030008EE0767
:1004D000031C6D2AEF0A0319691484030008801FA6
:1004E000803AEF07031869146B1A6929EB1AAB29D4
:1004F000E12908008E30F7005D08F7025E08F90078
:100500005F08F800F917F7080319912A0310F90892
:10051000031D8D2AF8080319912AF90CF80CF70B22
:10052000862ADE1F982AF809F909F80A0319F90A38
:1005300008005C08013A0319A42A033A0319DE2AC9
:10054000013A0319CD2B522CE6012908E500A7201A
:100550002F30E800DD30E7005A30E6008130E5005A
:100560007A08EC007908EB007808EA007708E900DF
:10057000C4207708DD007808DE007908DF007A08FB
:10058000E00083107A08E4007908E3007808E200CC
:100590007708E1005630E8008E30E7003730E6009B
:1005A0008430E50039217A08B9007908B800780864
:1005B000B7007708B6000430BD00522CE6012908C8
:1005C000E500A720C330E8006430E7002A30E600E9
:1005D0007630E5007A08EC007908EB007808EA004C
:1005E0007708E900C4207708DD007808DE00790884
:1005F000DF007A08E000E6012908E500A72060088E
:10060000E8005F08E7005E08E6005D08E5007A089C
:10061000EC007908EB007808EA007708E900C420CC
:100620007708DD007808DE007908DF007A08E0004E
:10063000E6012908E500A7206008E8005F08E70058
:100640005E08E6005D08E5007A08EC007908EB003A
:100650007808EA007708E900C4207708DD00780808
:10066000DE007908DF007A08E000E6012908E500ED
:10067000A7201230E8008330E7002030E6007E300B
:10068000E5007A08EC007908EB007808EA007708C2
:10069000E900C4207708E1007808E2007908E30067
:1006A0007A08E400E6012908E500A7206408E800CC
:1006B0006308E7006208E6006108E5007A08EC00DC
:1006C0007908EB007808EA007708E900C420831471
:1006D0006008E4005F08E3005E08E2005D08E100F6
:1006E0007A08E8007908E7007808E6007708E5006E
:1006F00039217708DD007808DE007908DF007A0804
:10070000E000E6012908E500A7209C30E80044301D
:10071000E7004E30E6008430E5007A08EC00790806
:10072000EB007808EA007708E900C420831060082D
:10073000E4005F08E3005E08E2005D08E1007A087B
:10074000E8007908E7007808E6007708E500392135
:100750007708DD007808DE007908DF007A08E0001D
:1007600083147A08E4007908E3007808E200770847
:10077000E100C330E800D530E7006930E60088309A
:10078000E50039217A08B9007908B8007808B7007F
:100790007708B6000A30BD00522CE6012908E500B2
:1007A000A7204E30E800D130E7009130E6007A30E3
:1007B000E5007A08EC007908EB007808EA00770891
:1007C000E900C4207708DD007808DE007908DF0042
:1007D0007A08E000E6012908E500A7206008E800A3
:1007E0005F08E7005E08E6005D08E5007A08EC00B7
:1007F0007908EB007808EA007708E900C420770858
:10080000DD007808DE007908DF007A08E000E60104
:100810002908E500A7200E30E8002D30E700E601AA
:100820008330E5007A08EC007908EB007808EA00EC
:100830007708E900C42083106008E4005F08E30043
:100840005E08E2005D08E1007A08E8007908E70048
:100850007808E6007708E50039217708DD00780898
:10086000DE007908DF007A08E00083147A08E400EB
:100870007908E3007808E2007708E1007130E800C9
:10088000ED30E7003630E6008830E50039217A089F
:10089000B9007908B8007808B7007708B6000530C5
:1008A000BD00522C3908E0003808DF003708DE00B0
:1008B0003608DD007A227908B5007808B4003508DA
:1008C000E6003408E500A72083143908E40038085E
:1008D000E3003708E2003608E1007A08E80079080A
:1008E000E7007808E6007708E50039217708DD00A1
:1008F0007808DE007908DF007A08E000E401E3010F
:10090000E2017E30E1006008E8005F08E7005E0871
:10091000E6005D08E5006208E9006608E906E91FEF
:10092000962C03110310E21B0314C92C6208E90082
:100930006508EA006108EA020319A42CE91FC92C22
:100940000308013A8300C92C6608EA006208EA023B
:100950000319B02CE91FC92C0308013A8300C92CE4
:100960006708EA006308EA020319BC2CE91FC92CD6
:100970000308013A8300C92C6808EA006408EA0207
:100980000319C82CE91FC92C0308013A8300C92C9C
:1009900003100318CD2C031DD12C0130B40703180C
:1009A000B50A2908AA000800F801F901F701FA01BF
:1009B0006008031DDE2C5F080319F82C1030E100DD
:1009C0000310DD0DDE0DF70DFA0D60087A02031D30
:1009D000EB2C5F087702031CF42C5F08F702031C62
:1009E000FA036008FA020314F80DF90DE10BE02C8C
:1009F00008001030E300F701FA01E00CDF0C031CE3
:100A0000072D6108F7070318FA0A6208FA07FA0CBB
:100A1000F70CF90CF80CE30BFD2C08001F151F193F
:100A20000F2D83161E088312AC001E08AD00AD0802
:100A3000031D202D2C08273C031C202DAD01AC01EB
:100A40002D08023C03182F2DFF3A031D2B2D2C08D7
:100A5000E83C03182F2D0330AD00FF30AC00F3301D
:100A600081000130BC073C0F582DBC012B08B43C61
:100A70000319582D290803194A2D963A03194D2DAB
:100A8000883A0319502D663A0319532D443A031935
:100A9000562D582D9630A900582D1E30A900582DDE
:100AA0007830A900582D3C30A900582DA901582DA7
:100AB0002A0829020319792D29083C3C031C632DBF
:100AC0000130DC00992229083C3C03186E2D2908CE
:100AD000633C031C6E2D0230DC0099222908633C24
:100AE0000318792D2908B43C031C792D0330DC0050
:100AF000992234082C02031D812D35082D0203197B
:100B00002E2E35082D02031C962D031D8B2D2C082F
:100B100034020318962D5C1434082C02AE002D0804
:100B2000AF003508031C350FAF02A02D5C102C0858
:100B30003402AE003508AF002D08031C2D0FAF02A4
:100B400028085C0601390319A92DB1010130B00054
:100B5000C32D0330DE00FF30DD00E0013D08DF0083
:100B6000D4247908FA002F087902031CC32D031D31
:100B7000BD2D78082E020318C32D2E08B0072F08AC
:100B800003182F0FB1073108743C0318D22DFF3A18
:100B9000031DCE2D30082F3C0318D22D7530B10027
:100BA0003030B0003108DE003008DD00E001C83030
:100BB000DF00D4247908FA0078082E07F8002F08FF
:100BC00003182F0FFA077808DD007A08DE00E0012D
:100BD0003D08DF007A08E2007808E100F92479088E
:100BE000B3007808B2003308033C0318FB2D033030
:100BF000B300FF30B2005C1C122E87103308F900DE
:100C00003208F800F90CF80CF90CF80CF90C78081B
:100C10009500F90C790C3039F7001708CF397704B3
:100C200097002B2E87143208FF3CDD000330DE00D6
:100C30003308031C330FDE02DE0CDD0CDE0CDD0C92
:100C4000DE0C5D089500DE0C5E0C3039F7001708ED
:100C5000CF397704970028105C1828140B118A11DB
:100C60000A1221280C1020102028F2376739E136AB
:100C700061100A28E13AEC37A0322010CD30F2346E
:100C8000613761000C10A020EE3375366F10D03242
:100C9000E434E43700010A10201020102010251839
:100CA000B33A000053308400831300080319662E02
:100CB0000130F800F701F70B5B2EF80B5A2E4A3083
:100CC000F700F70B612E642E800B582E08005A0E89
:100CD000F039F7000F300805770488000000891408
:100CE000712E891008000910571C09105718091493
:100CF0000000091100008910580ED9000F30D905E5
:100D00005908DA00672658080F39D900DA00672633
:100D10000800831609108910091100308800831219
:100D20000910091189100F30D30052260130CE006E
:100D30004E08033C031CA42E0330DA00672605305E
:100D4000D3005226CE0A982E0230DA006726CE0152
:100D50004E08033C031CB52E4E083820CF00D701A7
:100D60004F08D8007326CE0AA82E8A150A12552AD3
:100D700052080C3A0319C32E063A0319CB2E023A35
:100D80000319E12EE62ED7010130D8007326023078
:100D9000D3005226EC2E0130D3000230D400540B85
:100DA000D22ED52E4030D500D62ED501013053029B
:100DB000D50755088038D600D7015608D8007326C5
:100DC000EC2ED7011030D8007326EC2E0130D7005E
:100DD0005208D8007326EC2E0800831603178C17D0
:100DE0000C140000000083120C087F390319312F06
:100DF0000313CE0003170D080313CF0003170F08CA
:100E00000313D0004E08D200B8264F0803178D00F8
:100E10000313500803178F0083168C170C1400005F
:100E2000000083120C0D0E0D7F390319312F0313AF
:100E3000CE0003170D080313CF0003170F08031389
:100E4000D0004E08D200B8264F0803178D000313B8
:100E5000500803178F008D0A03198F0A0313ED2E14
:100E6000031703130800831603178C170C140000D4
:100E700000000318622F83120C087F390313CF0080
:100E800003170D080313D00003170F080313D10035
:100E90004F08D200B826500803178D0003135108DD
:100EA00003178F0083168C170C14000000008312A8
:100EB0000313CE0B5C2F5F2F83160317622F812F36
:100EC0008316031783120C0D0E0D7F390313CF0009
:100ED00003170D080313D00003170F080313D100E5
:100EE0004F08D200B826500803178D00031351088D
:100EF00003178F008D0A03198F0A03100313CE0BFB
:100F0000332F08005508F801540203188A2F54089B
:100F1000F700962FF7010830D600D40DF70D5508CD
:100F200077020318F700F80DD60B8D2F080078080C
:100F30004E08D4006430D50082277708CE007808A8
:100F40003030031DAA2FCF1CB12FCF19B12F4F1A4C
:100F50002030AD2FCF114F124F14F8077808D20070
:100F6000B8264E08D4000A30D50082277708CE0074
:100F700078083030031DC22FCF19C62F4F1CC62F43
:100F80004F1A2030F8077808D200B8263030CE0744
:080F90004E08D200B82608004B
:1010000042080A3C031DF529C308031DF5294C08B5
:101010000B3C031DF529CD08031DF529A7018B1BEA
:10102000A7178B13E0016430DF004508E200440895
:10103000E1008A11F9248A15A71B8B177908CF00C4
:101040007808CE00A7018B1BA7178B13E0010A308D
:10105000DF004708E2004608E1008A11F9248A15FA
:10106000A71B8B177808CE0779080318790FCF07CD
:1010700048084E07C1004108B43C031CF529460846
:101080004407CE004508CF0047080318470FCF0795
:1010900048084E07BE003E08093C031862283E0877
:1010A000D4000A30D5008A1182278A157808CE002C
:1010B0003E08D4000A30D5008A1182278A157708A5
:1010C0004E07BE004A083E02031D7C29CB08031DC3
:1010D0007C294108AB002B08B43C03196829A701FF
:1010E0008B1BA7178B132D08E6002C08E5008A112F
:1010F000A7208A15A71B8B177A08D1007908D00082
:101100007808CF007708CE008F30D500C230D400E9
:101110003530D3008130D2004E0803195129DA004E
:10112000520803195129DA02031C9B287F30DA0781
:1011300003185129A1288130DA02031C512903190F
:1011400051295A08F700F801F901FA01D9014F08AD
:10115000D800D8175008D7005108D6001930DA0047
:101160005508D6020318C4280130D7020318C42832
:10117000D8020318C428D9020318C428D90AD80AE7
:10118000D70A5508D607F6285408D7020318DF28CF
:101190000130D8020318DF28D9020318DF28D90A42
:1011A000D80A5408D7075508D607031CF628D70ACB
:1011B000031DF628D80A031DF628D90AF628530875
:1011C0008038D8020318F5280130D9020318F52811
:1011D000D90A53088038D8075408D707031CD328E6
:1011E000D80A031DD328D90AD3287A14DA0BF92890
:1011F00004290310D60DD70DD80DD90D0310FA0D03
:10120000F90DF80DDB0DB0285B1C0C290310F80C50
:10121000F90CFA0CDB0C0F29F70303195129DB1B1E
:1012200038290310D60DD70DD80DD90D5508D60283
:10123000031824290130D70203182429D8020318DF
:101240002429D902031C47295408D70203182F293F
:101250000130D80203182F29D902031C472953084B
:101260008038D802031838290130D902031C4729D5
:10127000FA0A031D4729F90A031D4729F80A031D25
:101280004729F70A03195129F80CF90CFA0C4F08F1
:10129000DA005308DA06DA1F4F29F8175529F81330
:1012A0005529F701F801F901FA01A7018B1BA717CE
:1012B0008B137A08E0007908DF007808DE007708F1
:1012C000DD008A117A228A15A71B8B177808A900DE
:1012D0009A3003178D0000308F000310083003137D
:1012E000CE008A1133278A152908CE000330CF009B
:1012F0008A1197278A158529A13003178D000030A0
:101300008F008A110313ED268A153E08CE001F3088
:10131000CF0020304F1E3030D0004E08F700CE1FD7
:101320009829F709F70A7708CE002D30D000CF179B
:101330004E08D4006430D5008A1182278A157708B8
:10134000CE0030307807D1004E08D4000A30D500E6
:101350008A1182278A1530307707D300303078071A
:10136000D2005008F700CF1DB729CF1F4F114F1AD9
:10137000C429CF1FDF294F19DF297708D100CF18E3
:10138000DF297708D200DF2930305102031DDF2921
:101390007708D1002030D000CF1DD2294F11CF14B3
:1013A000CF1FCF1030305202031DDF297708D20043
:1013B0002030D100CF1DD229CF10CF1F4F104F1D8D
:1013C000E52950080C1EE2299900CF1CEB29510891
:1013D0000C1EE82999004F1CF12952080C1EEE2919
:1013E000990053080C1EF2299900BF01C0018A150B
:1013F0000A12902A840183131F3083051930831643
:101400009900A63098009030831298002814A90102
:10141000B501B401BA01BC0183161F149F141F1536
:101420009F1107309C0002308500F8308600803024
:1014300087008312860183168113831205168801A3
:10144000A9010A30AA0083161F109F101F159F11B3
:101450001F1383121F179F1383169F1783121F14C6
:101460000830F8001F08C73978049F002130F700C2
:10147000F70B382A07110C3097000030F8000438B9
:101480009200FF30831692000108C03906388100AF
:101490002130F700F70B4A2AC03083128B048316E1
:1014A0008C1683128B168A11892E8A150A30D30066
:1014B0008A1152268A15323003178D0006308F00AC
:1014C0008A110313ED268A15BA01BB010430CE0040
:1014D000FA30D3008A1152268A15CE0B682A423080
:1014E00003178D0006308F008A110313ED268A152D
:1014F0004B3003178D0006308F00031008300313A4
:10150000CE008A1133278A152908CE000330CF0078
:101510008A1197278A15BF01C0013F0B902A002826
:041520008D2A6300AD
:02400E00713F00
:00000001FF
;PIC16F877A
;CRC=8B8F  CREATED="23-out-12 14:24"
