:1000000000308A001B28000025308400831300087C
:10001000031918280130F800F701F70B0D28F80B29
:100020000C284A30F700F70B13281628800B0A28F3
:100030008A110A123E28840183131F308305831618
:100040001F149F141F159F1107309C00013085005D
:100050002130F700F70B2A288312A101A2010330F7
:10006000A400E830A300051C5B28A10A0030831619
:100070008500831205140730A500042805100130FF
:10008000831685002130F700F70B442802308312D5
:10009000A3020030031C0130A4022408033C031C0B
:1000A0005B28031D57282308E73C031C5B281330FB
:0A00B000A4008830A3003328630089
:02400E00713F00
:00000001FF
;PIC16F877A
;CRC=B8B5  CREATED="01-nov-12 11:44"
