:1000000000308A00192800002330840000080319FA
:1000100018280130F800F701F70B0C28F80B0B2813
:100020004A30F700F70B122800000000800B092867
:10003000003484011F30830583161F149F141F157D
:100040009F11073083129F000030831685008800BF
:10005000F0308600831205168316811383128610F2
:10006000FF308800A1000130A200861A48284630DF
:10007000A3000420861A4328A208031D4228013049
:10008000A2004328A2016430A3000420861E432856
:10009000A20803195D280808013C03185728210C01
:1000A000A20CA10CA1136430A30004205B28A101C1
:1000B0006430A300042021088800A208031D6D28D5
:1000C000210F63286D28220DA10DA20D0130A1077B
:0E00D000210888006430A30004203528630056
:02400E00F13F80
:00000001FF
;PIC16F877A
