:1000000010308A0000280000FF00030E8301A100C9
:100010000A08A0008A010408A2007708A300780853
:10002000A4007908A5007A08A600831383128B1D0B
:100030001B280B1830288B1E1F280B193328220869
:1000400084002308F7002408F8002508F900260892
:10005000FA0020088A00210E8300FF0E7F0E09009F
:100060008A110A123E288A110A122F2E0A108A10AB
:100070000A11820728340C34013406343B08BC00D2
:100080000608BB003B08F03C031848283C08BB00AE
:100090000030F8000B108A110A121F280A102010D5
:1000A000A012781DDF2FBA2F5F0008052010201046
:1000B0002519781D2519781DDF2F0001080520104E
:1000C00020102519781D2519781D251978000A108A
:1000D0002010A02FDF17DF2FAF12780008052010A7
:1000E0002010DF2F2F18B1172519780008052010D0
:1000F0002010DF2FAF12F8172519780008052010FF
:100100002010B018AF12323CAF12323C000108058B
:1001100020102010253CAF12323CAF12323C0000C0
:100120000830F80000008711831687110000F40DD5
:1001300083120712031C9F288316071683120318C5
:10014000A428831607128312831687158312871D2E
:10015000A728F80B9228000087118316871100004A
:1001600007160000000087158312871DB528F801C7
:100170000000071A7814871183168711831207125B
:1001800083160712831208000830ED007708EE008E
:1001900083160716000087158312871DCD28071ABE
:1001A0000314071E0310F80D000083168711831235
:1001B0008711ED0BC828831607160000831207125B
:1001C0006E080319E62883160712831200008316AF
:1001D00087158312871DEA2800008711831687116F
:1001E0000000831207128316071283120800831679
:1001F00007160000871500008312871DFD280712CF
:100200008316071200008312871183168711A0300E
:10021000F400831290206808F400902083160716DB
:100220000000871500008312871D1429071283160A
:10023000071200008312871183168711A130F40082
:1002400083129020F701C4207808E9008316071272
:10025000000087158312871D2B2900002F2900001D
:1002600083160716000083126908F8000800F701DA
:10027000F801680803106918F707F70CF80CE9187B
:10028000F707F70CF80C6919F707F70CF80CE919E0
:10029000F707F70CF80C691AF707F70CF80CE91ACE
:1002A000F707F70CF80C691BF707F70CF80CE91BBC
:1002B000F707F70CF80C08008316071600008715DF
:1002C00000008312871D622907128316071200009F
:1002D0008312871183168711AE30F40083129020A9
:1002E0006A08EC00ED016A08F40090206908F40047
:1002F0009020831607160000871500008312871DC3
:100300007F290712831607120000831287118316B4
:100310008711AF30F40083129020F701C4207808D1
:10032000EB0083160712000087158312871D96299C
:1003300000009A29000083160716000083126B083C
:10034000F80008008E30F7007C08F8007B08F90000
:10035000FA01F808031DB6297908F800F9010830F8
:10036000F702F808031DB629F701BE290310F81B90
:10037000BD29F90DF80DF703B629F81308007B081D
:1003800003193E2A8316A4002008031DC9298312DD
:100390003E2AA4070318D7297F30A4020318D229C4
:1003A00083123E2A031DD62983123E2ADD2981307D
:1003B000A407031CDD2983123E2A2408F700F80154
:1003C000F901FA017C08A800A8177D08A7007E089B
:1003D000A6001830A400A501261C062A2308FA0747
:1003E000031CF829F90A031DF829F80A0319A517AF
:1003F0002208F907031CFF29F80A0319A517210889
:10040000FD00FD177D08F8070318A517A50DF80CCA
:10041000F90CFA0CA80CA70CA60C0310A40BEB29E2
:100420000130F707031C162A83123E2AF81B202AE4
:10043000A80DFA0DF90DF80DF70B202A83123E2AAC
:10044000A81F332AFA0A031D332AF90A031D332A87
:10045000F80A031D332AF80CF90CFA0CF70A031DED
:10046000332A83123E2A7C08A5002108A506A51F71
:100470003B2AF817432AF813432A8312F701F8019D
:10048000F901FA0183168312080080308318F206FE
:100490008316A201A30183126E088316A1007208BD
:1004A000A10683126D080319472B8316A000F700DD
:1004B00071080319512BA0020319E72A031C9F2A74
:1004C0007208A600A6177308A5007408A400A3016B
:1004D0000310A60CA50CA40CA30CA00B672AA11F4B
:1004E000742A2214692B22102010221670308400E6
:1004F00083137E2B2212A11B872A201C922AA60C72
:10050000A50CA40CA30CF70A0319642B922AA61BB2
:10051000952A0310A30DA40DA50DA60DF70303192D
:10052000642B872A2217092B221383126E08831645
:10053000A100A11F9D2AA6175D2BA6135D2B710894
:10054000A000F70083126D088316A00283126E08C4
:100550008316A600A61783126F088316A5007008DD
:10056000A400A3010310A60CA50CA40CA30CA00BC3
:10057000B12AA11FBE2AA214692BA2102010A21614
:100580007430840083137E2BA212A11BD12A201C5D
:10059000DC2AA60CA50CA40CA30CF70A0319642BE7
:1005A000DC2AA61BDF2A0310A30DA40DA50DA60DA2
:1005B000F7030319642BD12AA217092BA21372087F
:1005C000A100A11FE52AA6175D2BA6135D2B7208BB
:1005D000A600A6177308A5007408A400A11FF42A9A
:1005E000A6132215692B2211A3012010703084005C
:1005F00083137E2BA11B1F2B83126E088316A10071
:10060000201C092BA60CA50CA40CA30CF70A03199B
:10061000642BA31F1A2BA40A031D1A2BA50A031D62
:100620001A2BA60A031D1A2BA60CA50CA40CF70A5C
:100630000319642B221B942AA21BDE2A402B803034
:10064000A606A61F272B692B7208A100362B831242
:100650006E088316A100A608031D362BA508031DEE
:10066000362BA408031D362BF7015D2BA61B402B50
:100670000310A30DA40DA50DA60DF70B362B642BAF
:10068000A11F442BA6175D2BA6135D2B83127108A7
:10069000F70072088316A6007308A5007408A4006A
:1006A0005D2B83126D08F7006E088316A600831277
:1006B0006F088316A5007008A4002608F800250816
:1006C000F9002408FA009C2BF701F801F901FA015E
:1006D0009C2BA301A409A509A609A309A30A031D2C
:1006E000772BA40A031D772BA50A0319A60A221843
:1006F000732AA218BD2A2219F32A242B0008A40762
:10070000031C882BA50A031D882BA60A0319201495
:1007100084030008A507031C902BA60A03192014C4
:1007200084030008801F803AA60703182014221AA9
:100730007A2AA21AC42AFA2A831208006808013AFF
:100740000319A92B033A0319E52B013A0319E02CED
:100750006B2DFC012A08FB00A2212F30FE00DD30AA
:10076000FD005A30FC008130FB007A088316A3009C
:100770007908A2007808A1007708A0008312BF21A1
:100780007708E9007808EA007908EB007A08EC00BD
:1007900083107A08F0007908EF007808EE007708F7
:1007A000ED005630F4008E30F3003730F200843024
:1007B000F10045227A08B9007908B8007808B70036
:1007C0007708B6000430D8006B2DFC012A08FB0026
:1007D000A221C330FE006430FD002A30FC007630D8
:1007E000FB007A088316A3007908A2007808A1000C
:1007F0007708A0008312BF217708E9007808EA0093
:100800007908EB007A08EC00FC012A08FB00A22121
:100810006C08FE006B08FD006A08FC006908FB001C
:100820007A088316A3007908A2007808A100770847
:10083000A0008312BF217708E9007808EA00790850
:10084000EB007A08EC00FC012A08FB00A2216C08EE
:10085000FE006B08FD006A08FC006908FB007A08CE
:100860008316A3007908A2007808A1007708A000E9
:100870008312BF217708E9007808EA007908EB00C5
:100880007A08EC00FC012A08FB00A2211230FE00CD
:100890008330FD002030FC007E30FB007A08831698
:1008A000A3007908A2007808A1007708A0008312AD
:1008B000BF217708ED007808EE007908EF007A088C
:1008C000F000FC012A08FB00A2217008FE006F085E
:1008D000FD006E08FC006D08FB007A088316A3007B
:1008E0007908A2007808A1007708A0008312BF2130
:1008F00083146C08F0006B08EF006A08EE006908CA
:10090000ED007A08F4007908F3007808F20077081F
:10091000F10045227708E9007808EA007908EB0041
:100920007A08EC00FC012A08FB00A2219C30FE00A2
:100930004430FD004E30FC008430FB007A08831602
:10094000A3007908A2007808A1007708A00083120C
:10095000BF2183106C08F0006B08EF006A08EE00FE
:100960006908ED007A08F4007908F3007808F200CD
:100970007708F10045227708E9007808EA0079084D
:10098000EB007A08EC0083147A08F0007908EF0095
:100990007808EE007708ED00C330F400D530F3009E
:1009A0006930F2008830F10045227A08B9007908F0
:1009B000B8007808B7007708B6000A30D8006B2D69
:1009C000FC012A08FB00A2214E30FE00D130FD00C0
:1009D0009130FC007A30FB007A088316A300790876
:1009E000A2007808A1007708A0008312BF21770831
:1009F000E9007808EA007908EB007A08EC00FC01CD
:100A00002A08FB00A2216C08FE006B08FD006A08A2
:100A1000FC006908FB007A088316A3007908A2008D
:100A20007808A1007708A0008312BF217708E900A9
:100A30007808EA007908EB007A08EC00FC012A0843
:100A4000FB00A2210E30FE002D30FD00FC018330A2
:100A5000FB007A088316A3007908A2007808A10099
:100A60007708A0008312BF2183106C08F0006B0888
:100A7000EF006A08EE006908ED007A08F4007908D2
:100A8000F3007808F2007708F10045227708E900C2
:100A90007808EA007908EB007A08EC0083147A08F9
:100AA000F0007908EF007808EE007708ED0071306B
:100AB000F400ED30F3003630F2008830F1004522CA
:100AC0007A08B9007908B8007808B7007708B60046
:100AD0000530D8006B2D3908EC003808EB003708DA
:100AE000EA003608E9008E30F7006908F7026A0864
:100AF000F9006B08F800F917F70803198A2D03109D
:100B0000F908031D862DF80803198A2DF90CF80C35
:100B1000F70B7F2DEA1F912DF809F909F80A03193F
:100B2000F90A7908B5007808B4003508FC003408E3
:100B3000FB00A22183143908F0003808EF003708C1
:100B4000EE003608ED007A08F4007908F300780822
:100B5000F2007708F10045227708E9007808EA00FA
:100B60007908EB007A08EC00F001EF01EE017E302D
:100B7000ED006C08F4006B08F3006A08F2006908E5
:100B8000F1006E08F5007208F506F51FCC2D031173
:100B90000310EE1B0314FF2D6E08F5007108F6001C
:100BA0006D08F6020319DA2DF51FFF2D0308013A2F
:100BB0008300FF2D7208F6006E08F6020319E62D79
:100BC000F51FFF2D0308013A8300FF2D7308F6007F
:100BD0006F08F6020319F22DF51FFF2D0308013AE5
:100BE0008300FF2D7408F6007008F6020319FE2D2D
:100BF000F51FFF2D0308013A8300FF2D0310031892
:100C0000032E031D072E0130B4070318B50A2A0866
:100C1000AB000800F801F901F701FA016C08031DA7
:100C2000142E6B0803192E2E1030ED000310E90D61
:100C3000EA0DF70DFA0D6C087A02031D212E6B08E0
:100C40007702031C2A2E6B08F702031CFA036C08B8
:100C5000FA020314F80DF90DED0B162E08001F15FE
:100C60001F19302E83161E088312AC001E08AD001B
:100C7000AD08031D412E2C08273C031C412EAD015D
:100C8000AC012D08023C0318502EFF3A031D4C2ED8
:100C90002C08E83C0318502E0330AD00FF30AC00A8
:100CA000F33081000430CB07CB08031DBC2E02308B
:100CB000E800F7207808D700D708031D6C2E033012
:100CC000E800F7207808D600D608031D6C2E043003
:100CD000E800F7207808D4005308CC004D084C02F7
:100CE0000318BC2E0630E8004C08E90037217808CC
:100CF000053EE800EA016808E9005C21780857022F
:100D0000031DBA2E0630E8004C08E90037217808A8
:100D1000043EE800EA016808E9005C217808560210
:100D2000031DBA2E0630E8004C08E9003721780888
:100D3000033EE800EA016808E9005C2178085402F3
:100D4000031DBA2E0630E8004C08E9003721780868
:100D5000E800EA017808E9005C217808AA004E3032
:100D60004C0784008313800153084C02031DBA2EE4
:100D70000130D307CC0A6E2E2B082A020319DD2E70
:100D80002A083C3C031CC72E0130E8009E232A0899
:100D90003C3C0318D22E2A08633C031CD22E02309E
:100DA000E8009E232A08633C0318DD2E2A08B43C81
:100DB000031CDD2E0330E8009E2334082C02031DA3
:100DC000E52E35082D020319A52F35082D02031C29
:100DD000FA2E031DEF2E2C0834020318FA2E681485
:100DE00034082C02AE002D08AF003508031C350F67
:100DF000AF02042F68102C083402AE003508AF0093
:100E00002D08031C2D0FAF022908680601390319AC
:100E10000D2FB1010130B000272F0330EA00FF3061
:100E2000E900EC015808EB000A267908FA002F08BF
:100E30007902031C272F031D212F78082E02031887
:100E4000272F2E08B0072F0803182F0FB1073108DE
:100E5000743C0318362FFF3A031D322F30082F3C05
:100E60000318362F7530B1003030B0003108EA0079
:100E70003008E900EC01C830EB000A267908FA00D6
:100E800078082E07F8002F0803182F0FFA077808A4
:100E9000E9007A08EA00EC015808EB006A08EE0065
:100EA0006908ED001030EF00F701FA01EC0CEB0CD3
:100EB000031C602F6D08F7070318FA0A6E08FA077B
:100EC000FA0CF70CF90CF80CEF0B562F7908B3005D
:100ED0007808B2003308033C0318722F0330B300C4
:100EE000FF30B200681C892F87103308F9003208E0
:100EF000F800F90CF80CF90CF80CF90C78089500CE
:100F0000F90C790C3039F7001708CF3977049700BE
:100F1000A22F87143208FF3CE9000330EA003308AF
:100F2000031C330FEA02EA0CE90CEA0CE90CEA0CA8
:100F300069089500EA0C6A0C3039F7001708CF39B8
:100F4000770497002910681829140B118A110A12C6
:100F50001F280C1020102028F2376739E136611065
:100F60000A28E13AEC37A0322010CD30F234613754
:100F700061000C104138E1336139A036E5366F3934
:100F8000E9303F100A10D3346D1D231020102027A4
:100F9000E1373A1500010C102010C430F430A020C5
:100FA000F43A61363A000C102010C837F230A02015
:100FB000F43A61363A008C1120382F10CE37F637CC
:100FC000A020EE3375366F05201020102519781DEE
:100FD0002519781D25197810201020000A10A0125C
:100FE000F5132010A012323CBA12323CBA12323C35
:0E0FF00000010A10201020102010A53A000168
:101000000C246F396139E937A020EE3375366F1043
:1010100025323A000C10D630EC3772104137E73ADF
:10102000EC37A012641D00018C1120382F10CE3730
:10103000F637A020EE3375366F00603084008313DE
:101040000008031931280130F800F701F70B2628B2
:10105000F80B25284A30F700F70B2C282F28800B97
:1010600023280800670EF039F7000F3008057704D1
:101070008800000089143C28891008000910641CAD
:101080000910641809140000091100008910650E88
:10109000E6000F30E6056608E700322065080F39E4
:1010A000E600E700322008008316091089100911B4
:1010B0000030880083120910091189100F30E000F8
:1010C0001D200130D9005908033C031C6F28033050
:1010D000E70032200530E0001D20D90A63280230E5
:1010E000E7003220D9015908033C031C8228590823
:1010F0008A1136208A15DA00E4015A08E5003E20FC
:10110000D90A73288A110A166C285F080C3A031949
:101110009028063A03199828023A0319AE28B328F2
:10112000E4010130E5003E200230E0001D20B92836
:101130000130E0000230E100610B9F28A22840301E
:10114000E200A328E20101306002E2076208803871
:10115000E300E4016308E5003E20B928E401103013
:10116000E5003E20B9280130E4005F08E5003E209C
:10117000B9280800831603178C170C140000000010
:1011800083120C087F390319FE280313D9000317B3
:101190000D080313DA0003170F080313DB005908C7
:1011A000DF0085205A0803178D0003135B0803171F
:1011B0008F0083168C170C140000000083120C0D96
:1011C0000E0D7F390319FE280313D90003170D08EC
:1011D0000313DA0003170F080313DB005908DF00BD
:1011E00085205A0803178D0003135B0803178F002F
:1011F0008D0A03198F0A0313BA2803170313080073
:10120000BB0803195B29BE013E08963C031C142948
:10121000091D0C2909110D2909154230F700F70B9A
:101220000F290000BE0A0429AA30E0001D203B0857
:10123000EF3C031C5A290430BE003E08073C031C47
:1012400032293B08F7003E08F80003192B29031048
:10125000F70CF80B2729771830293E08BD003229F2
:10126000BE0A1D29BE013E08023C031C5A293B0848
:10127000F7003E08F800031941290310F70CF80B9A
:101280003D297718582904303D02DA00A7018B1B4D
:10129000A7178B135A08E8000330E9008A11372199
:1012A0008A15A71B8B173E087807013EBD005A29F7
:1012B000BE0A3329BB01861F7129061F7129861EAC
:1012C0007129061E7129061968290610061571294B
:1012D00086186D2906118614712906187129861041
:1012E00006140800831603178C170C140000000066
:1012F0000318A12983120C087F390313DB0003179D
:101300000D080313DC0003170F080313DD005B084F
:10131000DF0085205C0803178D0003135D080317A9
:101320008F0083168C170C14000000008312031327
:10133000DA0B9B299E2983160317A129C02983163E
:10134000031783120C0D0E0D7F390313DB000317F7
:101350000D080313DC0003170F080313DD005B08FF
:10136000DF0085205C0803178D0003135D08031759
:101370008F008D0A03198F0A03100313DA0B7229E9
:101380000800DB1BD3290F30F7005A0EF7050A308F
:1013900077020318CE293030F707D0295B08F7070A
:1013A0007708DF0085200F30DA050A305A0203186B
:1013B000DB293030DD29DB135B08DA075A08DF0050
:1013C0008520080083160716000087150000831289
:1013D00007128316071200008312871183168711E4
:1013E0008312A7018B1BA7178B13A030F4008A115F
:1013F00090208A15A71B8B17A7018B1BA7178B1390
:101400006008F4008A1190208A15A71B8B17A7018A
:101410008B1BA7178B136108F4008A1190208A1583
:10142000A71B8B1783160712000087158312871DD1
:10143000172A00001B2A0000831607160000071653
:1014400000008715000083120712831607120000A0
:1014500083128711831687118312A7018B1BA7178D
:101460008B13A030F4008A1190208A15A71B8B17CC
:101470007808621078186214621C5F2A83160716B7
:101480000000871500008312871D442A0712831667
:101490000712000083128711831687118312A70198
:1014A0008B1BA7178B13A030F4008A1190208A158C
:1014B000A71B8B1778086210781862143C2A080062
:1014C0004808003A03196B2A013A0319AB2A033A78
:1014D0000319212B0F2C673003178D0000308F006C
:1014E00003100B300313DA0072214708DA0057307B
:1014F000DB00C121BD080319AA2AD901DA01470876
:10150000DA003D080A3A03198C2A013A03198F2A96
:10151000073A0319902A992AC701BD01AA2A9B2AD2
:101520005A08C700C9014718C9170130C800BD01D2
:10153000AA2A3D08D9005A08093C0318A22A5908CA
:10154000C700A92A5A0EF700F030F70577085907A7
:10155000C700BD010F2CBD080319F62AD901DA0115
:101560004608DA003D080A3A0319BD2A013A031970
:10157000C62A073A0319C72ADA2AC6080319C22A53
:10158000C601C42A0130C802BD01F62ADC2A5A0865
:10159000C600DA08031DD12AD908031DD12A01305B
:1015A000C6000230C8000630E0004608E100E22133
:1015B000BD01F62A3D08D9005A08013C0318E22A69
:1015C0005908C6005A0EF700F030F705770859079A
:1015D000123C0318EE2A5908C600F52A5A0EF700E5
:1015E000F030F70577085907C600BD01C608031D8E
:1015F000092B6E3003178D0000308F0003100C3064
:101600000313DA0072214708DA005730DB00C121EA
:10161000202B763003178D0000308F000310093027
:101620000313DA0072214608DA005730DB00C121CB
:101630002F30DF0085204708DA005730DB00C1215A
:101640000F2CBD080319D42BD901DA014508DA00A3
:101650003D080A3A0319332B013A03193C2B073A88
:1016600003193D2B532BC5080319382BC5013A2B01
:101670000130C802BD01D42B552B5A08C500DA0829
:10168000031D472BD908031D472B0130C50003302C
:10169000C80049084507DB000530E0005B08E100B1
:1016A000E221BD01D42B3D08D9005A08033C0318A0
:1016B0005C2B5908C500D32B460B5F2B772B4608B4
:1016C000033C0319772B4608053C0319772B460882
:1016D000073C0319772B4608083C0319772B46086B
:1016E000103C0319772B4608123C031D842B5A0E1D
:1016F000F700F030F70577085907313C0318842BC1
:101700005908C500BD01D42B4608043C0319942B8D
:101710004608063C0319942B4608093C0319942BF0
:101720004608113C031DA12B5A0EF700F030F705B7
:1017300077085907303C0318A12B5908C500BD0193
:10174000D42B4608023C031DB62BC91BB62B491BE4
:10175000B62B5A0EF700F030F70577085907293CE9
:101760000318B62B5908C500BD01D42B4608023C0E
:10177000031DCC2BC91BBE2B491FCC2B5A0EF700C7
:10178000F030F70577085907283C0318CC2B590887
:10179000C500BD01D42BD32B5A0EF700F030F7054E
:1017A00077085907C500BD01C508031DEF2B7E3022
:1017B00003178D0000308F00031009300313DA0087
:1017C00072214608DA005730DB00C1212F30DF00DC
:1017D00085204708DA005730DB00C1210E2C873006
:1017E00003178D0000308F00031006300313DA005A
:1017F00072214508DA005730DB00C1212F30DF00AD
:1018000085204608DA005730DB00C1212F30DF0089
:1018100085204708DA005730DB00C1210F2C8A11E0
:101820000A16D328831607160000871500008312B6
:10183000071283160712000083128711831687117F
:101840008312A7018B1BA7178B13AE30F4008A11EC
:1018500090208A15A71B8B176108E400E501A701FA
:101860008B1BA7178B136108F4008A1190208A152F
:10187000A71B8B17A7018B1BA7178B136008F400FE
:101880008A1190208A15A71B8B17A7018B1BA717FE
:101890008B136208F4008A1190208A15A71B8B17FE
:1018A00083160712000087158312871D552C000030
:1018B000592C000083160716000007160000871534
:1018C000000083120712831607120000831287118B
:1018D000831687118312A7018B1BA7178B13AE30BA
:1018E000F4008A1190208A15A71B8B1778086310C3
:1018F00078186314631C9D2C831607160000871547
:1019000000008312871D822C071283160712000025
:1019100083128711831687118312A7018B1BA717C8
:101920008B13AE30F4008A1190208A15A71B8B17F9
:1019300078086310781863147A2C08004A08003A73
:101940000319A92C013A0319202D033A0319B62DC6
:101950004A2E4E3003178D0000308F0003100530E3
:101960000313DA0072214108DA005730DB00C1218D
:10197000513003178D0000308F000314063003131D
:10198000DA007221BD0803191F2D5908DA00DB01A6
:10199000DC01C1080319CE2C4108DC003D080A3ADD
:1019A0000319D92C013A0319DC2C073A0319DD2C51
:1019B000012DC101BD011F2D032D5C08C1000130A7
:1019C000CA005A0BE92C0430E0004108E100E22192
:1019D000FF2CA7018B1BA7178B130630E8004C08C0
:1019E000E9008A1137218A15A71B8B177808033E57
:1019F000DD00E1015D08E0004108E2001224BD01C4
:101A00001F2D3D08DB005C08103C03180B2D5C0803
:101A1000203C031D142D5C0EF700F030F70577080D
:101A20005B07233C0318172D5B08C1001E2D5C0EBD
:101A3000F700F030F70577085B07C100BD014A2EBB
:101A4000553003178D0000308F000310063003134C
:101A5000DA0072214108DA005730DB00C1213A3048
:101A6000DF0085204308DA005730DB00C1213A301F
:101A7000DF0085205F30DF0085205F30DF008520BC
:101A8000BD080319B52D0230DA005908DB00DC016E
:101A9000DD01C30803194E2D4308DD003D080A3A55
:101AA0000319592D013A0319622D073A0319632DC1
:101AB0008B2DC30803195E2DC301602D0130CA02AE
:101AC000BD01B52D8D2D5D08C3005A08CA005B0B02
:101AD000712D5A08053CDE00E0004308E100E221D8
:101AE000892D02305A07DE00A7018B1BA7178B1325
:101AF0000630E8004C08E9008A1137218A15A71B37
:101B00008B177808DE07E1015E08E0004308E20079
:101B10001224BD01B52D3D08DC005D08103C031802
:101B2000A12D5D08203C0319A12D5D08303C03194F
:101B3000A12D5D08403C0319A12D5D08503C031DFB
:101B4000AA2D5D0EF700F030F70577085C07593CC9
:101B50000318AD2D5C08C300B42D5D0EF700F03006
:101B6000F70577085C07C300BD014A2E5E300317F6
:101B70008D0000308F00031006300313DA0072214D
:101B80004108DA005730DB00C1213A30DF00852000
:101B90004308DA005730DB00C1213A30DF008520EE
:101BA0004408DA005730DB00C121BD0803194A2E72
:101BB0000330DA005908DB00DC01DD01C408031939
:101BC000E32D4408DD003D080A3A0319EE2D013AE1
:101BD0000319F72D073A0319F82D202EC40803190D
:101BE000F32DC401F52D0130CA02BD014A2E222E6B
:101BF0005D08C4005A08CA005B0B062E5A08053C53
:101C0000DE00E0004408E100E2211E2E02305A0707
:101C1000DE00A7018B1BA7178B130630E8004C08CA
:101C2000E9008A1137218A15A71B8B177808DE0770
:101C3000E1015E08E0004408E2001224BD014A2EE2
:101C40003D08DC005D08103C0318362E5D08203C82
:101C50000319362E5D08303C0319362E5D08403CD2
:101C60000319362E5D08503C031D3F2E5D0EF70014
:101C7000F030F70577085C07593C0318422E5C08E2
:101C8000C400492E5D0EF700F030F70577085C07B9
:101C9000C400BD0108006008F8015F020318532E5C
:101CA0005F08F7005F2EF7010830E100DF0DF70D48
:101CB000600877020318F700F80DE10B562E0800B4
:101CC00078085908DF006430E0004B267708D90017
:101CD00078083030031D732EDA1C7A2EDA197A2E2A
:101CE0005A1A2030762EDA115A125A14F807780848
:101CF000DF0085205908DF000A30E0004B26770816
:101D0000D90078083030031D8B2EDA198F2E5A1C1B
:101D10008F2E5A1A2030F8077808DF0085203030DF
:101D2000D9075908DF008520080020305A1E3030BE
:101D3000DB005908F700D91FA42EF709F70A770826
:101D4000D9002D30DB00DA175908DF006430E000DD
:101D50004B267708D90030307807DC005908DF00BF
:101D60000A30E0004B2630307707DE00303078074D
:101D7000DD005B08F700DA1DBF2EDA1F5A115A1A70
:101D8000CC2EDA1FE72E5A19E72E7708DC00DA1876
:101D9000E72E7708DD00E72E30305C02031DE72ECA
:101DA0007708DC002030DB00DA1DDA2E5A11DA1455
:101DB000DA1FDA1030305D02031DE72E7708DD00F0
:101DC0002030DC00DA1DDA2EDA10DA1F5A105A1D24
:101DD000EC2E5B08DF008520DA1CF12E5C08DF00AA
:101DE00085205A1CF62E5D08DF0085205E08DF0086
:101DF000852008003D080A3A0319052F013A031906
:101E0000082F073A03190A2F272FC201BA01502FB2
:101E1000BD01272FA7018B1BA7178B134C08E800C8
:101E20000630E9008A1137218A15A71B8B1778081D
:101E3000D900E1017808E0004208E20012240130F4
:101E4000CC07BD01C201C0010530BF00502FC20840
:101E500003193C2FA7018B1BA7178B134208E8001F
:101E60000A30E9008A1137218A15A71B8B173D0814
:101E70007807B43C03183F2F3D08C2004F2FA7013D
:101E80008B1BA7178B134208E8000A30E9008A1160
:101E900037218A15A71B8B173D087807C200BD01A3
:061EA0008A110A16DC2A7B
:10200000840183131F308305FF30A8002914AA011F
:10201000B501B401BB01C101C201C301C401C501C5
:10202000C601C701C801C901CA01CB01CC01CD015C
:10203000D301D401D501D601D70183161F149F14F3
:102040001F159F1107309C008312CE01CF01D001D4
:10205000D101D201023083168500F83086000030AD
:102060008700831286018316811383120516880167
:10207000AA010A30AB0083161F109F101F159F1175
:102080001F1383121F179F1383169F1783121F148A
:102090000830F8001F08C73978049F002130F70086
:1020A000F70B502807110C3097000030F800043867
:1020B0009200FF30831692000108C0390638810073
:1020C0002130F700F70B6228C03083128B048B1588
:1020D0008B160A128A1554280A168A110A30E00053
:1020E0000A128A151D200A168A11A93003178D00BD
:1020F00007308F000A128A150313BA200A168A11B4
:10210000BB01BE010430D900FA30E0000A128A1582
:102110001D200A168A11D90B8428B93003178D00A7
:1021200007308F000A128A150313BA200A168A1183
:102130003D080C3C0319BC283D080A3C0319BC2887
:102140000A128A1500210A168A113D080C3C03194F
:10215000CD013D080A3C031DBB28A7018B1BA71717
:102160008B13EA01C830E9000A125C210A16A71B8A
:102170008B177808CD009828CB3003178D000730D7
:102180008F000A128A150313BA200A168A1148080A
:10219000033C0319D6280A128A1500210A168A114F
:1021A0000A128A15602A0A168A11C728D330031723
:1021B0008D0007308F000A128A150313BA200A1601
:1021C0008A114A08033C0319F2280A128A150021D1
:1021D0000A168A110130D9000A128A159E240A169D
:1021E0008A11E128BD01A7018B1BA7178B130230B1
:1021F000E8000A12F7200A16A71B8B177808D700E9
:10220000A7018B1BA7178B130330E8000A12F720D6
:102210000A16A71B8B177808D600A7018B1BA717D8
:102220008B130430E8000A12F7200A16A71B8B173D
:102230007808D400DB3003178D0007308F000310BF
:1022400016300313DA000A128A1572210A168A114F
:102250005408DA005730DB000A128A15C1210A1629
:102260008A113A30DF000A128A1585200A168A116F
:102270005608DA005730DB000A128A15C1210A1607
:102280008A113A30DF000A128A1585200A168A114F
:102290005708DA005730DB000A128A15C1210A16E6
:1022A0008A11EB3003178D0007308F0003140430C0
:1022B0000313DA000A128A1572210A168A11CB0852
:1022C000031D722A2A08633C0318BC290A30DF0068
:1022D0000A128A1585200A168A112030DF000A1298
:1022E0008A1585200A168A112030DF000A128A1505
:1022F00085200A168A112A08D9001B30DA000A1232
:102300008A1560260A168A112730DF000A128A15FC
:1023100085200A168A112030DF000A128A158520CE
:102320000A168A115408DA005730DB000A128A159F
:10233000C1210A168A113A30DF000A128A15852057
:102340000A168A115608DA005730DB000A128A157D
:10235000C1210A168A113A30DF000A128A15852037
:102360000A168A115708DA005730DB000A128A155C
:10237000C1210A168A11722A2A08093C03181D2A4B
:102380000A30DF000A128A1585200A168A112030C9
:10239000DF000A128A1585200A168A112030DF0014
:1023A0000A128A1585200A168A112A08D9001B30BC
:1023B000DA000A128A1560260A168A112730DF0011
:1023C0000A128A1585200A168A112030DF000A12A7
:1023D0008A1585200A168A112030DF000A128A1514
:1023E00085200A168A115408DA005730DB000A12D9
:1023F0008A15C1210A168A113A30DF000A128A159D
:1024000085200A168A115608DA005730DB000A12B6
:102410008A15C1210A168A113A30DF000A128A157C
:1024200085200A168A115708DA005730DB000A1295
:102430008A15C1210A168A11722A0A30DF000A128F
:102440008A1585200A168A112030DF000A128A15A3
:1024500085200A168A112030DF000A128A1585208D
:102460000A168A112A08D9001B30DA000A128A15C6
:1024700060260A168A11F03003178D0007308F008E
:10248000031404300313DA000A128A1572210A16A3
:102490008A115408DA005730DB000A128A15C1216C
:1024A0000A168A113A30DF000A128A1585200A16A8
:1024B0008A115608DA005730DB000A128A15C1214A
:1024C0000A168A113A30DF000A128A1585200A1688
:1024D0008A115708DA005730DB000A128A15C12129
:1024E0000A168A110A128A1500210A168A113D0855
:1024F0000C3C031D612BCA01003003178D0008300E
:102500008F00031010300313DA000A128A157221AB
:102510000A168A114D08D9001F30DA000A128A15EE
:1025200095260A168A113A30DF000A128A1585208C
:102530000A168A114A08033C0319AA2A0A128A15A4
:1025400000210A168A11D9010A128A159E240A1638
:102550008A119A2A0A3003178D0008308F00031061
:102560000F300313DA000A128A1572210A168A1133
:102570004D08D9001F30DA000A128A1595260A166E
:102580008A113A30DF000A128A1585200A168A114C
:10259000C001BF01C008031D042B3F08023C031CFF
:1025A000042B0A128A1500210A168A11BD08031984
:1025B000FC2A0A128A15FA2E0A168A11F930031714
:1025C0008D0007308F00031008300313DA000A1261
:1025D0008A1572210A168A114208D9001B30DA00C6
:1025E0000A128A1560260A168A110A30E0000A12B9
:1025F0008A151D200A168A113F080319C003BF035C
:10260000BF0A0319C00ACA2AC001BF010130CD07A1
:10261000E101C830E0004D08E2000A128A151224D8
:102620000A168A11143003178D0008308F000A1221
:102630008A150313BA200A168A11BE013E08AF3C60
:10264000031C2E2B091D262B0911272B09153F30A2
:10265000F700F70B292B0000BE0A1E2BBE013E0817
:10266000DB3C031C3F2B091D372B0911382B0915A7
:102670003230F700F70B3A2B0000BE0A2F2BBE01B9
:102680003E08FE3C031C502B091D482B0911492B09
:1026900009152A30F700F70B4B2B0000BE0A402B20
:1026A000BE013E08FE3C031C612B091D592B09117C
:1026B0005A2B09152A30F700F70B5C2B0000BE0AD5
:0626C000512B5F296300AD
:02400E00713F00
:00000001FF
;PIC16F877A
;CRC=BD0D  CREATED="29-jun-12 12:55"
