:1000000010308A0000280000FF00030E8301A100C9
:100010000A08A0008A010408A2007708A300780853
:10002000A4007908A5007A08A600831383128B1D0B
:100030001B280B1830288B1E1F280B193328220869
:1000400084002308F7002408F8002508F900260892
:10005000FA0020088A00210E8300FF0E7F0E09009F
:100060008A110A123E288A110A12302E0A108A10AA
:100070000A11820728340C34013406343B08BC00D2
:100080000608BB003B08F03C031848283C08BB00AE
:100090000030F8000B108A110A121F280A102010D5
:1000A000A012781DDF2FBA2F5F0008052010201046
:1000B0002519781D2519781DDF2F0001080520104E
:1000C00020102519781D2519781D251978000A108A
:1000D0002010A02FDF17DF2FAF12780008052010A7
:1000E0002010DF2F2F18B1172519780008052010D0
:1000F0002010DF2FAF12F8172519780008052010FF
:100100002010B018AF12323CAF12323C000108058B
:1001100020102010253CAF12323CAF12323C0000C0
:100120000830F80000008711831687110000F40DD5
:1001300083120712031C9F288316071683120318C5
:10014000A428831607128312831687158312871D2E
:10015000A728F80B9228000087118316871100004A
:1001600007160000000087158312871DB528F801C7
:100170000000071A7814871183168711831207125B
:1001800083160712831208000830ED007708EE008E
:1001900083160716000087158312871DCD28071ABE
:1001A0000314071E0310F80D000083168711831235
:1001B0008711ED0BC828831607160000831207125B
:1001C0006E080319E62883160712831200008316AF
:1001D00087158312871DEA2800008711831687116F
:1001E0000000831207128316071283120800831679
:1001F00007160000871500008312871DFD280712CF
:100200008316071200008312871183168711A0300E
:10021000F400831290206808F400902083160716DB
:100220000000871500008312871D1429071283160A
:10023000071200008312871183168711A130F40082
:1002400083129020F701C4207808E9008316071272
:10025000000087158312871D2B2900002F2900001D
:1002600083160716000083126908F8000800F701DA
:10027000F801680803106918F707F70CF80CE9187B
:10028000F707F70CF80C6919F707F70CF80CE919E0
:10029000F707F70CF80C691AF707F70CF80CE91ACE
:1002A000F707F70CF80C691BF707F70CF80CE91BBC
:1002B000F707F70CF80C08008316071600008715DF
:1002C00000008312871D622907128316071200009F
:1002D0008312871183168711AE30F40083129020A9
:1002E0006A08EC00ED016A08F40090206908F40047
:1002F0009020831607160000871500008312871DC3
:100300007F290712831607120000831287118316B4
:100310008711AF30F40083129020F701C4207808D1
:10032000EB0083160712000087158312871D96299C
:1003300000009A29000083160716000083126B083C
:10034000F80008008E30F7007C08F8007B08F90000
:10035000FA01F808031DB6297908F800F9010830F8
:10036000F702F808031DB629F701BE290310F81B90
:10037000BD29F90DF80DF703B629F81308007B081D
:1003800003193E2A8316A4002008031DC9298312DD
:100390003E2AA4070318D7297F30A4020318D229C4
:1003A00083123E2A031DD62983123E2ADD2981307D
:1003B000A407031CDD2983123E2A2408F700F80154
:1003C000F901FA017C08A800A8177D08A7007E089B
:1003D000A6001830A400A501261C062A2308FA0747
:1003E000031CF829F90A031DF829F80A0319A517AF
:1003F0002208F907031CFF29F80A0319A517210889
:10040000FD00FD177D08F8070318A517A50DF80CCA
:10041000F90CFA0CA80CA70CA60C0310A40BEB29E2
:100420000130F707031C162A83123E2AF81B202AE4
:10043000A80DFA0DF90DF80DF70B202A83123E2AAC
:10044000A81F332AFA0A031D332AF90A031D332A87
:10045000F80A031D332AF80CF90CFA0CF70A031DED
:10046000332A83123E2A7C08A5002108A506A51F71
:100470003B2AF817432AF813432A8312F701F8019D
:10048000F901FA0183168312080080308318F206FE
:100490008316A201A30183126E088316A1007208BD
:1004A000A10683126D080319472B8316A000F700DD
:1004B00071080319512BA0020319E72A031C9F2A74
:1004C0007208A600A6177308A5007408A400A3016B
:1004D0000310A60CA50CA40CA30CA00B672AA11F4B
:1004E000742A2214692B22102010221670308400E6
:1004F00083137E2B2212A11B872A201C922AA60C72
:10050000A50CA40CA30CF70A0319642B922AA61BB2
:10051000952A0310A30DA40DA50DA60DF70303192D
:10052000642B872A2217092B221383126E08831645
:10053000A100A11F9D2AA6175D2BA6135D2B710894
:10054000A000F70083126D088316A00283126E08C4
:100550008316A600A61783126F088316A5007008DD
:10056000A400A3010310A60CA50CA40CA30CA00BC3
:10057000B12AA11FBE2AA214692BA2102010A21614
:100580007430840083137E2BA212A11BD12A201C5D
:10059000DC2AA60CA50CA40CA30CF70A0319642BE7
:1005A000DC2AA61BDF2A0310A30DA40DA50DA60DA2
:1005B000F7030319642BD12AA217092BA21372087F
:1005C000A100A11FE52AA6175D2BA6135D2B7208BB
:1005D000A600A6177308A5007408A400A11FF42A9A
:1005E000A6132215692B2211A3012010703084005C
:1005F00083137E2BA11B1F2B83126E088316A10071
:10060000201C092BA60CA50CA40CA30CF70A03199B
:10061000642BA31F1A2BA40A031D1A2BA50A031D62
:100620001A2BA60A031D1A2BA60CA50CA40CF70A5C
:100630000319642B221B942AA21BDE2A402B803034
:10064000A606A61F272B692B7208A100362B831242
:100650006E088316A100A608031D362BA508031DEE
:10066000362BA408031D362BF7015D2BA61B402B50
:100670000310A30DA40DA50DA60DF70B362B642BAF
:10068000A11F442BA6175D2BA6135D2B83127108A7
:10069000F70072088316A6007308A5007408A4006A
:1006A0005D2B83126D08F7006E088316A600831277
:1006B0006F088316A5007008A4002608F800250816
:1006C000F9002408FA009C2BF701F801F901FA015E
:1006D0009C2BA301A409A509A609A309A30A031D2C
:1006E000772BA40A031D772BA50A0319A60A221843
:1006F000732AA218BD2A2219F32A242B0008A40762
:10070000031C882BA50A031D882BA60A0319201495
:1007100084030008A507031C902BA60A03192014C4
:1007200084030008801F803AA60703182014221AA9
:100730007A2AA21AC42AFA2A831208006808013AFF
:100740000319A92B033A0319E52B013A0319E02CED
:100750006C2DFC012A08FB00A2212F30FE00DD30A9
:10076000FD005A30FC008130FB007A088316A3009C
:100770007908A2007808A1007708A0008312BF21A1
:100780007708E9007808EA007908EB007A08EC00BD
:1007900083107A08F0007908EF007808EE007708F7
:1007A000ED005630F4008E30F3003730F200843024
:1007B000F10045227A08B9007908B8007808B70036
:1007C0007708B6000430D8006C2DFC012A08FB0025
:1007D000A221C330FE006430FD002A30FC007630D8
:1007E000FB007A088316A3007908A2007808A1000C
:1007F0007708A0008312BF217708E9007808EA0093
:100800007908EB007A08EC00FC012A08FB00A22121
:100810006C08FE006B08FD006A08FC006908FB001C
:100820007A088316A3007908A2007808A100770847
:10083000A0008312BF217708E9007808EA00790850
:10084000EB007A08EC00FC012A08FB00A2216C08EE
:10085000FE006B08FD006A08FC006908FB007A08CE
:100860008316A3007908A2007808A1007708A000E9
:100870008312BF217708E9007808EA007908EB00C5
:100880007A08EC00FC012A08FB00A2211230FE00CD
:100890008330FD002030FC007E30FB007A08831698
:1008A000A3007908A2007808A1007708A0008312AD
:1008B000BF217708ED007808EE007908EF007A088C
:1008C000F000FC012A08FB00A2217008FE006F085E
:1008D000FD006E08FC006D08FB007A088316A3007B
:1008E0007908A2007808A1007708A0008312BF2130
:1008F00083146C08F0006B08EF006A08EE006908CA
:10090000ED007A08F4007908F3007808F20077081F
:10091000F10045227708E9007808EA007908EB0041
:100920007A08EC00FC012A08FB00A2219C30FE00A2
:100930004430FD004E30FC008430FB007A08831602
:10094000A3007908A2007808A1007708A00083120C
:10095000BF2183106C08F0006B08EF006A08EE00FE
:100960006908ED007A08F4007908F3007808F200CD
:100970007708F10045227708E9007808EA0079084D
:10098000EB007A08EC0083147A08F0007908EF0095
:100990007808EE007708ED00C330F400D530F3009E
:1009A0006930F2008830F10045227A08B9007908F0
:1009B000B8007808B7007708B6000A30D8006C2D68
:1009C000FC012A08FB00A221EC30FE002F30FD00C4
:1009D000BB30FC007A30FB007A088316A30079084C
:1009E000A2007808A1007708A0008312BF21770831
:1009F000E9007808EA007908EB007A08EC00FC01CD
:100A00002A08FB00A2216C08FE006B08FD006A08A2
:100A1000FC006908FB007A088316A3007908A2008D
:100A20007808A1007708A0008312BF217708E900A9
:100A30007808EA007908EB007A08EC00FC012A0843
:100A4000FB00A221CF30FE00F730FD001330FC0088
:100A50008330FB007A088316A3007908A200780887
:100A6000A1007708A0008312BF2183106C08F0005A
:100A70006B08EF006A08EE006908ED007A08F400E0
:100A80007908F3007808F2007708F100452277082A
:100A9000E9007808EA007908EB007A08EC00831492
:100AA0007A08F0007908EF007808EE007708ED008A
:100AB000EC30F400B130F3005F30F2008830F10028
:100AC00045227A08B9007908B8007808B700770895
:100AD000B6000530D8006C2D3908EC003808EB0062
:100AE0003708EA003608E9008E30F7006908F70297
:100AF0006A08F9006B08F800F917F70803198B2D3D
:100B00000310F908031D872DF80803198B2DF90C24
:100B1000F80CF70B802DEA1F922DF809F909F80A55
:100B20000319F90A7908B5007808B4003508FC0003
:100B30003408FB00A22183143908F0003808EF00C4
:100B40003708EE003608ED007A08F4007908F30063
:100B50007808F2007708F10045227708E900780864
:100B6000EA007908EB007A08EC00F001EF01EE01F1
:100B70007E30ED006C08F4006B08F3006A08F200A8
:100B80006908F1006E08F5007208F506F51FCD2D15
:100B900003110310EE1B0314002E6E08F5007108FC
:100BA000F6006D08F6020319DB2DF51F002E030871
:100BB000013A8300002E7208F6006E08F60203194F
:100BC000E72DF51F002E0308013A8300002E73085D
:100BD000F6006F08F6020319F32DF51F002E030827
:100BE000013A8300002E7408F6007008F60203191B
:100BF000FF2DF51F002E0308013A8300002E03107D
:100C00000318042E031D082E0130B4070318B50A7B
:100C10002A08AB000800F801F901F701FA016C0895
:100C2000031D152E6B0803192F2E1030ED00031035
:100C3000E90DEA0DF70DFA0D6C087A02031D222E5C
:100C40006B087702031C2B2E6B08F702031CFA03B8
:100C50006C08FA020314F80DF90DED0B172E0800BD
:100C60001F151F19312E83161E088312AC001E0893
:100C7000AD00AD08031D422E2C08273C031C422E5C
:100C8000AD01AC012D08023C0318512EFF3A031DA3
:100C90004D2E2C08E83C0318512E0330AD00FF30D8
:100CA000AC00F33081000430CB07CB08031DBD2E10
:100CB0000230E800F7207808D700D708031D6D2E12
:100CC0000330E800F7207808D600D608031D6D2E03
:100CD0000430E800F7207808D4005308CC004D0811
:100CE0004C020318BD2E0630E8004C08E9003721FD
:100CF0007808053EE800EA016808E9005C21780808
:100D00005702031DBB2E0630E8004C08E9003721CE
:100D10007808043EE800EA016808E9005C217808E8
:100D20005602031DBB2E0630E8004C08E9003721AF
:100D30007808033EE800EA016808E9005C217808C9
:100D40005402031DBB2E0630E8004C08E900372191
:100D50007808E800EA017808E9005C217808AA0030
:100D60004E304C0784008313800153084C02031D4E
:100D7000BB2E0130D307CC0A6F2E2B082A02031991
:100D8000DE2E2A083C3C031CC82E0130E8009E23BE
:100D90002A083C3C0318D32E2A08633C031CD32E9C
:100DA0000230E8009E232A08633C0318DE2E2A083E
:100DB000B43C031CDE2E0330E8009E2334082C02D2
:100DC000031DE62E35082D020319A62F35082D0226
:100DD000031CFB2E031DF02E2C0834020318FB2EDF
:100DE000681434082C02AE002D08AF003508031C2F
:100DF000350FAF02052F68102C083402AE003508FD
:100E0000AF002D08031C2D0FAF0229086806013919
:100E100003190E2FB1010130B000282F0330EA0072
:100E2000FF30E900EC015808EB000B267908FA00C6
:100E30002F087902031C282F031D222F78082E0269
:100E40000318282F2E08B0072F0803182F0FB107FB
:100E50003108743C0318372FFF3A031D332F300835
:100E60002F3C0318372F7530B1003030B0003108F7
:100E7000EA003008E900EC01C830EB000B267908E5
:100E8000FA0078082E07F8002F0803182F0FFA072A
:100E90007808E9007A08EA00EC015808EB006A08D3
:100EA000EE006908ED001030EF00F701FA01EC0CDC
:100EB000EB0C031C612F6D08F7070318FA0A6E0884
:100EC000FA07FA0CF70CF90CF80CEF0B572F79080E
:100ED000B3007808B2003308033C0318732F0330C3
:100EE000B300FF30B200681C8A2F87103308F90066
:100EF0003208F800F90CF80CF90CF80CF90C780829
:100F00009500F90C790C3039F7001708CF397704C0
:100F10009700A32F87143208FF3CE9000330EA0052
:100F20003308031C330FEA02EA0CE90CEA0CE90C63
:100F3000EA0C69089500EA0C6A0C3039F7001708CA
:100F4000CF39770497002910681829140B118A11DA
:100F50000A121F280C1020102028F2376739E136BA
:100F600061100A28E13AEC37A0322010CD30F2347B
:100F7000613761000C102010C430F430A020F43A26
:100F800061363A000C102010C837F230A020F43A35
:100F900061363A008C1120382F10CE37F637A0205A
:100FA000EE3375366F05201020102519781D251990
:100FB000781D25197810201020000C246F39613914
:100FC000E937A020EE3375366F1025323A000C1049
:100FD000D630EC3772104137E73AEC37A012641D77
:0E0FE00000010A10201020102010A53A000178
:101000008C1120382F10CE37F637A020EE337536EE
:101010006F052010A53A2710A012323CBA12323CBC
:10102000BA12323C000060308400831300080319B8
:1010300027280130F800F701F70B1C28F80B1B28B4
:101040004A30F700F70B22282528800B19280800C2
:10105000670EF039F7000F300805770488000000AC
:1010600089143228891008000910641C09106418BA
:1010700009140000091100008910650EE6000F3008
:10108000E6056608E700282065080F39E600E70056
:1010900028200800831609108910091100308800E3
:1010A00083120910091189100F30E000132001305C
:1010B000D9005908033C031C65280330E7002820A9
:1010C0000530E0001320D90A59280230E700282013
:1010D000D9015908033C031C782859088A11362085
:1010E0008A15DA00E4015A08E5003420D90A692893
:1010F0008A110A166C285F080C3A03198628063AEA
:1011000003198E28023A0319A428A928E401013002
:10111000E50034200230E0001320AF280130E00069
:101120000230E100610B952898284030E2009928B0
:10113000E20101306002E20762088038E300E40166
:101140006308E5003420AF28E4011030E5003420C6
:10115000AF280130E4005F08E5003420AF28080024
:10116000831603178C170C140000000083120C0860
:101170007F390319F4280313D90003170D0803134B
:10118000DA0003170F080313DB005908DF007B2088
:101190005A0803178D0003135B0803178F0083168B
:1011A0008C170C140000000083120C0D0E0D7F39FB
:1011B0000319F4280313D90003170D080313DA00E9
:1011C00003170F080313DB005908DF007B205A08C0
:1011D00003178D0003135B0803178F008D0A031993
:1011E0008F0A0313B028031703130800BB08031961
:1011F0006229BE013E08FA3C031C1E29091D022972
:101200000911032909150430D900C530DA0012305C
:10121000DA02031C1A295A3084008313FC3080053B
:101220000310800C800C000803191A2918290000EB
:10123000800B1729D90B0529BE0AFA283B08EF3C79
:10124000031C61290430BE003E08073C031C3929F9
:101250003B08F7003E08F800031932290310F70C89
:10126000F80B2E29771837293E08BD003929BE0A08
:101270002429BE013E08023C031C61293B08F700FB
:101280003E08F800031948290310F70CF80B44290D
:1012900077185F2904303D02DA00A7018B1BA717DE
:1012A0008B135A08E8000330E9008A1137218A15A8
:1012B000A71B8B173E087807013EBD006129BE0AB7
:1012C0003A29BB01861F7829061F7829861E7829AE
:1012D000061E782906196F29061006157829861822
:1012E00074290611861478290618782986100614A0
:1012F0000800831603178C170C1400000000031855
:10130000A82983120C087F390313DB0003170D088B
:101310000313DC0003170F080313DD005B08DF0075
:101320007B205C0803178D0003135D0803178F00F3
:1013300083168C170C140000000083120313DA0BC1
:10134000A229A52983160317A829C72983160317DD
:1013500083120C0D0E0D7F390313DB0003170D08EC
:101360000313DC0003170F080313DD005B08DF0025
:101370007B205C0803178D0003135D0803178F00A3
:101380008D0A03198F0A03100313DA0B7929080059
:10139000DB1BDA290F30F7005A0EF7050A30770207
:1013A0000318D5293030F707D7295B08F7077708E6
:1013B000DF007B200F30DA050A305A020318E229D9
:1013C0003030E429DB135B08DA075A08DF007B20A2
:1013D0000800831607160000871500008312071205
:1013E0008316071200008312871183168711831258
:1013F000A7018B1BA7178B13A030F4008A11902034
:101400008A15A71B8B17A7018B1BA7178B136008C7
:10141000F4008A1190208A15A71B8B17A7018B1B3C
:10142000A7178B136108F4008A1190208A15A71B57
:101430008B1783160712000087158312871D1E2A3B
:101440000000222A0000831607160000071600007D
:1014500087150000831207128316071200008312FB
:101460008711831687118312A7018B1BA7178B1374
:10147000A030F4008A1190208A15A71B8B177808DA
:10148000621078186214621C662A83160716000020
:10149000871500008312871D4B2A07128316071237
:1014A000000083128711831687118312A7018B1BFB
:1014B000A7178B13A030F4008A1190208A15A71B60
:1014C0008B177808621078186214432A08004808BD
:1014D000003A0319722A013A0319B22A033A03198E
:1014E000282B162C673003178D0000308F00031057
:1014F0000B300313DA0079214708DA005730DB009C
:10150000C821BD080319B12AD901DA014708DA0058
:101510003D080A3A0319932A013A0319962A073A11
:101520000319972AA02AC701BD01B12AA22A5A0885
:10153000C700C9014718C9170130C800BD01B12A49
:101540003D08D9005A08093C0318A92A5908C700C0
:10155000B02A5A0EF700F030F70577085907C70090
:10156000BD01162CBD080319FD2AD901DA01460870
:10157000DA003D080A3A0319C42A013A0319CD2AB0
:10158000073A0319CE2AE12AC6080319C92AC60157
:10159000CB2A0130C802BD01FD2AE32A5A08C60041
:1015A000DA08031DD82AD908031DD82A0130C6003D
:1015B0000230C8000630E0004608E100E921BD0124
:1015C000FD2A3D08D9005A08013C0318E92A5908A8
:1015D000C6005A0EF700F030F70577085907123C9D
:1015E0000318F52A5908C600FC2A5A0EF700F030F5
:1015F000F70577085907C600BD01C608031D102B63
:101600006E3003178D0000308F0003100C30031371
:10161000DA0079214708DA005730DB00C821272B90
:10162000763003178D0000308F000310093003134C
:10163000DA0079214608DA005730DB00C8212F3064
:10164000DF007B204708DA005730DB00C821162C6A
:10165000BD080319DB2BD901DA014508DA003D0882
:101660000A3A03193A2B013A0319432B073A031993
:10167000442B5A2BC50803193F2BC501412B0130C0
:10168000C802BD01DB2B5C2B5A08C500DA08031D1C
:101690004E2BD908031D4E2B0130C5000330C80066
:1016A00049084507DB000530E0005B08E100E9215F
:1016B000BD01DB2B3D08D9005A08033C0318632BFE
:1016C0005908C500DA2B460B662B7E2B4608033CD7
:1016D00003197E2B4608053C03197E2B4608073C60
:1016E00003197E2B4608083C03197E2B4608103C44
:1016F00003197E2B4608123C031D8B2B5A0EF70054
:10170000F030F70577085907313C03188B2B59083F
:10171000C500BD01DB2B4608043C03199B2B460882
:10172000063C03199B2B4608093C03199B2B4608D2
:10173000113C031DA82B5A0EF700F030F70577086F
:101740005907303C0318A82B5908C500BD01DB2BF5
:101750004608023C031DBD2BC91BBD2B491BBD2BDD
:101760005A0EF700F030F70577085907293C03189F
:10177000BD2B5908C500BD01DB2B4608023C031DEB
:10178000D32BC91BC52B491FD32B5A0EF700F030A2
:10179000F70577085907283C0318D32B5908C500CB
:1017A000BD01DB2BDA2B5A0EF700F030F705770876
:1017B0005907C500BD01C508031DF62B7E30031770
:1017C0008D0000308F00031009300313DA007921F7
:1017D0004608DA005730DB00C8212F30DF007B20BD
:1017E0004708DA005730DB00C821152C8730031773
:1017F0008D0000308F00031006300313DA007921CA
:101800004508DA005730DB00C8212F30DF007B208D
:101810004608DA005730DB00C8212F30DF007B207C
:101820004708DA005730DB00C821162C8A110A1647
:10183000A4288316071600008715000083120712DC
:1018400083160712000083128711831687118312F3
:10185000A7018B1BA7178B13AE30F4008A119020C1
:101860008A15A71B8B176108E400E501A7018B1BF4
:10187000A7178B136108F4008A1190208A15A71B03
:101880008B17A7018B1BA7178B136008F4008A1115
:1018900090208A15A71B8B17A7018B1BA7178B13EB
:1018A0006208F4008A1190208A15A71B8B178316F3
:1018B0000712000087158312871D5C2C0000602C26
:1018C00000008316071600000716000087150000A9
:1018D00083120712831607120000831287118316E2
:1018E00087118312A7018B1BA7178B13AE30F4004F
:1018F0008A1190208A15A71B8B1778086310781817
:101900006314631CA42C83160716000087150000BF
:101910008312871D892C0712831607120000831279
:101920008711831687118312A7018B1BA7178B13AF
:10193000AE30F4008A1190208A15A71B8B17780807
:10194000631078186314812C08004A08003A0319C0
:10195000B02C013A0319272D033A0319BD2D512E3E
:101960004E3003178D0000308F0003100530031335
:10197000DA0079214108DA005730DB00C821513004
:1019800003178D0000308F00031406300313DA00B4
:101990007921BD080319262D5908DA00DB01DC0185
:1019A000C1080319D52C4108DC003D080A3A031987
:1019B000E02C013A0319E32C073A0319E42C082D13
:1019C000C101BD01262D0A2D5C08C1000130CA00ED
:1019D0005A0BF02C0430E0004108E100E921062D0B
:1019E000A7018B1BA7178B130630E8004C08E900F2
:1019F0008A1137218A15A71B8B177808033EDD0053
:101A0000E1015D08E0004108E2001924BD01262D36
:101A10003D08DB005C08103C0318122D5C08203CDC
:101A2000031D1B2D5C0EF700F030F70577085B07F0
:101A3000233C03181E2D5B08C100252D5C0EF7000A
:101A4000F030F70577085B07C100BD01512E553016
:101A500003178D0000308F00031006300313DA00E7
:101A600079214108DA005730DB00C8213A30DF0025
:101A70007B204308DA005730DB00C8213A30DF0012
:101A80007B205F30DF007B205F30DF007B20BD08E4
:101A90000319BC2D0230DA005908DB00DC01DD013E
:101AA000C3080319552D4308DD003D080A3A031900
:101AB000602D013A0319692D073A03196A2D922DF9
:101AC000C3080319652DC301672D0130CA02BD018A
:101AD000BC2D942D5D08C3005A08CA005B0B782DFD
:101AE0005A08053CDE00E0004308E100E921902DA2
:101AF00002305A07DE00A7018B1BA7178B13063095
:101B0000E8004C08E9008A1137218A15A71B8B17BA
:101B10007808DE07E1015E08E0004308E2001924CE
:101B2000BD01BC2D3D08DC005D08103C0318A82D4C
:101B30005D08203C0319A82D5D08303C0319A82D31
:101B40005D08403C0319A82D5D08503C031DB12DD4
:101B50005D0EF700F030F70577085C07593C031875
:101B6000B42D5C08C300BB2D5D0EF700F030F70507
:101B700077085C07C300BD01512E5E3003178D004E
:101B800000308F00031006300313DA00792141087A
:101B9000DA005730DB00C8213A30DF007B204308F1
:101BA000DA005730DB00C8213A30DF007B204408E0
:101BB000DA005730DB00C821BD080319512E03306D
:101BC000DA005908DB00DC01DD01C4080319EA2D45
:101BD0004408DD003D080A3A0319F52D013A0319BE
:101BE000FE2D073A0319FF2D272EC4080319FA2DDD
:101BF000C401FC2D0130CA02BD01512E292E5D0801
:101C0000C4005A08CA005B0B0D2E5A08053CDE00C2
:101C1000E0004408E100E921252E02305A07DE00E9
:101C2000A7018B1BA7178B130630E8004C08E900AF
:101C30008A1137218A15A71B8B177808DE07E10167
:101C40005E08E0004408E2001924BD01512E3D0861
:101C5000DC005D08103C03183D2E5D08203C031994
:101C60003D2E5D08303C03193D2E5D08403C0319B4
:101C70003D2E5D08503C031D462E5D0EF700F030F2
:101C8000F70577085C07593C0318492E5C08C40027
:101C9000502E5D0EF700F030F70577085C07C400A2
:101CA000BD0108006008F8015F0203185A2E5F08A2
:101CB000F700662EF7010830E100DF0DF70D600830
:101CC00077020318F700F80DE10B5D2E0800780885
:101CD0005908DF006430E00052267708D900780800
:101CE0003030031D7A2EDA1C812EDA19812E5A1A11
:101CF00020307D2EDA115A125A14F8077808DF00C6
:101D00007B205908DF000A30E00052267708D9000E
:101D100078083030031D922EDA19962E5A1C962E12
:101D20005A1A2030F8077808DF007B203030D907B6
:101D30005908DF007B20080020305A1E3030DB00BD
:101D40005908F700D91FAB2EF709F70A7708D90011
:101D50002D30DB00DA175908DF006430E00052262E
:101D60007708D90030307807DC005908DF000A30E6
:101D7000E000522630307707DE0030307807DD0093
:101D80005B08F700DA1DC62EDA1F5A115A1AD32E35
:101D9000DA1FEE2E5A19EE2E7708DC00DA18EE2E36
:101DA0007708DD00EE2E30305C02031DEE2E770842
:101DB000DC002030DB00DA1DE12E5A11DA14DA1FC4
:101DC000DA1030305D02031DEE2E7708DD00203082
:101DD000DC00DA1DE12EDA10DA1F5A105A1DF32E3C
:101DE0005B08DF007B20DA1CF82E5C08DF007B201C
:101DF0005A1CFD2E5D08DF007B205E08DF007B2083
:101E000008003D080A3A03190C2F013A03190F2F55
:101E1000073A0319112F2E2FC201BA01572FBD0106
:101E20002E2FA7018B1BA7178B134C08E800063039
:101E3000E9008A1137218A15A71B8B177808D9006A
:101E4000E1017808E0004208E20019240130CC07E3
:101E5000BD01C201C0010530BF00572FC2080319E0
:101E6000432FA7018B1BA7178B134208E8000A30EA
:101E7000E9008A1137218A15A71B8B173D087807BF
:101E8000B43C0318462F3D08C200562FA7018B1BF8
:101E9000A7178B134208E8000A30E9008A1137219E
:101EA0008A15A71B8B173D087807C200BD018A1150
:041EB0000A16D22913
:10200000840183131F308305FF30A8002914AA011F
:10201000B501B401BB01C101C201C301C401C501C5
:10202000C601C701C801C901CA01CB01CC01CD015C
:10203000D301D401D501D601D70183161F149F14F3
:102040001F159F1107309C008312CE01CF01D001D4
:10205000D101D201023083168500F83086000030AD
:102060008700831286018316811383120516880167
:10207000AA010A30AB0083161F109F101F159F1175
:102080001F1383121F179F1383169F1783121F148A
:102090000830F8001F08C73978049F002130F70086
:1020A000F70B502807110C3097000030F800043867
:1020B0009200FF30831692000108C0390638810073
:1020C0002130F700F70B6228C03083128B048B1588
:1020D0008B160A128A154A280A168A110A30E0005D
:1020E0000A128A1513200A168A11AA3003178D00C6
:1020F00007308F000A128A150313B0200A168A11BE
:10210000BB01BE010430D900FA30E0000A128A1582
:1021100013200A168A11D90B8428BA3003178D00B0
:1021200007308F000A128A150313B0200A168A118D
:102130004808033C0319A7280A128A15F6200A1634
:102140008A110A128A15672A0A168A119828C2303B
:1021500003178D0007308F000A128A150313B02071
:102160000A168A114A08033C0319C3280A128A1561
:10217000F6200A168A110130D9000A128A15A52400
:102180000A168A11B228BD01CA3003178D00073024
:102190008F00031016300313DA000A128A15792112
:1021A0000A168A115408DA005730DB000A128A1521
:1021B000C8210A168A113A30DF000A128A157B20DC
:1021C0000A168A115608DA005730DB000A128A15FF
:1021D000C8210A168A113A30DF000A128A157B20BC
:1021E0000A168A115708DA005730DB000A128A15DE
:1021F000C8210A168A11DA3003178D0007308F00C4
:10220000031404300313DA000A128A1579210A161E
:102210008A11CB08031D68290A30DF000A128A15CB
:102220007B200A168A112030DF000A128A157B20D3
:102230000A168A112030DF000A128A157B200A163E
:102240008A112A08D9001B30DA000A128A1567267B
:102250000A168A112730DF000A128A157B200A1617
:102260008A112030DF000A128A157B200A168A1193
:102270002030DF000A128A157B200A168A115408C2
:10228000DA005730DB000A128A15C8210A168A11B3
:102290003A30DF000A128A157B200A168A11560886
:1022A000DA005730DB000A128A15C8210A168A1193
:1022B0003A30DF000A128A157B200A168A11570865
:1022C000DA005730DB000A128A15C8210A168A1173
:1022D0000A128A15F6200A168A113D080C3C031DC5
:1022E000532ACA01DD3003178D0007308F00031019
:1022F00010300313DA000A128A1579210A168A119E
:102300004D08D9001F30DA000A128A159C260A16D9
:102310008A113A30DF000A128A157B200A168A11C8
:102320004A08033C0319A0290A128A15F6200A1646
:102330008A11D9010A128A15A5240A168A11902930
:10234000E73003178D0007308F0003100F300313A1
:10235000DA000A128A1579210A168A114D08D90065
:102360001F30DA000A128A159C260A168A113A30A2
:10237000DF000A128A157B200A168A11C001BF01EC
:10238000C008031DFA293F08023C031CFA290A125F
:102390008A15F6200A168A11BD080319F2290A12B5
:1023A0008A15012F0A168A11F13003178D000730A4
:1023B0008F00031008300313DA000A128A157921FE
:1023C0000A168A114208D9001B30DA000A128A154F
:1023D00067260A168A110A30E0000A128A151320AD
:1023E0000A168A113F080319C003BF03BF0A031965
:1023F000C00AC029C001BF010130CD07003003175A
:102400008D0008308F00031014300313DA000A1215
:102410008A1579210A168A112A08D9001B30DA0098
:102420000A128A1567260A168A112730DF000A1257
:102430008A157B200A168A112030DF000A128A15BD
:102440007B200A168A112030DF000A128A157B20B1
:102450000A168A115408DA005730DB000A128A156E
:10246000C8210A168A113A30DF000A128A157B2029
:102470000A168A115608DA005730DB000A128A154C
:10248000C8210A168A113A30DF000A128A157B2009
:102490000A168A115708DA005730DB000A128A152B
:0A24A000C8210A168A1109296300F9
:02400E00713F00
:00000001FF
;PIC16F877A
;CRC=557A  CREATED="28-jun-12 19:30"
