:1000000010308A0000280000FF00030E8301A100C9
:100010000A08A0008A010408A2007708A300780853
:10002000A4007908A5007A08A600831383128B1D0B
:100030001B280B1830288B1E1F280B193328220869
:1000400084002308F7002408F8002508F900260892
:10005000FA0020088A00210E8300FF0E7F0E09009F
:100060008A110A123E288A110A12592E0A108A1081
:100070000A11820728340C34013406343B08BC00D2
:100080000608BB003B08F03C031848283C08BB00AE
:100090000030F8000B108A110A121F280A102010D5
:1000A000A012781DDF2FBA2F5F0008052010201046
:1000B0002519781D2519781DDF2F0001080520104E
:1000C00020102519781D2519781D251978000A108A
:1000D0002010A02FDF17DF2FAF12780008052010A7
:1000E0002010DF2F2F18B1172519780008052010D0
:1000F0002010DF2FAF12F8172519780008052010FF
:100100002010B018AF12323CAF12323C000108058B
:1001100020102010253CAF12323CAF12323C0000C0
:100120000830F80000008711831687110000F40DD5
:1001300083120712031C9F288316071683120318C5
:10014000A428831607128312831687158312871D2E
:10015000A728F80B9228000087118316871100004A
:1001600007160000000087158312871DB528F801C7
:100170000000071A7814871183168711831207125B
:1001800083160712831208000830ED007708EE008E
:1001900083160716000087158312871DCD28071ABE
:1001A0000314071E0310F80D000083168711831235
:1001B0008711ED0BC828831607160000831207125B
:1001C0006E080319E62883160712831200008316AF
:1001D00087158312871DEA2800008711831687116F
:1001E0000000831207128316071283120800831679
:1001F00007160000871500008312871DFD280712CF
:100200008316071200008312871183168711A0300E
:10021000F400831290206808F400902083160716DB
:100220000000871500008312871D1429071283160A
:10023000071200008312871183168711A130F40082
:1002400083129020F701C4207808E9008316071272
:10025000000087158312871D2B2900002F2900001D
:1002600083160716000083126908F8000800F701DA
:10027000F801680803106918F707F70CF80CE9187B
:10028000F707F70CF80C6919F707F70CF80CE919E0
:10029000F707F70CF80C691AF707F70CF80CE91ACE
:1002A000F707F70CF80C691BF707F70CF80CE91BBC
:1002B000F707F70CF80C08008316071600008715DF
:1002C00000008312871D622907128316071200009F
:1002D0008312871183168711AE30F40083129020A9
:1002E0006A08EC00ED016A08F40090206908F40047
:1002F0009020831607160000871500008312871DC3
:100300007F290712831607120000831287118316B4
:100310008711AF30F40083129020F701C4207808D1
:10032000EB0083160712000087158312871D96299C
:1003300000009A29000083160716000083126B083C
:10034000F80008008E30F7007C08F8007B08F90000
:10035000FA01F808031DB6297908F800F9010830F8
:10036000F702F808031DB629F701BE290310F81B90
:10037000BD29F90DF80DF703B629F81308007B081D
:1003800003193E2A8316A4002008031DC9298312DD
:100390003E2AA4070318D7297F30A4020318D229C4
:1003A00083123E2A031DD62983123E2ADD2981307D
:1003B000A407031CDD2983123E2A2408F700F80154
:1003C000F901FA017C08A800A8177D08A7007E089B
:1003D000A6001830A400A501261C062A2308FA0747
:1003E000031CF829F90A031DF829F80A0319A517AF
:1003F0002208F907031CFF29F80A0319A517210889
:10040000FD00FD177D08F8070318A517A50DF80CCA
:10041000F90CFA0CA80CA70CA60C0310A40BEB29E2
:100420000130F707031C162A83123E2AF81B202AE4
:10043000A80DFA0DF90DF80DF70B202A83123E2AAC
:10044000A81F332AFA0A031D332AF90A031D332A87
:10045000F80A031D332AF80CF90CFA0CF70A031DED
:10046000332A83123E2A7C08A5002108A506A51F71
:100470003B2AF817432AF813432A8312F701F8019D
:10048000F901FA0183168312080080308318F206FE
:100490008316A201A30183126E088316A1007208BD
:1004A000A10683126D080319472B8316A000F700DD
:1004B00071080319512BA0020319E72A031C9F2A74
:1004C0007208A600A6177308A5007408A400A3016B
:1004D0000310A60CA50CA40CA30CA00B672AA11F4B
:1004E000742A2214692B22102010221670308400E6
:1004F00083137E2B2212A11B872A201C922AA60C72
:10050000A50CA40CA30CF70A0319642B922AA61BB2
:10051000952A0310A30DA40DA50DA60DF70303192D
:10052000642B872A2217092B221383126E08831645
:10053000A100A11F9D2AA6175D2BA6135D2B710894
:10054000A000F70083126D088316A00283126E08C4
:100550008316A600A61783126F088316A5007008DD
:10056000A400A3010310A60CA50CA40CA30CA00BC3
:10057000B12AA11FBE2AA214692BA2102010A21614
:100580007430840083137E2BA212A11BD12A201C5D
:10059000DC2AA60CA50CA40CA30CF70A0319642BE7
:1005A000DC2AA61BDF2A0310A30DA40DA50DA60DA2
:1005B000F7030319642BD12AA217092BA21372087F
:1005C000A100A11FE52AA6175D2BA6135D2B7208BB
:1005D000A600A6177308A5007408A400A11FF42A9A
:1005E000A6132215692B2211A3012010703084005C
:1005F00083137E2BA11B1F2B83126E088316A10071
:10060000201C092BA60CA50CA40CA30CF70A03199B
:10061000642BA31F1A2BA40A031D1A2BA50A031D62
:100620001A2BA60A031D1A2BA60CA50CA40CF70A5C
:100630000319642B221B942AA21BDE2A402B803034
:10064000A606A61F272B692B7208A100362B831242
:100650006E088316A100A608031D362BA508031DEE
:10066000362BA408031D362BF7015D2BA61B402B50
:100670000310A30DA40DA50DA60DF70B362B642BAF
:10068000A11F442BA6175D2BA6135D2B83127108A7
:10069000F70072088316A6007308A5007408A4006A
:1006A0005D2B83126D08F7006E088316A600831277
:1006B0006F088316A5007008A4002608F800250816
:1006C000F9002408FA009C2BF701F801F901FA015E
:1006D0009C2BA301A409A509A609A309A30A031D2C
:1006E000772BA40A031D772BA50A0319A60A221843
:1006F000732AA218BD2A2219F32A242B0008A40762
:10070000031C882BA50A031D882BA60A0319201495
:1007100084030008A507031C902BA60A03192014C4
:1007200084030008801F803AA60703182014221AA9
:100730007A2AA21AC42AFA2A831208006808013AFF
:100740000319A92B033A0319E52B013A0319E02CED
:100750006B2DFC012A08FB00A2212F30FE00DD30AA
:10076000FD005A30FC008130FB007A088316A3009C
:100770007908A2007808A1007708A0008312BF21A1
:100780007708E9007808EA007908EB007A08EC00BD
:1007900083107A08F0007908EF007808EE007708F7
:1007A000ED005630F4008E30F3003730F200843024
:1007B000F10045227A08B9007908B8007808B70036
:1007C0007708B6000430D8006B2DFC012A08FB0026
:1007D000A221C330FE006430FD002A30FC007630D8
:1007E000FB007A088316A3007908A2007808A1000C
:1007F0007708A0008312BF217708E9007808EA0093
:100800007908EB007A08EC00FC012A08FB00A22121
:100810006C08FE006B08FD006A08FC006908FB001C
:100820007A088316A3007908A2007808A100770847
:10083000A0008312BF217708E9007808EA00790850
:10084000EB007A08EC00FC012A08FB00A2216C08EE
:10085000FE006B08FD006A08FC006908FB007A08CE
:100860008316A3007908A2007808A1007708A000E9
:100870008312BF217708E9007808EA007908EB00C5
:100880007A08EC00FC012A08FB00A2211230FE00CD
:100890008330FD002030FC007E30FB007A08831698
:1008A000A3007908A2007808A1007708A0008312AD
:1008B000BF217708ED007808EE007908EF007A088C
:1008C000F000FC012A08FB00A2217008FE006F085E
:1008D000FD006E08FC006D08FB007A088316A3007B
:1008E0007908A2007808A1007708A0008312BF2130
:1008F00083146C08F0006B08EF006A08EE006908CA
:10090000ED007A08F4007908F3007808F20077081F
:10091000F10045227708E9007808EA007908EB0041
:100920007A08EC00FC012A08FB00A2219C30FE00A2
:100930004430FD004E30FC008430FB007A08831602
:10094000A3007908A2007808A1007708A00083120C
:10095000BF2183106C08F0006B08EF006A08EE00FE
:100960006908ED007A08F4007908F3007808F200CD
:100970007708F10045227708E9007808EA0079084D
:10098000EB007A08EC0083147A08F0007908EF0095
:100990007808EE007708ED00C330F400D530F3009E
:1009A0006930F2008830F10045227A08B9007908F0
:1009B000B8007808B7007708B6000A30D8006B2D69
:1009C000FC012A08FB00A2214E30FE00D130FD00C0
:1009D0009130FC007A30FB007A088316A300790876
:1009E000A2007808A1007708A0008312BF21770831
:1009F000E9007808EA007908EB007A08EC00FC01CD
:100A00002A08FB00A2216C08FE006B08FD006A08A2
:100A1000FC006908FB007A088316A3007908A2008D
:100A20007808A1007708A0008312BF217708E900A9
:100A30007808EA007908EB007A08EC00FC012A0843
:100A4000FB00A2210E30FE002D30FD00FC018330A2
:100A5000FB007A088316A3007908A2007808A10099
:100A60007708A0008312BF2183106C08F0006B0888
:100A7000EF006A08EE006908ED007A08F4007908D2
:100A8000F3007808F2007708F10045227708E900C2
:100A90007808EA007908EB007A08EC0083147A08F9
:100AA000F0007908EF007808EE007708ED0071306B
:100AB000F400ED30F3003630F2008830F1004522CA
:100AC0007A08B9007908B8007808B7007708B60046
:100AD0000530D8006B2D3908EC003808EB003708DA
:100AE000EA003608E9008E30F7006908F7026A0864
:100AF000F9006B08F800F917F70803198A2D03109D
:100B0000F908031D862DF80803198A2DF90CF80C35
:100B1000F70B7F2DEA1F912DF809F909F80A03193F
:100B2000F90A7908B5007808B4003508FC003408E3
:100B3000FB00A22183143908F0003808EF003708C1
:100B4000EE003608ED007A08F4007908F300780822
:100B5000F2007708F10045227708E9007808EA00FA
:100B60007908EB007A08EC00F001EF01EE017E302D
:100B7000ED006C08F4006B08F3006A08F2006908E5
:100B8000F1006E08F5007208F506F51FCC2D031173
:100B90000310EE1B0314FF2D6E08F5007108F6001C
:100BA0006D08F6020319DA2DF51FFF2D0308013A2F
:100BB0008300FF2D7208F6006E08F6020319E62D79
:100BC000F51FFF2D0308013A8300FF2D7308F6007F
:100BD0006F08F6020319F22DF51FFF2D0308013AE5
:100BE0008300FF2D7408F6007008F6020319FE2D2D
:100BF000F51FFF2D0308013A8300FF2D0310031892
:100C0000032E031D072E0130B4070318B50A2A0866
:100C1000AB000800F801F901F701FA016E08031DA5
:100C2000142E6D0803192E2E1030EF000310EB0D5B
:100C3000EC0DF70DFA0D6E087A02031D212E6D08DA
:100C40007702031C2A2E6D08F702031CFA036E08B4
:100C5000FA020314F80DF90DEF0B162E08006A08BE
:100C6000F80169020318372E6908F700432EF701CF
:100C70000830EB00E90DF70D6A0877020318F7005A
:100C8000F80DEB0B3A2E08001030EF00F701FA01D7
:100C9000EC0CEB0C031C522E6D08F7070318FA0A34
:100CA0006E08FA07FA0CF70CF90CF80CEF0B482E4B
:100CB00008001F151F195A2E83161E088312AC0038
:100CC0001E08AD00F33081000430CB07CB08031DB4
:100CD000CE2E0230E800F7207808D700D708031D91
:100CE0007E2E0330E800F7207808D600D608031DD2
:100CF0007E2E0430E800F7207808D4005308CC009A
:100D00004D084C020318CE2E0630E8004C08E900CE
:100D100037217808053EE800EA016808E9005C210F
:100D200078085702031DCC2E0630E8004C08E90075
:100D300037217808043EE800EA016808E9005C21F0
:100D400078085602031DCC2E0630E8004C08E90056
:100D500037217808033EE800EA016808E9005C21D1
:100D600078085402031DCC2E0630E8004C08E90038
:100D700037217808E800EA017808E9005C21780862
:100D8000AA004E304C0784008313800153084C02A4
:100D9000031DCC2E0130D307CC0A802E2B082A024B
:100DA0000319EF2E2A083C3C031CD92E0130E80021
:100DB0009E232A083C3C0318E42E2A08633C031CAB
:100DC000E42E0230E8009E232A08633C0318EF2E2D
:100DD0002A08B43C031CEF2E0330E8009E2334089D
:100DE0002C02031DF72E35082D020319B32F3508E9
:100DF0002D02031C0C2F031D012F2C083402031895
:100E00000C2F681434082C02AE002D08AF003508F2
:100E1000031C350FAF02162F68102C083402AE00E9
:100E20003508AF002D08031C2D0FAF0229086806F6
:100E3000013903191F2FB1010130B000622F0330B7
:100E4000EC00FF30EB00EE015808ED000A267908AF
:100E5000FA002F087A02031C622F031D332F780833
:100E60002E020318622FC830E9005808EA002F2626
:100E7000EC017808EB003108EE003008ED00442664
:100E80007908EA007808E9002E08E9072F08031816
:100E90002F0FEA076A08EC006908EB00EE0158081A
:100EA000ED0044267908EA007808E9007908EC00AA
:100EB0007808EB00EE01C830ED000A267908B10091
:100EC0007808B0002F08EC002E08EB00EE0158085F
:100ED000ED00442630087807B2007908B3003108E5
:100EE0000318310FB3073308033C03187B2F03307B
:100EF000B300FF30B200681C922F87103308F9004E
:100F00003208F800F90CF80CF90CF80CF90C780818
:100F10009500F90C790C3039F7001708CF397704B0
:100F20009700AB2F87143208FF3CE9000330EA003A
:100F30003308031C330FEA02EA0CE90CEA0CE90C53
:100F4000EA0C69089500EA0C6A0C3039F7001708BA
:100F5000CF3977049700291068182914091DB22F7A
:100F60000911B32F09150B118A110A121F280C1031
:100F700020102028F2376739E13661100A28E13A5B
:100F8000EC37A0322010CD30F234613761000C1004
:100F90002010C430F430A020F43A61363A000C102E
:100FA0002010C837F230A020F43A61363A008C1194
:100FB00020382F10CE37F637A020EE3375366F0568
:100FC000201020102519781D2519781D2519781055
:100FD000201020000C246F396139E937A020EE334E
:100FE00075366F1025323A000C10D630EC3772107F
:0C0FF0004137E73AEC37A012641D000105
:101000000A10201020102010A53A00018C11203861
:101010002F10CE37F637A020EE3375366F0520102F
:10102000A53A2710A012323CBA12323CBA12323C16
:101030000000603084008313000803192D2801305C
:10104000F800F701F70B2228F80B21284A30F700A7
:10105000F70B28282B28800B1F280800670EF03973
:10106000F7000F300805770488000000891438283D
:10107000891008000910641C091064180914000084
:10108000091100008910650EE6000F30E6056608BC
:10109000E7002E2065080F39E600E7002E20080043
:1010A0008316091089100911003088008312091075
:1010B000091189100F30E00019200130D9005908BA
:1010C000033C031C6B280330E7002E200530E000B2
:1010D0001920D90A5F280230E7002E20D9015908CB
:1010E000033C031C7E2859088A1136208A15DA0031
:1010F000E4015A08E5003A20D90A6F288A110A1635
:1011000070285F080C3A03198C28063A03199428B2
:10111000023A0319AA28AF28E4010130E5003A2079
:101120000230E0001920B5280130E0000230E10073
:10113000610B9B289E284030E2009F28E20101308D
:101140006002E20762088038E300E4016308E5001A
:101150003A20B528E4011030E5003A20B5280130E6
:10116000E4005F08E5003A20B5280800831603175D
:101170008C170C140000000083120C087F3903192F
:10118000FA280313D90003170D080313DA00031715
:101190000F080313DB005908DF0081205A080317EA
:1011A0008D0003135B0803178F0083168C170C1434
:1011B0000000000083120C0D0E0D7F390319FA2870
:1011C0000313D90003170D080313DA0003170F08E0
:1011D0000313DB005908DF0081205A0803178D0034
:1011E00003135B0803178F008D0A03198F0A03137B
:1011F000B628031703130800BB0803194629C83093
:10120000E00019203B08EF3C031C45290430BE00D8
:101210003E08073C031C1D293B08F7003E08F80068
:10122000031916290310F70CF80B122977181B293C
:101230003E08BD001D29BE0A0829BE013E08023C29
:10124000031C45293B08F7003E08F80003192C2928
:101250000310F70CF80B28297718432904303D02B6
:10126000DA00A7018B1BA7178B135A08E80003307D
:10127000E9008A1137218A15A71B8B173E087807CA
:10128000013EBD004529BE0A1E29BB01861F5C29FF
:10129000061F5C29861E5C29061E5C290619532937
:1012A000061006155C2986185829061186145C2933
:1012B00006185C29861006140800831603178C177D
:1012C0000C140000000003188C2983120C087F39CD
:1012D0000313DB0003170D080313DC0003170F08CB
:1012E0000313DD005B08DF0081205C0803178D001D
:1012F00003135D0803178F0083168C170C1400006E
:10130000000083120313DA0B862989298316031739
:101310008C29AB298316031783120C0D0E0D7F3910
:101320000313DB0003170D080313DC0003170F087A
:101330000313DD005B08DF0081205C0803178D00CC
:1013400003135D0803178F008D0A03198F0A03101A
:101350000313DA0B5D290800DB1BBE290F30F700F1
:101360005A0EF7050A3077020318B9293030F7070B
:10137000BB295B08F7077708DF0081200F30DA050B
:101380000A305A020318C6293030C829DB135B081B
:10139000DA075A08DF0081200800831607160000CC
:1013A00087150000831207128316071200008312AC
:1013B0008711831687118312A7018B1BA7178B1325
:1013C000A030F4008A1190208A15A71B8B17A70163
:1013D0008B1BA7178B136008F4008A1190208A15C5
:1013E000A71B8B17A7018B1BA7178B136108F40092
:1013F0008A1190208A15A71B8B17831607120000ED
:1014000087158312871D022A0000062A0000831612
:101410000716000007160000871500008312071248
:101420008316071200008312871183168711831217
:10143000A7018B1BA7178B13A030F4008A119020F3
:101440008A15A71B8B177808621078186214621C23
:101450004A2A831607160000871500008312871D8D
:101460002F2A071283160712000083128711831692
:1014700087118312A7018B1BA7178B13A030F400D1
:101480008A1190208A15A71B8B177808621078188C
:101490006214272A08004808003A0319562A013A1C
:1014A0000319962A033A03190C2BFA2B67300317FA
:1014B0008D0000308F0003100B300313DA005D2124
:1014C0004708DA005730DB00AC21BD080319952A24
:1014D000D901DA014708DA003D080A3A0319772AE8
:1014E000013A03197A2A073A03197B2A842AC70189
:1014F000BD01952A862A5A08C700C9014718C9178D
:101500000130C800BD01952A3D08D9005A08093CA0
:1015100003188D2A5908C700942A5A0EF700F03094
:10152000F70577085907C700BD01FA2BBD08031955
:10153000E12AD901DA014608DA003D080A3A03191E
:10154000A82A013A0319B12A073A0319B22AC52A6F
:10155000C6080319AD2AC601AF2A0130C802BD0171
:10156000E12AC72A5A08C600DA08031DBC2AD9088E
:10157000031DBC2A0130C6000230C8000630E0005E
:101580004608E100CD21BD01E12A3D08D9005A08F5
:10159000013C0318CD2A5908C6005A0EF700F03056
:1015A000F70577085907123C0318D92A5908C600CD
:1015B000E02A5A0EF700F030F70577085907C60001
:1015C000BD01C608031DF42A6E3003178D000030DC
:1015D0008F0003100C300313DA005D214708DA0096
:1015E0005730DB00AC210B2B763003178D00003019
:1015F0008F00031009300313DA005D214608DA007A
:101600005730DB00AC212F30DF0081204708DA00A3
:101610005730DB00AC21FA2BBD080319BF2BD901D1
:10162000DA014508DA003D080A3A03191E2B013A8F
:101630000319272B073A0319282B3E2BC50803193A
:10164000232BC501252B0130C802BD01BF2B402B28
:101650005A08C500DA08031D322BD908031D322BA6
:101660000130C5000330C80049084507DB000530DC
:10167000E0005B08E100CD21BD01BF2B3D08D90092
:101680005A08033C0318472B5908C500BE2B460BCC
:101690004A2B622B4608033C0319622B4608053C83
:1016A0000319622B4608073C0319622B4608083CC5
:1016B0000319622B4608103C0319622B4608123CA2
:1016C000031D6F2B5A0EF700F030F7057708590706
:1016D000313C03186F2B5908C500BD01BF2B4608CC
:1016E000043C03197F2B4608063C03197F2B460850
:1016F000093C03197F2B4608113C031D8C2B5A0E05
:10170000F700F030F70577085907303C03188C2BA9
:101710005908C500BD01BF2B4608023C031DA12B83
:10172000C91BA12B491BA12B5A0EF700F030F7055E
:1017300077085907293C0318A12B5908C500BD019A
:10174000BF2B4608023C031DB72BC91BA92B491F01
:10175000B72B5A0EF700F030F70577085907283CE9
:101760000318B72B5908C500BD01BF2BBE2B5A0E5D
:10177000F700F030F70577085907C500BD01C50827
:10178000031DDA2B7E3003178D0000308F0003100D
:1017900009300313DA005D214608DA005730DB0018
:1017A000AC212F30DF0081204708DA005730DB0002
:1017B000AC21F92B873003178D0000308F00031008
:1017C00006300313DA005D214508DA005730DB00EC
:1017D000AC212F30DF0081204608DA005730DB00D3
:1017E000AC212F30DF0081204708DA005730DB00C2
:1017F000AC21FA2B8A110A16A828831607160000B6
:101800008715000083120712831607120000831247
:101810008711831687118312A7018B1BA7178B13C0
:10182000AE30F4008A1190208A15A71B8B1761082F
:10183000E400E501A7018B1BA7178B136108F400D7
:101840008A1190208A15A71B8B17A7018B1BA7173E
:101850008B136008F4008A1190208A15A71B8B1740
:10186000A7018B1BA7178B136208F4008A11902025
:101870008A15A71B8B178316071200008715831282
:10188000871D402C0000442C000083160716000022
:10189000071600008715000083120712831607122F
:1018A000000083128711831687118312A7018B1BF7
:1018B000A7178B13AE30F4008A1190208A15A71B4E
:1018C0008B177808631078186314631C882C8316B0
:1018D00007160000871500008312871D6D2C071264
:1018E0008316071200008312871183168711831253
:1018F000A7018B1BA7178B13AE30F4008A11902021
:101900008A15A71B8B177808631078186314652C49
:1019100008004A08003A0319942C013A03190B2DC8
:10192000033A0319A12D352E4E3003178D000030D8
:101930008F00031005300313DA005D214108DA003F
:101940005730DB00AC21513003178D0000308F0081
:10195000031406300313DA005D21BD0803190A2DB4
:101960005908DA00DB01DC01C1080319B92C410870
:10197000DC003D080A3A0319C42C013A0319C72CAC
:10198000073A0319C82CEC2CC101BD010A2DEE2C1D
:101990005C08C1000130CA005A0BD42C0430E000AE
:1019A0004108E100CD21EA2CA7018B1BA7178B135F
:1019B0000630E8004C08E9008A1137218A15A71B78
:1019C0008B177808033EDD00E1015D08E000410867
:1019D000E200FD23BD010A2D3D08DB005C08103C40
:1019E0000318F62C5C08203C031DFF2C5C0EF7004E
:1019F000F030F70577085B07233C0318022D5B08DE
:101A0000C100092D5C0EF700F030F70577085B0781
:101A1000C100BD01352E553003178D0000308F00F9
:101A2000031006300313DA005D214108DA00573055
:101A3000DB00AC213A30DF0081204308DA00573068
:101A4000DB00AC213A30DF0081205F30DF008120F5
:101A50005F30DF008120BD080319A02D0230DA00BD
:101A60005908DB00DC01DD01C3080319392D4308E7
:101A7000DD003D080A3A0319442D013A03194D2DA2
:101A8000073A03194E2D762DC3080319492DC301BA
:101A90004B2D0130CA02BD01A02D782D5D08C30079
:101AA0005A08CA005B0B5C2D5A08053CDE00E000BA
:101AB0004308E100CD21742D02305A07DE00A70152
:101AC0008B1BA7178B130630E8004C08E9008A111E
:101AD00037218A15A71B8B177808DE07E1015E08FE
:101AE000E0004308E200FD23BD01A02D3D08DC001D
:101AF0005D08103C03188C2D5D08203C03198C2DCB
:101B00005D08303C03198C2D5D08403C03198C2D79
:101B10005D08503C031D952D5D0EF700F030F70574
:101B200077085C07593C0318982D5C08C3009F2D6B
:101B30005D0EF700F030F70577085C07C300BD01C4
:101B4000352E5E3003178D0000308F0003100630F5
:101B50000313DA005D214108DA005730DB00AC21C5
:101B60003A30DF0081204308DA005730DB00AC2137
:101B70003A30DF0081204408DA005730DB00AC2126
:101B8000BD080319352E0330DA005908DB00DC01EB
:101B9000DD01C4080319CE2D4408DD003D080A3AD2
:101BA0000319D92D013A0319E22D073A0319E32D40
:101BB0000B2EC4080319DE2DC401E02D0130CA022A
:101BC000BD01352E0D2E5D08C4005A08CA005B0BFE
:101BD000F12D5A08053CDE00E0004408E100CD216B
:101BE000092E02305A07DE00A7018B1BA7178B13A3
:101BF0000630E8004C08E9008A1137218A15A71B36
:101C00008B177808DE07E1015E08E0004408E20077
:101C1000FD23BD01352E3D08DC005D08103C031896
:101C2000212E5D08203C0319212E5D08303C03194C
:101C3000212E5D08403C0319212E5D08503C031DF8
:101C40002A2E5D0EF700F030F70577085C07593C47
:101C500003182D2E5C08C400342E5D0EF700F03002
:101C6000F70577085C07C400BD0108007808A701E4
:101C70008B1BA7178B135908E9006430EA008A11FF
:101C80002F268A15A71B8B177708D90078083030C4
:101C9000031D512EDA1C582EDA19582E5A1A2030EC
:101CA000542EDA115A125A14F8077808DF008120EE
:101CB000A7018B1BA7178B135908E9000A30EA000C
:101CC0008A112F268A15A71B8B177708D900780849
:101CD0003030031D712EDA19752E5A1C752E5A1AC2
:101CE0002030F8077808DF0081203030D907590804
:101CF000DF008120080020305A1E3030DB005908F8
:101D0000F700D91F8A2EF709F70A7708D9002D3076
:101D1000DB00DA177808A7018B1BA7178B1359086C
:101D2000E9006430EA008A112F268A15A71B8B1759
:101D30007708D90030307807DC00A7018B1BA71784
:101D40008B135908E9000A30EA008A112F268A15F8
:101D5000A71B8B1730307707DE0030307807DD00A7
:101D60005B08F700DA1DB62EDA1F5A115A1AC32E75
:101D7000DA1FDE2E5A19DE2E7708DC00DA18DE2E86
:101D80007708DD00DE2E30305C02031DDE2E770882
:101D9000DC002030DB00DA1DD12E5A11DA14DA1FF4
:101DA000DA1030305D02031DDE2E7708DD002030B2
:101DB000DC00DA1DD12EDA10DA1F5A105A1DE32E7C
:101DC0005B08DF008120DA1CE82E5C08DF00812040
:101DD0005A1CED2E5D08DF0081205E08DF008120A7
:101DE00008003D080A3A0319FC2E013A0319FF2E98
:101DF000073A0319012F1E2FC201BA01472FBD0157
:101E00001E2FA7018B1BA7178B134C08E800063069
:101E1000E9008A1137218A15A71B8B177808D9008A
:101E2000E1017808E0004208E200FD230130CC0720
:101E3000BD01C201C0010530BF00472FC208031910
:101E4000332FA7018B1BA7178B134208E8000A301A
:101E5000E9008A1137218A15A71B8B173D087807DF
:101E6000B43C0318362F3D08C200462FA7018B1B38
:101E7000A7178B134208E8000A30E9008A113721BE
:101E80008A15A71B8B173D087807C200BD018A1170
:041E90000A16D6292F
:10200000840183131F308305FF30A8002914AA011F
:10201000B501B401BB01C101C201C301C401C501C5
:10202000C601C701C801C901CA01CB01CC01CD015C
:10203000D301D401D501D601D70183161F149F14F3
:102040001F159F1107309C008312CE01CF01D001D4
:10205000D101D201023083168500F83086000030AD
:1020600087000910891009118312860189018316DE
:102070008113831205168801AA010A30AB0083166A
:102080001F109F101F159F111F1383121F179F13DF
:1020900083169F1783121F140830F8001F08C739D2
:1020A00078049F002130F700F70B542807110C30FB
:1020B00097000030F80004389200FF308316920039
:1020C0000108C039063881002130F700F70B662877
:1020D000C03083128B048B158B160A128A15502878
:1020E0000A168A110A30E0000A128A1519200A1607
:1020F0008A11B73003178D0007308F000A128A1536
:102100000313B6200A168A11BB01BE010430D900A0
:10211000FA30E0000A128A1519200A168A11D90B22
:102120008828C73003178D0007308F000A128A15E0
:102130000313B6200A168A114808033C0319AB287A
:102140000A128A15FC200A168A110A128A154B2ACD
:102150000A168A119C28CF3003178D0007308F0094
:102160000A128A150313B6200A168A114A08033C7C
:102170000319C7280A128A15FC200A168A11013091
:10218000D9000A128A1589240A168A11B628BD01B7
:10219000D73003178D0007308F000310163003135C
:1021A000DA000A128A155D210A168A115408DA002B
:1021B0005730DB000A128A15AC210A168A113A3010
:1021C000DF000A128A1581200A168A115608DA00E1
:1021D0005730DB000A128A15AC210A168A113A30F0
:1021E000DF000A128A1581200A168A115708DA00C0
:1021F0005730DB000A128A15AC210A168A11E73023
:1022000003178D0007308F00031404300313DA0026
:102210000A128A155D210A168A11CB08031D6C2942
:102220000A30DF000A128A1581200A168A1120302E
:10223000DF000A128A1581200A168A112030DF0079
:102240000A128A1581200A168A112A08D9001B3021
:10225000DA000A128A1536260A168A112730DF009C
:102260000A128A1581200A168A112030DF000A120C
:102270008A1581200A168A112030DF000A128A1579
:1022800081200A168A115408DA005730DB000A123E
:102290008A15AC210A168A113A30DF000A128A1513
:1022A00081200A168A115608DA005730DB000A121C
:1022B0008A15AC210A168A113A30DF000A128A15F3
:1022C00081200A168A115708DA005730DB000A12FB
:1022D0008A15AC210A168A110A128A15FC200A16E0
:1022E0008A113D080C3C031D572ACA01EA30031726
:1022F0008D0007308F00031010300313DA000A122C
:102300008A155D210A168A114D08D9001F30DA009E
:102310000A128A157B260A168A113A30DF000A1241
:102320008A1581200A168A114A08033C0319A42938
:102330000A128A15FC200A168A11D9010A128A1576
:1023400089240A168A119429F43003178D00073066
:102350008F0003100F300313DA000A128A155D2173
:102360000A168A114D08D9001F30DA000A128A15A0
:102370007B260A168A113A30DF000A128A1581205C
:102380000A168A11C001BF01C008031DFE293F08BB
:10239000023C031CFE290A128A15FC200A168A1127
:1023A000BD080319F6290A128A15F12E0A168A1198
:1023B000003003178D0008308F000310083003131E
:1023C000DA000A128A155D210A168A114208D9001C
:1023D0001B30DA000A128A1536260A168A110A30CC
:1023E000E0000A128A1519200A168A113F080319FB
:1023F000C003BF03BF0A0319C00AC429C001BF013B
:102400000130CD07063003178D0008308F00031010
:1024100014300313DA000A128A155D210A168A1194
:102420002A08D9001B30DA000A128A1536260A1645
:102430008A112730DF000A128A1581200A168A11B4
:102440002030DF000A128A1581200A168A112030F6
:10245000DF000A128A1581200A168A115408DA0050
:102460005730DB000A128A15AC210A168A113A305D
:10247000DF000A128A1581200A168A115608DA002E
:102480005730DB000A128A15AC210A168A113A303D
:10249000DF000A128A1581200A168A115708DA000D
:1024A0005730DB000A128A15AC210A168A110D2951
:0224B0006300C7
:02400E00713F00
:00000001FF
;PIC16F877A
;CRC=854D  CREATED="28-jun-12 16:03"
