:10000000000008308A000028FF00030E8301A100D1
:100010000A08A0008A010408A2007708A300780853
:10002000A4007908A5007A08A600831383128B1D0B
:100030001B280B1830288B1E1F280B193328220869
:1000400084002308F7002408F8002508F900260892
:10005000FA0020088A00210E8300FF0E7F0E09009F
:100060008A110A123E288A110A124E280A108A1092
:100070000A11820728340C34013406343908BA00D6
:100080000608B9003908F03C031848283A08B900B6
:100090000030F8000B108A110A121F281F151F19B3
:1000A0004F2883161E088312AA001E08AB00F630E4
:1000B00081000B118A110A121F280C2B61366F392F
:1000C000A0126C320A22E539E330723A6132EF1045
:1000D00000000C2B61366F39A01275054937F332D9
:1000E000F234E43721000C2B61366F39A0126C32E8
:1000F00020336F396105E43720396137E732210059
:100100000C105039EF33F230ED302005A02965395D
:10011000F637A0366F3A6F390000493084008313F8
:1001200000080319A1280130F800F701F70B962801
:10013000F80B95284A30F700F70B9C289F28800B76
:1001400093280800500EF039F7000F3008057704A7
:10015000880000008914AC288910080009104D1C83
:1001600009104D18091400000911000089104E0EE5
:10017000CF000F30CF054F08D000A2204E080F3916
:10018000CF00D000A22008008316091089100911A1
:100190000030880083120910091189100F30C9003E
:1001A0008D200130BF003F08033C031CDF280330D3
:1001B000D000A2200530C9008D20BF0AD32802300C
:1001C000D000A220BF013F08033C031CF0283F08D9
:1001D0003620C000CD014008CE00AE20BF0AE32883
:1001E0008A150A12522848080C3A0319FE28063AC2
:1001F00003190629023A03191D292229CD010130CC
:10020000CE00AE200230C9008D2028290130C9005F
:100210000230CA004A0B0D2910294030CB001129A9
:10022000CB0101304902CB074B088038CC00CD010F
:100230004C08CE00AE2000002829CD011030CE00A1
:10024000AE2028290130CD004808CE00AE20282954
:100250000800831603178C170C140000000083128B
:100260000C087F3903196D290313BF0003170D080C
:100270000313C00003170F080313C1003F08C80091
:10028000F320400803178D000313410803178F0064
:1002900083168C170C140000000083120C0D0E0D39
:1002A0007F3903196D290313BF0003170D080313CA
:1002B000C00003170F080313C1003F08C800F32054
:1002C000400803178D000313410803178F008D0AA0
:1002D00003198F0A03132929031703138A150A1216
:1002E0006028831603178C170C14000000000318F5
:1002F000A02983120C087F390313C00003170D08CF
:100300000313C10003170F080313C2004008C800FD
:10031000F320410803178D000313420803178F00D1
:1003200083168C170C140000000083120313BF0BFC
:100330009A299D2983160317A029BF29831603171D
:1003400083120C0D0E0D7F390313C00003170D0827
:100350000313C10003170F080313C2004008C800AD
:10036000F320410803178D000313420803178F0081
:100370008D0A03198F0A03100313BF0B712908009C
:10038000C7010408C6004710831B4714C01FD029AB
:10039000C617461EC60ABF09C009BF0A0319C00A0C
:1003A000400EF038C200C207E23EC300323EC50034
:1003B00040080F39C307C307C507E93EC400C40797
:1003C000C4073F0E0F39C407C507C40DC50DC509C5
:1003D000C50D3F080F39C507C20D0730C1000A30EF
:1003E000C507C403031CF029C407C303031CF42975
:1003F000C307C203031CF829C207C103031CFC295D
:1004000041308400831307304605461384034605B4
:10041000031D112A461A840A461A112A2030F700B1
:100420002E2A840745300402031946170008F700F6
:10043000031D222A461B222A461A3C2AC619222AB2
:1004400020302D2AC61F2A2A2D30F7008403461398
:10045000C6132E2AC61546123030F707C00104080D
:10046000BF004010831B40147708C800F3203F08EA
:100470008400831340188317840A461F122A080039
:100480004608F80145020318482A4508F700542A8F
:10049000F7010830C700C50DF70D460877020318AD
:1004A000F700F80DC70B4B2A08001030C400F70105
:1004B000FA01C10CC00C031C632A4208F707031899
:1004C000FA0A4308FA07FA0CF70CF90CF80CC40BFB
:1004D000592A08000430BC003C08073C031C812A50
:1004E0003908F7003C08F80003197A2A0310F70CC2
:1004F000F80B762A77187F2A3C08BB00812ABC0AB1
:100500006C2ABC013C08023C031CC42A3908F700D1
:100510003C08F8000319902A0310F70CF80B8C2AFA
:100520007718C22A04303B02C0004008C1000330E3
:10053000C200F701F801410803104218F707F70C51
:10054000F80CC218F707F70CF80C4219F707F70C6C
:10055000F80CC219F707F70CF80C421AF707F70C5A
:10056000F80CC21AF707F70CF80C421BF707F70C48
:10057000F80CC21BF707F70CF80C3C087807013E93
:10058000BB00C42ABC0A822A3B080A3A0319CF2AB4
:10059000063A0319EF2A073A0319462B472BBE01E7
:1005A0002808BD00B8015D3003178D0000308F00B2
:1005B000031007300313BF007121103084003E0880
:1005C000C0003D08BF00C021623003178D0000301D
:1005D0008F0003100C300313BF007121072C3D085E
:1005E0002802031DF62ABE080319072C3D08A8009F
:1005F000B801693003178D0000308F0003100730F9
:100600000313BF0071212808BF001B30C0003F0842
:10061000C5006430C60040227708BF00780830303B
:10062000031D192BC01C202BC019202B401A203071
:100630001C2BC01140124014F8077808C800F320A2
:100640003F08C5000A30C60040227708BF0078087E
:100650003030031D312BC019352B401C352B401A6F
:100660002030F8077808C800F3203030BF073F0873
:10067000C800F32000006D3003178D0000308F009C
:1006800003140A300313BF007121072CBB01B80803
:10069000031DC22BBE013B08BD00BD08031D532B2B
:1006A000BE080319552B0130B8000C30C800F320E8
:1006B0003B08BF001F30C0002030401E3030C1005A
:1006C0003F08F700BF1F6B2BF709F70A7708BF0039
:1006D0002D30C100C0173F08C5006430C60040225D
:1006E0007708BF0030307807C2003F08C5000A30E5
:1006F000C600402230307707C40030307807C3008E
:100700004108F700C01D862BC01F4011401A932BD3
:10071000C01FAE2B4019AE2B7708C200C018AE2BFD
:100720007708C300AE2B30304202031DAE2B770892
:10073000C2002030C100C01DA12B4011C014C01F39
:10074000C01030304302031DAE2B7708C3002030A9
:10075000C200C01DA12BC010C01F4010401DB32BF4
:100760004108C800F320C01CB82B4208C800F32081
:10077000401CBD2B4308C800F3204408C800F320E8
:100780000000DD2B3E08C1003D08C000C3010A3057
:10079000C20055223B087807BD007908BE00031847
:1007A000BE0A0130B8070C30C800F32010308400B6
:1007B0003E08C0003D08BF00C021BE08031DE82B55
:1007C0003D08B43C031CE82B3808033C0318072CF5
:1007D000733003178D0000308F00031007300313B0
:1007E000BF007121103084003E08C0003D08BF00EA
:1007F000C021783003178D0000308F0003100F30B8
:100800000313BF007121BE012808BD00B801BB0160
:10081000B9018A150A1289288E30F7004908F800B4
:100820004808F900FA01F808031D202C7908F8009F
:10083000F9010830F702F808031D202CF701282CD5
:100840000310F81B272CF90DF80DF703202CF813D3
:10085000080048080319992CD0004C080319992C5A
:10086000D00703183A2C7F30D002031C992C0319AF
:10087000992C3E2C8130D0070318992C5008F70092
:10088000F801F901FA014908D400D4174A08D30045
:100890004B08D2001830D000D101521C672C4F08F1
:1008A000FA07031C592CF90A031D592CF80A0319DD
:1008B000D1174E08F907031C602CF80A0319D11749
:1008C0004D08CA00CA174A08F8070318D117D10DF6
:1008D000F80CF90CFA0CD40CD30CD20C0310D00B7E
:1008E0004C2C0130F7070318992CF81B7E2CD40DE3
:1008F000FA0DF90DF80DF7030319992CD41F8F2C5D
:10090000FA0A031D8F2CF90A031D8F2CF80A031D08
:100910008F2CF80CF90CFA0CF70A0319992C4908DA
:10092000D1004D08D106D11F972CF8179D2CF81334
:100930009D2CF701F801F901FA01080080308318B5
:10094000C906CE01CF014508CD004908CD064408AF
:1009500003198E2DCC00F70048080319972DCC02FF
:100960000319332D031CF12C4908D200D2174A0871
:10097000D1004B08D000CF010310D20CD10CD00C09
:10098000CF0CCC0BBB2CCD1FC82C4E14AB2D4E1056
:100990004C104E16473084008313C02D4E12CD1BD1
:1009A000DB2C4C1CE62CD20CD10CD00CCF0CF70A53
:1009B0000319A62DE62CD21BE92C0310CF0DD00D68
:1009C000D10DD20DF7030319A62DDB2C4E17532D95
:1009D0004E134508CD00CD1FEF2CD2179F2DD213FB
:1009E0009F2D4808CC00F7004408CC024508D200EF
:1009F000D2174608D1004708D000CF010310D20C0F
:100A0000D10CD00CCF0CCC0BFD2CCD1F0A2DCE144D
:100A1000AB2DCE104C10CE164B3084008313C02D5E
:100A2000CE12CD1B1D2D4C1C282DD20CD10CD00C60
:100A3000CF0CF70A0319A62D282DD21B2B2D03103E
:100A4000CF0DD00DD10DD20DF7030319A62D1D2DFD
:100A5000CE17532DCE134908CD00CD1F312DD217FF
:100A60009F2DD2139F2D4908D200D2174A08D100DA
:100A70004B08D000CD1F402DD2134E15AB2D4E117B
:100A8000CF014C10473084008313C02DCD1B692D3E
:100A90004508CD004C1C532DD20CD10CD00CCF0CE2
:100AA000F70A0319A62DCF1F642DD00A031D642D4C
:100AB000D10A031D642DD20A031D642DD20CD10C62
:100AC000D00CF70A0319A62D4E1BE82CCE1B2A2D9D
:100AD000882D8030D206D21F712DAB2D4908CD0054
:100AE0007E2D4508CD00D208031D7E2DD108031DA3
:100AF0007E2DD008031D7E2DF7019F2DD21B882D42
:100B00000310CF0DD00DD10DD20DF70B7E2DA62DDC
:100B1000CD1F8C2DD2179F2DD2139F2D4808F70083
:100B20004908D2004A08D1004B08D0009F2D440844
:100B3000F7004508D2004608D1004708D000520807
:100B4000F8005108F9005008FA00DE2DF701F8010D
:100B5000F901FA01DE2DCF01D009D109D209CF095F
:100B6000CF0A031DB92DD00A031DB92DD10A0319CF
:100B7000D20A4E18C72CCE18092D4E193F2D6E2DB6
:100B80000008D007031CCA2DD10A031DCA2DD20AA2
:100B900003194C1484030008D107031CD22DD20A78
:100BA00003194C1484030008801F803AD2070318ED
:100BB0004C144E1ACE2CCE1A102D462D08008E3015
:100BC000F7004008F7024108F9004208F800F91759
:100BD000F7080319F62D0310F908031DF22DF80884
:100BE0000319F62DF90CF80CF70BEB2DC11FFD2D99
:100BF000F809F909F80A0319F90A080033082B0261
:100C0000031C132E031D082E2A0832020318132E6C
:100C10003F1432082A02AC002B08AD003308031C35
:100C2000330FAD021D2E3F102A083202AC003308EC
:100C3000AD002B08031C2B0FAD0227083F0601391E
:100C40000319252EAF01AE01612EAD08031D612EE3
:100C50002C08FE3C031C612EC1016430C0002F082B
:100C6000C3002E08C20055227908C1007808C000D0
:100C70002C08C0072D0803182D0FC1074108C90013
:100C80004008C8000C247A08CB007908CA0078080C
:100C9000C9007708C8000A30CF00D730CE00233013
:100CA000CD007830CC0029247A08C3007908C2002E
:100CB0007808C1007708C000DF257908AF00780800
:100CC000AE002C0DC0002D0DC100C00DC10DFC30BB
:100CD000C0052E084007B0004108B1002F080318D6
:100CE0002F0FB1073108033C03187A2E0330B100EF
:100CF000FF30B0003F1C912E87103108F9003008FA
:100D0000F800F90CF80CF90CF80CF90C78089500BF
:100D1000F90C790C3039F7001708CF3977049700B0
:100D2000AA2E87143008FF3CC0000330C1003108F0
:100D3000031C310FC102C10CC00CC10CC00CC10C92
:100D400040089500C10C410C3039F7001708CF3925
:100D50007704970027103F1827148A150A12202BB2
:10100000840183131F3083052714B90183161F142D
:101010009F141F159F1107309C0002308500F0308F
:1010200086000030870083128601831681138312A5
:10103000B301B20105168801A8010A30A900831680
:101040001F109F101F159F111F1383121F179F132F
:1010500083169F1783121F140830F8001F08C73922
:1010600078049F002130F700F70B342807110C306B
:1010700097000030F80004389200FF308316920089
:101080000108C039063881002130F700F70B4628E7
:10109000C03083128B048B158B16831601178A11AF
:1010A0008312C4288A150A30C9008A118D208A1536
:1010B000803003178D0000308F008A110313292917
:1010C0008A15B901861F7828061F7828861E782879
:1010D000061E782806196F28061006157828861827
:1010E00074280611861478280618782886100614A5
:1010F000B90803198928C830C9008A118D208A15BA
:101100003908EF3C031C88288A116A2A8A15892825
:10111000B901290828020319162B28083C3C031C96
:1011200093280130BC0028083C3C03189D2828085F
:10113000633C031C9D280230BC002808633C031854
:10114000A7282808B43C031CA7280330BC003C088F
:10115000013A0319B228033A0319F028013A031996
:10116000FB298F2AC9012808C8008A110C248A1576
:101170002F30CB00DD30CA005A30C9008130C800A2
:101180007A08CF007908CE007808CD007708CC0027
:101190008A1129248A157708BF007808C0007908C9
:1011A000C1007A08C20083107A08C7007908C60017
:1011B0007808C5007708C4005630CB008E30CA00CE
:1011C0003730C9008430C8008A119E248A157A08F5
:1011D000B7007908B6007808B5007708B4008F2A00
:1011E000C9012808C8008A110C248A15C330CB0015
:1011F0006430CA002A30C9007630C8007A08CF00AF
:101200007908CE007808CD007708CC008A1129240F
:101210008A157708BF007808C0007908C1007A08ED
:10122000C200C9012808C8008A110C248A15420886
:10123000CB004108CA004008C9003F08C8007A082E
:10124000CF007908CE007808CD007708CC008A114D
:1012500029248A157708BF007808C0007908C100E2
:101260007A08C200C9012808C8008A110C248A150E
:101270004208CB004108CA004008C9003F08C80026
:101280007A08CF007908CE007808CD007708CC0026
:101290008A1129248A157708BF007808C0007908C8
:1012A000C1007A08C200C9012808C8008A110C24AC
:1012B0008A151230CB008330CA002030C9007E303E
:1012C000C8007A08CF007908CE007808CD007708EA
:1012D000CC008A1129248A157708C3007808C40035
:1012E0007908C5007A08C600C9012808C8008A1113
:1012F0000C248A154608CB004508CA004408C900DA
:101300004308C8007A08CF007908CE007808CD00DD
:101310007708CC008A1129248A1583144208C70053
:101320004108C6004008C5003F08C4007A08CB0049
:101330007908CA007808C9007708C8008A119E2475
:101340008A157708BF007808C0007908C1007A08BC
:10135000C200C9012808C8008A110C248A159C30D3
:10136000CB004430CA004E30C9008430C8007A082F
:10137000CF007908CE007808CD007708CC008A111C
:1013800029248A1583104208C7004108C600400876
:10139000C5003F08C4007A08CB007908CA00780865
:1013A000C9007708C8008A119E248A157708BF00F3
:1013B0007808C0007908C1007A08C20083147A084E
:1013C000C7007908C6007808C5007708C400C33094
:1013D000CB00D530CA006930C9008830C8008A11F6
:1013E0009E248A157A08B7007908B6007808B500F7
:1013F0007708B4008F2AC9012808C8008A110C2474
:101400008A15EC30CB002F30CA00BB30C9007A30CF
:10141000C8007A08CF007908CE007808CD00770898
:10142000CC008A1129248A157708BF007808C000EB
:101430007908C1007A08C200C9012808C8008A11C9
:101440000C248A154208CB004108CA004008C90094
:101450003F08C8007A08CF007908CE007808CD0090
:101460007708CC008A1129248A157708BF007808EC
:10147000C0007908C1007A08C200C9012808C80064
:101480008A110C248A15CF30CB00F730CA001330F4
:10149000C9008330C8007A08CF007908CE007808E8
:1014A000CD007708CC008A1129248A1583104208C0
:1014B000C7004108C6004008C5003F08C4007A08BC
:1014C000CB007908CA007808C9007708C8008A11DB
:1014D0009E248A157708BF007808C0007908C100EB
:1014E0007A08C20083147A08C7007908C600780811
:1014F000C5007708C400EC30CB00B130CA005F30C3
:10150000C9008830C8008A119E248A157A08B7005D
:101510007908B6007808B5007708B4008F2A370834
:10152000C3003608C2003508C1003408C0008A1163
:10153000DF258A157908B3007808B2003308C9009E
:101540003208C8008A110C248A1583143708C70092
:101550003608C6003508C5003408C4007A08CB0038
:101560007908CA007808C9007708C8008A119E2443
:101570008A157708BF007808C0007908C1007A088A
:10158000C200C701C601C5017E30C4004208CB00BD
:101590004108CA004008C9003F08C8004508CC00FF
:1015A0004908CC06CC1FD92A03110310C51B03140C
:1015B0000C2B4508CC004808CD004408CD02031987
:1015C000E72ACC1F0C2B0308013A83000C2B490897
:1015D000CD004508CD020319F32ACC1F0C2B0308BC
:1015E000013A83000C2B4A08CD004608CD020319AE
:1015F000FF2ACC1F0C2B0308013A83000C2B4B084D
:10160000CD004708CD0203190B2BCC1F0C2B030870
:10161000013A83000C2B03100318102B031D142B0D
:101620000130B2070318B30A2808A90032082A02B9
:10163000031D1E2B33082B020319212B8A11FE2DAB
:061640008A156228222B2E
:02400E00393740
:00000001FF
;PIC16F877A
;CRC=E25B  CREATED="19-jun-12 14:01"
