:1000000010308A0000280000FF00030E8301A100C9
:100010000A08A0008A010408A2007708A300780853
:10002000A4007908A5007A08A600831383128B1D0B
:100030001B280B1830288B1E1F280B193328220869
:1000400084002308F7002408F8002508F900260892
:10005000FA0020088A00210E8300FF0E7F0E09009F
:100060008A110A123E288A110A12202E0A108A10BA
:100070000A11820728340C34013406343B08BC00D2
:100080000608BB003B08F03C031848283C08BB00AE
:100090000030F8000B108A110A121F280A102010D5
:1000A000A012781DDF2FBA2F5F0008052010201046
:1000B0002519781D2519781DDF2F0001080520104E
:1000C00020102519781D2519781D251978000A108A
:1000D0002010A02FDF17DF2FAF12780008052010A7
:1000E0002010DF2F2F18B1172519780008052010D0
:1000F0002010DF2FAF12F8172519780008052010FF
:100100002010B018AF12323CAF12323C000108058B
:1001100020102010253CAF12323CAF12323C0000C0
:100120000830F80000008711831687110000F40DD5
:1001300083120712031C9F288316071683120318C5
:10014000A428831607128312831687158312871D2E
:10015000A728F80B9228000087118316871100004A
:1001600007160000000087158312871DB528F801C7
:100170000000071A7814871183168711831207125B
:1001800083160712831208000830EC007708ED0090
:1001900083160716000087158312871DCD28071ABE
:1001A0000314071E0310F80D000083168711831235
:1001B0008711EC0BC828831607160000831207125C
:1001C0006D080319E62883160712831200008316B0
:1001D00087158312871DEA2800008711831687116F
:1001E0000000831207128316071283120800831679
:1001F00007160000871500008312871DFD280712CF
:100200008316071200008312871183168711A0300E
:10021000F400831290206708F400902083160716DC
:100220000000871500008312871D1429071283160A
:10023000071200008312871183168711A130F40082
:1002400083129020F701C4207808E8008316071273
:10025000000087158312871D2B2900002F2900001D
:1002600083160716000083126808F8000800F701DB
:10027000F801670803106818F707F70CF80CE8187E
:10028000F707F70CF80C6819F707F70CF80CE819E2
:10029000F707F70CF80C681AF707F70CF80CE81AD0
:1002A000F707F70CF80C681BF707F70CF80CE81BBE
:1002B000F707F70CF80C08008316071600008715DF
:1002C00000008312871D622907128316071200009F
:1002D0008312871183168711AE30F40083129020A9
:1002E0006908EB00EC016908F40090206808F4004C
:1002F0009020831607160000871500008312871DC3
:100300007F290712831607120000831287118316B4
:100310008711AF30F40083129020F701C4207808D1
:10032000EA0083160712000087158312871D96299D
:1003300000009A29000083160716000083126A083D
:10034000F80008008E30F7007C08F8007B08F90000
:10035000FA01F808031DB6297908F800F9010830F8
:10036000F702F808031DB629F701BE290310F81B90
:10037000BD29F90DF80DF703B629F81308007B081D
:1003800003193E2A8316A4002008031DC9298312DD
:100390003E2AA4070318D7297F30A4020318D229C4
:1003A00083123E2A031DD62983123E2ADD2981307D
:1003B000A407031CDD2983123E2A2408F700F80154
:1003C000F901FA017C08A800A8177D08A7007E089B
:1003D000A6001830A400A501261C062A2308FA0747
:1003E000031CF829F90A031DF829F80A0319A517AF
:1003F0002208F907031CFF29F80A0319A517210889
:10040000FD00FD177D08F8070318A517A50DF80CCA
:10041000F90CFA0CA80CA70CA60C0310A40BEB29E2
:100420000130F707031C162A83123E2AF81B202AE4
:10043000A80DFA0DF90DF80DF70B202A83123E2AAC
:10044000A81F332AFA0A031D332AF90A031D332A87
:10045000F80A031D332AF80CF90CFA0CF70A031DED
:10046000332A83123E2A7C08A5002108A506A51F71
:100470003B2AF817432AF813432A8312F701F8019D
:10048000F901FA0183168312080080308318F106FF
:100490008316A201A30183126D088316A1007108BF
:1004A000A10683126C080319492B8316A000F700DC
:1004B00070080319532BA0020319E92A031C9F2A71
:1004C0007108A600A6177208A5007308A400A3016E
:1004D0000310A60CA50CA40CA30CA00B672AA11F4B
:1004E000742A22146D2B2210201022166F308400E3
:1004F0008313822B2212A11B872A201C922AA60C6E
:10050000A50CA40CA30CF70A0319682B922AA61BAE
:10051000952A0310A30DA40DA50DA60DF70303192D
:10052000682B872A22170B2B221383126D08831640
:10053000A100A11F9D2AA617612BA613612B70088D
:10054000A000F70083126C088316A00283126D08C6
:100550008316A600A61783126E088316A5008312C1
:100560006F088316A400A3010310A60CA50CA40C0D
:10057000A30CA00BB32AA11FC02AA2146D2BA2109A
:100580002010A216733084008313822BA212A11BA9
:10059000D32A201CDE2AA60CA50CA40CA30CF70A57
:1005A0000319682BDE2AA61BE12A0310A30DA40D54
:1005B000A50DA60DF7030319682BD32AA2170B2B41
:1005C000A2137108A100A11FE72AA617612BA61389
:1005D000612B7108A600A6177208A5007308A40075
:1005E000A11FF62AA61322156D2B2211A30120109C
:1005F0006F3084008313822BA11B212B83126D0883
:100600008316A100201C0B2BA60CA50CA40CA30C7C
:10061000F70A0319682BA31F1C2BA40A031D1C2B0C
:10062000A50A031D1C2BA60A031D1C2BA60CA50C3A
:10063000A40CF70A0319682B221B942AA21BE02A98
:10064000422B8030A606A61F292B6D2B7108A10016
:10065000382B83126D088316A100A608031D382BC2
:10066000A508031D382BA408031D382BF701612BA7
:10067000A61B422B0310A30DA40DA50DA60DF70B71
:10068000382B682BA11F462BA617612BA613612BB5
:1006900083127008F70071088316A6007208A5007F
:1006A0007308A400612B83126C08F7006D08831691
:1006B000A60083126E088316A50083126F088316A6
:1006C000A4002608F8002508F9002408FA00A02B49
:1006D000F701F801F901FA01A02BA301A409A5096A
:1006E000A609A309A30A031D7B2BA40A031D7B2BC8
:1006F000A50A0319A60A2218732AA218BF2A2219CA
:10070000F52A262B0008A407031C8C2BA50A031D21
:100710008C2BA60A0319201484030008A507031CC8
:10072000942BA60A0319201484030008801F803A22
:10073000A60703182014221A7A2AA21AC62AFC2A0B
:10074000831208008E30F7006808F7026908F90084
:100750006A08F800F917F7080319B92B0310F9080C
:10076000031DB52BF8080319B92BF90CF80CF70B7E
:10077000AE2BE91FC02BF809F909F80A0319F90A89
:1007800008006708013A0319CC2B033A0319062C19
:10079000013A0319FF2C892DFC012A08FB00A22134
:1007A0002F30FE00DD30FD005A30FC008130FB00B0
:1007B0007A088316A3007908A2007808A1007708B8
:1007C000A0008312BF217708E8007808E9007908C3
:1007D000EA007A08EB0083107A08EF007908EE004F
:1007E0007808ED007708EC005630F3008E30F20008
:1007F0003730F1008430F00045227A08B9007908DA
:10080000B8007808B7007708B600892DFC012A08DF
:10081000FB00A221C330FE006430FD002A30FC0042
:100820007630FB007A088316A3007908A2007808C6
:10083000A1007708A0008312BF217708E80078089C
:10084000E9007908EA007A08EB00FC012A08FB00BD
:10085000A2216B08FE006A08FD006908FC00680818
:10086000FB007A088316A3007908A2007808A1008B
:100870007708A0008312BF217708E8007808E90014
:100880007908EA007A08EB00FC012A08FB00A221A3
:100890006B08FE006A08FD006908FC006808FB00A0
:1008A0007A088316A3007908A2007808A1007708C7
:1008B000A0008312BF217708E8007808E9007908D2
:1008C000EA007A08EB00FC012A08FB00A2211230A2
:1008D000FE008330FD002030FC007E30FB007A08F3
:1008E0008316A3007908A2007808A1007708A00069
:1008F0008312BF217708EC007808ED007908EE003C
:100900007A08EF00FC012A08FB00A2216F08FE0014
:100910006E08FD006D08FC006C08FB007A08831669
:10092000A3007908A2007808A1007708A00083122C
:10093000BF2183146B08EF006A08EE006908ED0020
:100940006808EC007A08F3007908F2007808F100F2
:100950007708F00045227708E8007808E900790870
:10096000EA007A08EB00FC012A08FB00A2219C3077
:10097000FE004430FD004E30FC008430FB007A085D
:100980008316A3007908A2007808A1007708A000C8
:100990008312BF2183106B08EF006A08EE0069081C
:1009A000ED006808EC007A08F3007908F200780896
:1009B000F1007708F00045227708E8007808E900A0
:1009C0007908EA007A08EB0083147A08EF007908C6
:1009D000EE007808ED007708EC00C330F300D53066
:1009E000F2006930F1008830F00045227A08B90041
:1009F0007908B8007808B7007708B600892DFC019F
:100A00002A08FB00A221EC30FE002F30FD00BB3095
:100A1000FC007A30FB007A088316A3007908A20054
:100A20007808A1007708A0008312BF217708E800AA
:100A30007808E9007908EA007A08EB00FC012A0846
:100A4000FB00A2216B08FE006A08FD006908FC009B
:100A50006808FB007A088316A3007908A2007808CA
:100A6000A1007708A0008312BF217708E80078086A
:100A7000E9007908EA007A08EB00FC012A08FB008B
:100A8000A221CF30FE00F730FD001330FC00833090
:100A9000FB007A088316A3007908A2007808A10059
:100AA0007708A0008312BF2183106B08EF006A084B
:100AB000EE006908ED006808EC007A08F300790898
:100AC000F2007808F1007708F00045227708E80086
:100AD0007808E9007908EA007A08EB0083147A08BC
:100AE000EF007908EE007808ED007708EC00EC30B4
:100AF000F300B130F2005F30F1008830F0004522A1
:100B00007A08B9007908B8007808B7007708B60005
:100B1000892D3908EB003808EA003708E900360863
:100B2000E800A2237908B5007808B4003508FC0075
:100B30003408FB00A22183143908EF003808EE00C6
:100B40003708ED003608EC007A08F3007908F20067
:100B50007808F1007708F00045227708E800780867
:100B6000E9007908EA007A08EB00EF01EE01ED01F7
:100B70007E30EC006B08F3006A08F2006908F100AF
:100B80006808F0006D08F4007108F406F41FCD2D1C
:100B900003110310ED1B0314002E6D08F400700800
:100BA000F5006C08F5020319DB2DF41F002E030875
:100BB000013A8300002E7108F5006D08F502031953
:100BC000E72DF41F002E0308013A8300002E72085F
:100BD000F5006E08F5020319F32DF41F002E03082B
:100BE000013A8300002E7308F5006F08F50203191F
:100BF000FF2DF41F002E0308013A8300002E03107E
:100C00000318042E031D082E0130B4070318B50A7B
:100C10002A08AB0008001030EC00F701FA01E90CDB
:100C2000E80C031C192E6A08F7070318FA0A6B0868
:100C3000FA07FA0CF70CF90CF80CEC0B0F2E080065
:100C40001F151F19212E83161E088312AC001E08C3
:100C5000AD00F33081000430CB07CB08031D952E87
:100C60000230E700F7207808D700D708031D452E8B
:100C70000330E700F7207808D600D608031D452E7C
:100C80000430E700F7207808D4005308CC004D0862
:100C90004C020318952E0630E7004C08E800372177
:100CA0007808053EE700E9016708E8005C2178085C
:100CB0005702031D932E0630E7004C08E800372149
:100CC0007808043EE700E9016708E8005C2178083D
:100CD0005602031D932E0630E7004C08E80037212A
:100CE0007808033EE700E9016708E8005C2178081E
:100CF0005402031D932E0630E7004C08E80037210C
:100D00007808E700E9017808E8005C217808AA0083
:100D10004E304C0784008313800153084C02031D9E
:100D2000932E0130D307CC0A472E2B082A02031931
:100D3000B62E2A083C3C031CA02E0130E700C1233C
:100D40002A083C3C0318AB2E2A08633C031CAB2E3C
:100D50000230E700C1232A08633C0318B62E2A0894
:100D6000B43C031CB62E0330E700C12334082C0228
:100D7000031DBE2E35082D020319732F35082D02D1
:100D8000031CD32E031DC82E2C0834020318D32EA7
:100D9000671434082C02AE002D08AF003508031C80
:100DA000350FAF02DD2E67102C083402AE00350877
:100DB000AF002D08031C2D0FAF022908670601396B
:100DC0000319E62EB1010130B000272F2F08013C96
:100DD000031C272F031DF02E2E08543C031C272F25
:100DE000E9016430E8003108EB003008EA000B2626
:100DF0007908E9007808E8002E08E8072F080318AA
:100E00002F0FE9076908FC006808FB00A2217A0897
:100E1000FE007908FD007808FC007708FB000A3026
:100E20008316A300D730A2002330A1007830A000A1
:100E30008312BF217A08EB007908EA007808E900FC
:100E40007708E800A2237908B1007808B0002F08DD
:100E5000E9002E08E800EB010330EA000B26300819
:100E60007807B2007908B30031080318310FB307CF
:100E70003308033C0318402F0330B300FF30B200A7
:100E8000671C572F87103308F9003208F800F90C57
:100E9000F80CF90CF80CF90C78089500F90C790CA1
:100EA0003039F7001708CF3977049700702F87146F
:100EB0003208FF3CE8000330E9003308031C330F1D
:100EC000E902E90CE80CE90CE80CE90C680895006B
:100ED000E90C690C3039F7001708CF39770497000F
:100EE0002910671829140B118A110A121F280C10D7
:100EF00020102028F2376739E13661100A28E13ADC
:100F0000EC37A0322010CD30F234613761000C3460
:100F10006F396110613AF5306C1D00010C32613A95
:100F20006110613AF5306C1D00018C1120382F10D2
:100F3000EE37F637A030EE3375366F0520102010EF
:100F40002519781D2519781D2519781020102000E5
:100F50008A12F513201020102519781D2519781DE7
:100F6000251978000C246F396139E937A020EE3358
:100F700075366F1025323A000C2B61366F39A02080
:100F8000EE3375366F1025323A000A102010A53A5C
:100F900000010C102310F01720376F3B6F106137E2
:100FA000E73AEC378A12F513201020102519781D26
:100FB0002519781D251978005F30840083130008F7
:100FC0000319F02F0130F800F701F70BE52FF80BAC
:100FD000E42F4A30F700F70BEB2FEE2F800BE22FB8
:100FE0000800660EF039F7000F3008057704880016
:0A0FF00000008914FB2F891008008F
:101000000910631C0910631809140000091100007D
:101010008910640EE5000F30E5056508E6008A11C9
:10102000F1278A1564080F39E500E6008A11F127D7
:101030008A150800831609108910091100308800EC
:1010400083120910091189100F30DF008A11DC2783
:101050008A150130D8005808033C031C3B28033094
:10106000E6008A11F1278A150530DF008A11DC2796
:101070008A15D80A2B280230E6008A11F1278A1532
:10108000D8015808033C031C502858088A11362000
:101090008A15D900E3015908E4000020D80A412844
:1010A0008A110A166C285E080C3A03195E28063A63
:1010B00003196828023A03197E288328E3010130C6
:1010C000E40000200230DF008A11DC278A1589281D
:1010D0000130DF000230E000600B6F2872284030E2
:1010E000E1007328E10101305F02E1076108803807
:1010F000E200E3016208E40000208928E3011030E7
:10110000E400002089280130E3005E08E4000020AC
:1011100089280800831603178C170C1400000000A0
:1011200083120C087F390319CE280313D800031744
:101130000D080313D90003170F080313DA0058082A
:10114000DE005320590803178D0003135A080317B4
:101150008F0083168C170C140000000083120C0DF6
:101160000E0D7F390319CE280313D80003170D087D
:101170000313D90003170F080313DA005808DE0021
:101180005320590803178D0003135A0803178F00C3
:101190008D0A03198F0A03138A2803170313080003
:1011A000BB0803191C29C830DF008A11DC278A1507
:1011B0003B08EF3C031C1B290430BE003E08073CE3
:1011C000031CF3283B08F7003E08F8000319EC283D
:1011D0000310F70CF80BE8287718F1283E08BD003B
:1011E000F328BE0ADE28BE013E08023C031C1B2970
:1011F0003B08F7003E08F800031902290310F70C1A
:10120000F80BFE287718192904303D02D900A701F0
:101210008B1BA7178B135908E7000330E8008A11CE
:1012200037218A15A71B8B173E087807013EBD00A2
:101230001B29BE0AF428BB01861F3229061F32294A
:10124000861E3229061E322906192929061006157E
:10125000322986182E2906118614322906183229B9
:10126000861006140800831603178C170C14000050
:1012700000000318622983120C087F390313DA0077
:1012800003170D080313DB0003170F080313DC001B
:101290005A08DE0053205B0803178D0003135C0817
:1012A00003178F0083168C170C14000000008312A4
:1012B0000313D90B5C295F2983160317622981293F
:1012C0008316031783120C0D0E0D7F390313DA00FA
:1012D00003170D080313DB0003170F080313DC00CB
:1012E0005A08DE0053205B0803178D0003135C08C7
:1012F00003178F008D0A03198F0A03100313D90BEC
:1013000033290800DA1B94290F30F700590EF7052E
:101310000A30770203188F293030F70791295A08CD
:10132000F7077708DE0053200F30D9050A3059023D
:1013300003189C2930309E29DA135A08D907590816
:10134000DE005320080083160716000087150000F2
:101350008312071283160712000083128711831667
:1013600087118312A7018B1BA7178B13A030F400E2
:101370008A1190208A15A71B8B17A7018B1BA71713
:101380008B135F08F4008A1190208A15A71B8B1716
:10139000A7018B1BA7178B136008F4008A119020FC
:1013A0008A15A71B8B178316071200008715831257
:1013B000871DD8290000DC290000831607160000CD
:1013C0000716000087150000831207128316071204
:1013D000000083128711831687118312A7018B1BCC
:1013E000A7178B13A030F4008A1190208A15A71B31
:1013F0008B177808611078186114611C202A8316F5
:1014000007160000871500008312871D052A0712A2
:101410008316071200008312871183168711831227
:10142000A7018B1BA7178B13A030F4008A11902003
:101430008A15A71B8B177808611078186114FD298D
:101440000800831607160000871500008312071294
:1014500083160712000083128711831687118312E7
:10146000A7018B1BA7178B13AE30F4008A119020B5
:101470008A15A71B8B176008E300E401A7018B1BEB
:10148000A7178B136008F4008A1190208A15A71BF8
:101490008B17A7018B1BA7178B135F08F4008A110A
:1014A00090208A15A71B8B17A7018B1BA7178B13DF
:1014B0006108F4008A1190208A15A71B8B178316E8
:1014C0000712000087158312871D642A0000682A0E
:1014D000000083160716000007160000871500009D
:1014E00083120712831607120000831287118316D6
:1014F00087118312A7018B1BA7178B13AE30F40043
:101500008A1190208A15A71B8B177808621078180B
:101510006214621CAC2A83160716000087150000AF
:101520008312871D912A0712831607120000831267
:101530008711831687118312A7018B1BA7178B13A3
:10154000AE30F4008A1190208A15A71B8B177808FB
:10155000621078186214892A08004A08003A0319B0
:10156000B82A013A03192F2B033A0319C52B592C1A
:101570004E3003178D0000308F0003100530031329
:10158000D90033214108D9005730DA008221513087
:1015900003178D0000308F00031406300313D900A9
:1015A0003321BD0803192E2B5808D900DA01DB01BD
:1015B000C1080319DD2A4108DB003D080A3A031976
:1015C000E82A013A0319EB2A073A0319EC2A102BEF
:1015D000C101BD012E2B122B5B08C1000130CA00D6
:1015E000590BF82A0430DF004108E000A3210E2B3C
:1015F000A7018B1BA7178B130630E7004C08E800E8
:101600008A1137218A15A71B8B177808033EDC0047
:10161000E0015C08DF004108E1002122BD012E2B22
:101620003D08DA005B08103C03181A2B5B08203CCD
:10163000031D232B5B0EF700F030F70577085A07E0
:10164000233C0318262B5A08C1002D2B5B0EF700F4
:10165000F030F70577085A07C100BD01592C553005
:1016600003178D0000308F00031006300313D900DC
:1016700033214108D9005730DA0082213A30DE00A8
:1016800053204308D9005730DA0082213A30DE0077
:1016900053205F30DE0053205F30DE005320BD0852
:1016A0000319C42B0230D9005808DA00DB01DC0131
:1016B000C30803195D2B4308DC003D080A3A0319EF
:1016C000682B013A0319712B073A0319722B9A2BD5
:1016D000C30803196D2BC3016F2B0130CA02BD0172
:1016E000C42B9C2B5C08C3005908CA005A0B802BE2
:1016F0005908053CDD00DF004308E000A321982BDA
:1017000002305907DD00A7018B1BA7178B1306308A
:10171000E7004C08E8008A1137218A15A71B8B17B0
:101720007808DD07E0015D08DF004308E1002122C1
:10173000BD01C42B3D08DB005C08103C0318B02B36
:101740005C08203C0319B02B5C08303C0319B02B1B
:101750005C08403C0319B02B5C08503C031DB92BBE
:101760005C0EF700F030F70577085B07593C03186B
:10177000BC2B5B08C300C32B5C0EF700F030F705F1
:1017800077085B07C300BD01592C5E3003178D003D
:1017900000308F00031006300313D90033214108B5
:1017A000D9005730DA0082213A30DE005320430856
:1017B000D9005730DA0082213A30DE005320440845
:1017C000D9005730DA008221BD080319592C0330A3
:1017D000D9005808DA00DB01DC01C4080319F22B38
:1017E0004408DC003D080A3A0319FD2B013A0319AD
:1017F000062C073A0319072C2F2CC4080319022CB6
:10180000C401042C0130CA02BD01592C312C5C08E2
:10181000C4005908CA005A0B152C5908053CDD00B4
:10182000DF004408E000A3212D2C02305907DD0021
:10183000A7018B1BA7178B130630E7004C08E800A5
:101840008A1137218A15A71B8B177808DD07E0015D
:101850005D08DF004408E1002122BD01592C3D084C
:10186000DB005C08103C0318452C5C08203C031985
:10187000452C5C08303C0319452C5C08403C03199E
:10188000452C5C08503C031D4E2C5C0EF700F030DC
:10189000F70577085B07593C0318512C5B08C40017
:1018A000582C5C0EF700F030F70577085B07C40092
:1018B000BD0108004808003A0319652C013A0319D4
:1018C000A52C033A03191B2D092E673003178D0031
:1018D00000308F0003100B300313D9003321470869
:1018E000D9005730DA008221BD080319A42CD80191
:1018F000D9014708D9003D080A3A0319862C013A54
:101900000319892C073A03198A2C932CC701BD01AE
:10191000A42C952C5908C700C9014718C9170130D4
:10192000C800BD01A42C3D08D8005908093C031883
:101930009C2C5808C700A32C590EF700F030F7056F
:1019400077085807C700BD01092EBD080319F02C00
:10195000D801D9014608D9003D080A3A0319B72C25
:10196000013A0319C02C073A0319C12CD42CC6081C
:101970000319BC2CC601BE2C0130C802BD01F02CDD
:10198000D62C5908C600D908031DCB2CD808031D36
:10199000CB2C0130C6000230C8000630DF004608FC
:1019A000E000A321BD01F02C3D08D8005908013CFE
:1019B0000318DC2C5808C600590EF700F030F70564
:1019C00077085807123C0318E82C5808C600EF2C7B
:1019D000590EF700F030F70577085807C600BD012B
:1019E000C608031D032D6E3003178D0000308F00D5
:1019F00003100C300313D90033214708D9005730A6
:101A0000DA0082211A2D763003178D0000308F0006
:101A1000031009300313D90033214608D900573089
:101A2000DA0082212F30DE0053204708D9005730DA
:101A3000DA008221092EBD080319CE2DD801D90163
:101A40004508D9003D080A3A03192D2D013A03191A
:101A5000362D073A0319372D4D2DC5080319322DA0
:101A6000C501342D0130C802BD01CE2D4F2D5908BE
:101A7000C500D908031D412DD808031D412D013093
:101A8000C5000330C80049084507DA000530DF000B
:101A90005A08E000A321BD01CE2D3D08D800590809
:101AA000033C0318562D5808C500CD2D460B592D63
:101AB000712D4608033C0319712D4608053C031996
:101AC000712D4608073C0319712D4608083C03197F
:101AD000712D4608103C0319712D4608123C031D58
:101AE0007E2D590EF700F030F70577085807313C86
:101AF00003187E2D5808C500BD01CE2D4608043CB4
:101B000003198E2D4608063C03198E2D4608093C04
:101B100003198E2D4608113C031D9B2D590EF7000D
:101B2000F030F70577085807303C03189B2D58080C
:101B3000C500BD01CE2D4608023C031DB02DC91BBA
:101B4000B02D491BB02D590EF700F030F70577087E
:101B50005807293C0318B02D5808C500BD01CE2DEB
:101B60004608023C031DC62DC91BB82D491FC62DB2
:101B7000590EF700F030F70577085807283C03188E
:101B8000C62D5808C500BD01CE2DCD2D590EF7002C
:101B9000F030F70577085807C500BD01C508031DDB
:101BA000E92D7E3003178D0000308F0003100930BF
:101BB0000313D90033214608D9005730DA008221B7
:101BC0002F30DE0053204708D9005730DA00822139
:101BD000082E873003178D0000308F000310063069
:101BE0000313D90033214508D9005730DA00822188
:101BF0002F30DE0053204608D9005730DA0082210A
:101C00002F30DE0053204708D9005730DA008221F8
:101C1000092E8A110A16BC285F08F8015E02031813
:101C2000142E5E08F700202EF7010830E000DE0DCC
:101C3000F70D5F0877020318F700F80DE00B172E79
:101C4000080078085808DE006430DF000C267708AA
:101C5000D80078083030031D342ED91C3B2ED919FA
:101C60003B2E591A2030372ED91159125914F80722
:101C70007808DE0053205808DE000A30DF000C260A
:101C80007708D80078083030031D4C2ED919502E13
:101C9000591C502E591A2030F8077808DE005320BE
:101CA0003030D8075808DE00532008002030591E75
:101CB0003030DA005808F700D81F652EF709F70A08
:101CC0007708D8002D30DA00D9175808DE006430C4
:101CD000DF000C267708D80030307807DB00580882
:101CE000DE000A30DF000C2630307707DD003030B0
:101CF0007807DC005A08F700D91D802ED91F59112A
:101D0000591A8D2ED91FA82E5919A82E7708DB0035
:101D1000D918A82E7708DC00A82E30305B02031DEE
:101D2000A82E7708DB002030DA00D91D9B2E591130
:101D3000D914D91FD91030305C02031DA82E7708A2
:101D4000DC002030DB00D91D9B2ED910D91F591083
:101D5000591DAD2E5A08DE005320D91CB22E5B0847
:101D6000DE005320591CB72E5C08DE0053205D08AE
:101D7000DE00532008003D080A3A0319C62E013A36
:101D80000319C92E073A0319CB2EE82EC201BA0156
:101D9000112FBD01E82EA7018B1BA7178B134C0831
:101DA000E7000630E8008A1137218A15A71B8B1738
:101DB0007808D800E0017808DF004208E10021221D
:101DC0000130CC07BD01C201C0010530BF00112F99
:101DD000C2080319FD2EA7018B1BA7178B134208FE
:101DE000E7000A30E8008A1137218A15A71B8B17F4
:101DF0003D087807B43C0318002F3D08C200102F9F
:101E0000A7018B1BA7178B134208E7000A30E800D5
:101E10008A1137218A15A71B8B173D087807C20046
:081E2000BD018A110A16B9295F
:10200000840183131F308305FF30A8002914AA011F
:10201000B501B401BB01C101C201C301C401C501C5
:10202000C601C701C801C901CA01CB01CC01CD015C
:10203000D301D401D501D601D70183161F149F14F3
:102040001F159F1107309C008312CE01CF01D001D4
:10205000D101D201023083168500F83086000030AD
:102060008700831286018316811383120516880167
:10207000AA010A30AB0083161F109F101F159F1175
:102080001F1383121F179F1383169F1783121F148A
:102090000830F8001F08C73978049F002130F70086
:1020A000F70B502807110C3097000030F800043867
:1020B0009200FF30831692000108C0390638810073
:1020C0002130F700F70B6228C03083128B048B1588
:1020D0008B160A128A151A280A168A110A30DF008E
:1020E0000A12DC270A16773003178D0007308F009D
:1020F0000A128A1503138A200A168A11BB01BE012F
:102100000430D800FA30DF000A12DC270A16D80B98
:102110008228873003178D0007308F000A128A1536
:1021200003138A200A168A114A08033C0319A528BA
:102130000A128A15D0200A168A110130D8000A1214
:102140008A15AD220A168A1194288E3003178D0045
:1021500007308F000A128A1503138A200A168A1183
:102160004808033C0319BF280A128A15D0200A1612
:102170008A110A128A155A2C0A168A11B028BD0132
:10218000953003178D0007308F00031016300313AE
:10219000D9000A128A1533210A168A115408D90067
:1021A0005730DA000A128A1582210A168A113A304B
:1021B000DE000A128A1553200A168A115608D90021
:1021C0005730DA000A128A1582210A168A113A302B
:1021D000DE000A128A1553200A168A115708D90000
:1021E0005730DA000A128A1582210A168A11A530A0
:1021F00003178D0007308F00031404300313D90038
:102200000A128A1533210A168A11CB08031D4F2999
:102210000A30DE000A128A1553200A168A112A088B
:10222000D8001B30D9000A128A1521260A168A11F5
:10223000A93003178D0007308F00031405300313F6
:10224000D9000A128A1533210A168A115408D900B6
:102250005730DA000A128A1582210A168A113A309A
:10226000DE000A128A1553200A168A115608D90070
:102270005730DA000A128A1582210A168A113A307A
:10228000DE000A128A1553200A168A115708D9004F
:102290005730DA000A128A1582210A168A110A12A8
:1022A0008A15D0200A168A113D080C3C031D312ADC
:1022B000CA01B23003178D0007308F0003101030B1
:1022C0000313D9000A128A1533210A168A114D0800
:1022D000D8001F30D9000A128A1556260A168A110C
:1022E0003A30DE000A128A1553200A168A114A086B
:1022F000033C031987290A128A15D0200A168A116D
:10230000D8010A128A15AD220A168A117729BC3023
:1023100003178D0007308F0003100E300313D90010
:102320000A128A1533210A168A114D08D8001F3067
:10233000D9000A128A1556260A168A113A30DE008A
:102340000A128A1553200A168A11C001BF01C0085B
:10235000031DDF293F08023C031CDF290A128A15EE
:10236000D0200A168A11BD080319D7290A128A1526
:10237000BB2E0A168A11C53003178D0007308F0057
:10238000031004300313D9000A128A1533210A16E8
:102390008A114208D8001B30D9000A128A1521265A
:1023A0000A168A110A30DF000A12DC270A163F08D3
:1023B0000319C003BF03BF0A0319C00AA729C0013C
:1023C000BF010130CD07C93003178D0007308F00E2
:1023D000031013300313D9000A128A1533210A1689
:1023E0008A112A08D8001B30D9000A128A15212622
:1023F0000A168A11D33003178D0007308F0003149B
:1024000005300313D9000A128A1533210A168A11DE
:102410005408D9005730DA000A128A1582210A16A8
:102420008A113A30DE000A128A1553200A168A11E0
:102430005608D9005730DA000A128A1582210A1686
:102440008A113A30DE000A128A1553200A168A11C0
:102450005708D9005730DA000A128A1582210A1665
:062460008A11052963004A
:02400E00713F00
:00000001FF
;PIC16F877A
;CRC=B765  CREATED="22-jun-12 16:24"
