:1000000010308A00D8280000FF00030E8301A100F1
:100010000A08A0008A010408A2007708A300780853
:10002000A4007908A5007A08A600831383128B1D0B
:100030001B280B1830288B1E1F280B193328220869
:1000400084002308F7002408F8002508F900260892
:10005000FA0020088A00210E8300FF0E7F0E09009F
:100060008A110A123E288A150A1200280A108A10DC
:100070000A11820728340C34013406343B08BC00D2
:100080000608BB003B08F03C031848283C08BB00AE
:100090000030F8000B108A110A121F280A102010D5
:1000A000A012781DDF2FBA2F5F0008052010201046
:1000B0002519781D2519781DDF2F0001080520104E
:1000C00020102519781D2519781D251978000A108A
:1000D0002010A02FDF17DF2FAF12780008052010A7
:1000E0002010DF2FAF12F81725197800080520100F
:1000F0002010253CAF12323CAF12323C00000830D9
:10010000F80000008711831687110000A60D8312E6
:100110000712031C8E2883160716831203189328D0
:10012000831607128312831687158312871D96285C
:10013000F80B81280000871183168711000007162D
:100140000000000087158312871DA428F801000015
:10015000071A7814871183168711831207128316E2
:1001600007128312080008308316A5007708A6003E
:100170000716000087158312871DBC28071A031471
:10018000071E0310F80D00008316871183128711D4
:100190008316A50BB82807160000831207128316D2
:1001A0002608031D0712000087158312871DD62815
:1001B000000087118316871100008312071283162F
:1001C0000712831208008316071600008715000027
:1001D0008312871DE9280712831607120000831275
:1001E000871183168711A030A60083127F20720822
:1001F0008316A60083127F2083160716000087153A
:1002000000008312871D02290712831607120000BF
:100210008312871183168711A130A60083127F20D5
:10022000F701B3207808F300831607120000871542
:100230008312871D192900001D2900008316071647
:1002400000007308F80083120800F701F8017E0827
:10025000031083162018F707F70CF80CA018F707FF
:10026000F70CF80C2019F707F70CF80CA019F70792
:10027000F70CF80C201AF707F70CF80CA01AF70780
:10028000F70CF80C201BF707F70CF80CA01BF7076E
:10029000F70CF80C83120800831607160000871568
:1002A00000008312871D52290712831607120000CF
:1002B0008312871183168711AE30A60083127F2028
:1002C00083162208A400A5012208A60083127F201D
:1002D00083162108A60083127F20831607160000CC
:1002E000871500008312871D7329071283160712D2
:1002F00000008312871183168711AF30A600831286
:100300007F20F701B32078088316A30007120000AE
:1003100087158312871D8A2900008E290000831605
:10032000071600002308F800831208008E30F7003B
:1003300083163108F8003008F900FA01F808031DA7
:10034000AB297908F800F9010830F702F808031D15
:10035000AB29F701B3290310F81BB229F90DF80DE9
:10036000F703AB29F813831208008316300803192A
:10037000262AB80034080319262AB8070318C72903
:100380007F30B802031C262A0319262ACB29813084
:10039000B8070318262A3808F700F801F901FA010E
:1003A0003108BC00BC173208BB003308BA00183053
:1003B000B800B9013A1CF4293708FA07031CE629EA
:1003C000F90A031DE629F80A0319B9173608F907CF
:1003D000031CED29F80A0319B9173508B200B21742
:1003E0003208F8070318B917B90DF80CF90CFA0C14
:1003F000BC0CBB0CBA0C0310B80BD9290130F707A1
:100400000318262AF81B0B2ABC0DFA0DF90DF80D5E
:10041000F7030319262ABC1F1C2AFA0A031D1C2AEB
:10042000F90A031D1C2AF80A031D1C2AF80CF90CF2
:10043000FA0CF70A0319262A3108B9003508B9065B
:10044000B91F242AF8172A2AF8132A2AF701F801D3
:10045000F901FA01831208008030831C322A8316C6
:10046000B10683128316B601B7012D08B500310815
:10047000B5062C080319202BB400F7003008031927
:10048000292BB4020319C52A031C832A3108BA0098
:10049000BA173208B9003308B800B7010310BA0C14
:1004A000B90CB80CB70CB40B4D2AB51F5A2A361428
:1004B0003D2B361034103616AF3084008313522B88
:1004C0003612B51B6D2A341C782ABA0CB90CB80C3C
:1004D000B70CF70A0319382B782ABA1B7B2A0310AA
:1004E000B70DB80DB90DBA0DF7030319382B6D2AE6
:1004F0003617E52A36132D08B500B51F812ABA171D
:10050000312BBA13312B3008B400F7002C08B40299
:100510002D08BA00BA172E08B9002F08B800B70185
:100520000310BA0CB90CB80CB70CB40B8F2AB51F5A
:100530009C2AB6143D2BB6103410B616B330840086
:100540008313522BB612B51BAF2A341CBA2ABA0C2D
:10055000B90CB80CB70CF70A0319382BBA2ABA1B16
:10056000BD2A0310B70DB80DB90DBA0DF703031965
:10057000382BAF2AB617E52AB6133108B500B51FD8
:10058000C32ABA17312BBA13312B3108BA00BA1764
:100590003208B9003308B800B51FD22ABA1336158D
:1005A0003D2B3611B7013410AF3084008313522B2A
:1005B000B51BFB2A2D08B500341CE52ABA0CB90C72
:1005C000B80CB70CF70A0319382BB71FF62AB80A6C
:1005D000031DF62AB90A031DF62ABA0A031DF62AD4
:1005E000BA0CB90CB80CF70A0319382B361B7A2A47
:1005F000B61BBC2A1A2B8030BA06BA1F032B3D2B20
:100600003108B500102B2D08B500BA08031D102BBA
:10061000B908031D102BB808031D102BF701312B4F
:10062000BA1B1A2B0310B70DB80DB90DBA0DF70B85
:10063000102B382BB51F1E2BBA17312BBA13312BA9
:100640003008F7003108BA003208B9003308B800A2
:10065000312B2C08F7002D08BA002E08B9002F08FE
:10066000B8003A08F8003908F9003808FA00702B89
:10067000F701F801F901FA01702BB701B809B909BE
:10068000BA09B709B70A031D4B2BB80A031D4B2B38
:10069000B90A0319BA0A3618592AB6189B2A361904
:1006A000D12A002B0008B807031C5C2BB90A031DD4
:1006B0005C2BBA0A0319341484030008B907031C1D
:1006C000642BBA0A0319341484030008801F803A8B
:1006D000BA0703183414361A602AB61AA22AD82A7E
:1006E000831208008E30F70083162808F7022908C5
:1006F000F9002A08F800F917F70803198A2B0310E4
:10070000F908031D862BF80803198A2BF90CF80C3D
:10071000F70B7F2BA91F912BF809F909F80A031988
:10072000F90A831208007208013A03199E2B033A52
:100730000319DE2B013A0319F52C8F2D8316B10115
:1007400083122A088316B000831296212F30831655
:10075000B300DD30B2005A30B1008130B0007A0809
:10076000B7007908B6007808B5007708B40083129E
:10077000B52177088316A0007808A1007908A200A7
:100780007A08A30083102308AF002208AE002108D6
:10079000AD002008AC005630B3008E30B2003730C8
:1007A000B1008430B00083122C227A08B900790895
:1007B000B8007808B7007708B6008F2D8316B1010E
:1007C00083122A088316B00083129621C330831641
:1007D000B3006430B2002A30B1007630B0007A083D
:1007E000B7007908B6007808B5007708B40083121E
:1007F000B52177088316A0007808A1007908A20027
:100800007A08A300B10183122A088316B00083126C
:10081000962183162308B3002208B2002108B100F4
:100820002008B0007A08B7007908B6007808B5004B
:100830007708B4008312B52177088316A0007808E2
:10084000A1007908A2007A08A300B10183122A0846
:100850008316B0008312962183162308B300220862
:10086000B2002108B1002008B0007A08B70079086A
:10087000B6007808B5007708B4008312B521770870
:100880008316A0007808A1007908A2007A08A300C6
:10089000B10183122A088316B00083129621123008
:1008A0008316B3008330B2002030B1007E30B00038
:1008B0007A08B7007908B6007808B5007708B40060
:1008C0008312B52177088316A4007808A50079085B
:1008D000A6007A08A700B10183122A088316B00087
:1008E0008312962183162708B3002608B200250834
:1008F000B1002408B0007A08B7007908B60078087B
:10090000B5007708B4008312B52183148316230839
:10091000AF002208AE002108AD002008AC007A0824
:10092000B3007908B2007808B1007708B0008312EC
:100930002C2277088316A0007808A1007908A2006D
:100940007A08A300B10183122A088316B00083122B
:1009500096219C308316B3004430B2004E30B10073
:100960008430B0007A08B7007908B6007808B5007E
:100970007708B4008312B521831083162308AF00D3
:100980002208AE002108AD002008AC007A08B300B0
:100990007908B2007808B1007708B00083122C22E1
:1009A00077088316A0007808A1007908A2007A08C9
:1009B000A30083142308AF002208AE002108AD0075
:1009C0002008AC00C330B300D530B2006930B100AC
:1009D0008830B00083122C227A08B9007908B80058
:1009E0007808B7007708B6008F2D8316B1018312FF
:1009F0002A088316B00083129621EC308316B300C8
:100A00002F30B200BB30B1007A30B0007A08B700A6
:100A10007908B6007808B5007708B4008312B521CC
:100A200077088316A0007808A1007908A2007A0848
:100A3000A300B10183122A088316B0008312962105
:100A400083162308B3002208B2002108B100200851
:100A5000B0007A08B7007908B6007808B5007708C2
:100A6000B4008312B52177088316A0007808A1008E
:100A70007908A2007A08A300B10183122A0883161C
:100A8000B00083129621CF308316B300F730B20046
:100A90001330B1008330B0007A08B7007908B6008F
:100AA0007808B5007708B4008312B5218310831647
:100AB0002308AF002208AE002108AD002008AC00DA
:100AC0007A08B3007908B2007808B1007708B0005E
:100AD00083122C2277088316A0007808A1007908D9
:100AE000A2007A08A30083142308AF002208AE00F6
:100AF0002108AD002008AC00EC30B300B130B200EA
:100B00005F30B1008830B00083122C227A08B9001F
:100B10007908B8007808B7007708B6008F2D390833
:100B20008316AB00831238088316AA008312370895
:100B30008316A900831236088316A8008312722335
:100B40007908B5007808B40035088316B10083121F
:100B500034088316B0008312962183143908831653
:100B6000AF00831238088316AE008312370883164D
:100B7000AD00831236088316AC007A08B3007908FA
:100B8000B2007808B1007708B00083122C227708F1
:100B90008316A0007808A1007908A2007A08A300B3
:100BA000AF01AE01AD017E30AC002308B3002208D6
:100BB000B2002108B1002008B0002D08B4003108AF
:100BC000B406B41FE82D03110310AD1B03141B2E34
:100BD0002D08B4003008B5002C08B5020319F62D15
:100BE000B41F1B2E0308013A83001B2E3108B500E9
:100BF0002D08B5020319022EB41F1B2E0308013A5B
:100C000083001B2E3208B5002E08B50203190E2EE4
:100C1000B41F1B2E0308013A83001B2E3308B500B6
:100C20002F08B50203191A2EB41F1B2E0308013A10
:100C300083001B2E031003181F2E031D252E0130C9
:100C40008312B4070318B50A831683122A08AB006F
:100C500008000C1020102028F2376739E1366110A7
:100C60000A28E13AEC37A0322010CD30F234613757
:100C700061000C346F396110613AF5306C1D000170
:100C80000C32613A6110613AF5306C1D00018C1133
:100C900020382F10EE37F637A030EE3375366F055B
:100CA000201020102519781D2519781D2519781078
:100CB000201020008A12F513201020102519781D0D
:100CC0002519781D251978000C246F396139E93709
:100CD000A020EE3375366F1025323A000C22613AAF
:100CE00061104137E73AEC37A012641D00010C2B6C
:100CF00061366F39A020EE3375366F1025323A0019
:100D00000A102010A53A00018C1120382F10EE3760
:100D1000F637A030EE3375366F05A53A2710201050
:100D2000A012323CBA12323CBA12323C00006A3095
:100D30008400831300080319AB2E0130F800F7017B
:100D4000F70BA02EF80B9F2E4A30F700F70BA62EBC
:100D5000A92E800B9D2E0800710EF039F7000F3080
:100D600008057704880000008914B62E8910080051
:100D700009106E1C09106E180914000009110000FA
:100D800089106F0EF0000F30F0057008F100AC26EE
:100D90006F080F39F000F100AC2608008316091027
:100DA0008910091100308800831209100911891077
:100DB0000F30EA0097260130E3006308033C031C70
:100DC000E92E0330F100AC260530EA009726E30A4D
:100DD000DD2E0230F100AC26E3016308033C031C66
:100DE000FA2E63083620E400EE016408EF00B8260E
:100DF000E30AED2E8A110A164E2969080C3A0319E6
:100E0000082F063A0319102F023A0319262F2B2F09
:100E1000EE010130EF00B8260230EA009726312FAC
:100E20000130EA000230EB006B0B172F1A2F403015
:100E3000EC001B2FEC0101306A02EC076C088038D3
:100E4000ED00EE016D08EF00B826312FEE011030F5
:100E5000EF00B826312F0130EE006908EF00B82608
:100E6000312F0800831603178C170C1400000000A4
:100E700083120C087F390319762F0313E30003173D
:100E80000D080313E40003170F080313E5006308BC
:100E9000E900FD26640803178D0003136508031796
:100EA0008F0083168C170C140000000083120C0DA9
:100EB0000E0D7F390319762F0313E30003170D0876
:100EC0000313E40003170F080313E5006308E900A8
:100ED000FD26640803178D000313650803178F00B0
:100EE0008D0A03198F0A0313322F03170313080007
:100EF000BB080319C22FC830EA0097263B08EF3C15
:100F0000031CC12F0430BE003E08073C031C992F70
:100F10003B08F7003E08F8000319922F0310F70C66
:100F2000F80B8E2F7718972F3E08BD00992FBE0A19
:100F3000842FBE013E08023C031CC12F3B08F70072
:100F40003E08F8000319A82F0310F70CF80BA42F84
:100F50007718BF2F04303D02E400A7018B1BA717B1
:100F60008B136408FE0003308316A0008312252132
:100F7000A71B8B173E087807013EBD00C12FBE0A94
:100F80009A2FBB01861FD82F061FD82F861ED82F59
:100F9000061ED82F0619CF2F06100615D82F861833
:100FA000D42F06118614D82F0618D82F86100614B1
:100FB0000800E51BEB2F0F30F700640EF7050A3031
:100FC00077020318E62F3030F707E82F6508F70798
:100FD0007708E900FD260F30E4050A3064020318A3
:100FE000F32F3030F52FE5136508E4076408E900B6
:040FF000FD260800D2
:101000001F151F19012883161E088312AC001E0825
:10101000AD00F33081000230CD07CD08031DE2287A
:101020000230F2008A11E3208A157808D900D90825
:10103000031D3E280330F2008A11E3208A15780848
:10104000D800D808031D3E280430F2008A11E3209E
:101050008A157808D600D608031D3E280530F20010
:101060008A11E3208A157808DA005A0B3E280430EA
:10107000F2008A11E3208A157808DB005508CE00BB
:101080004F084E020318DE280630FE004E08831675
:10109000A0008A11831225218A157808013E831643
:1010A000A000A2012008A1008A1183124C218A15F8
:1010B00078085B02031DDC280630FE004E0883160C
:1010C000A0008A11831225218A157808023E831612
:1010D000A000A2012008A1008A1183124C218A15C8
:1010E00078085A02031DDC280630FE004E088316DD
:1010F000A0008A11831225218A157808033E8316E1
:10110000A000A2012008A1008A1183124C218A1597
:1011100078085602031DDC280630FE004E088316B0
:10112000A0008A11831225218A157808043E8316AF
:10113000A000A2012008A1008A1183124C218A1567
:1011400078085802031DDC280630FE004E0883167E
:10115000A0008A11831225218A157808053E83167E
:10116000A000A2012008A1008A1183124C218A1537
:1011700078085902031DDC280630FE004E0883164D
:10118000A0008A11831225218A1578088316A000F1
:10119000A2012008A1008A1183124C218A15780827
:1011A000AA0050304E0784008313800155084E0278
:1011B000031DDC280130D507CE0A40280030F80096
:1011C000872A842945085802031944295508CE0066
:1011D0004F084E0203183E290630FE004E088316C3
:1011E000A0008A11831225218A157808043E8316EF
:1011F000A000A2012008A1008A1183124C218A15A7
:1012000078085802031D3C290630FE004E0883165C
:10121000A0008A11831225218A157808053E8316BD
:10122000A000A2012008A1008A1183124C218A1576
:1012300078085902031D3C290630FE004E0883162B
:10124000A0008A11831225218A1578088316A00030
:10125000A2012008A1008A1183124C218A15780866
:10126000AA0050304E0784008313800155084E02B7
:10127000031D3C290130D507CE0AE8285808C500CF
:101280000030F800872A84295508CE004F084E0206
:10129000031884290630FE004E088316A0008A1128
:1012A000831225218A157808053E8316A000A20125
:1012B0002008A1008A1183124C218A15780859024E
:1012C000031D82290630FE004E088316A0008A11F5
:1012D000831225218A1578088316A000A201200810
:1012E000A1008A1183124C218A157808AA00503077
:1012F0004E0784008313800155084E02031D822986
:101300000130D507CE0A46292B082A020319AB293A
:101310002A083C3C031C91290130F2008A119323D6
:101320008A152A083C3C03189E292A08633C031CA2
:101330009E290230F2008A1193238A152A08633C01
:101340000318AB292A08B43C031CAB290330F20074
:101350008A1193238A1534082C02031DB3293508FA
:101360002D020319872A35082D02031CC829031DE5
:10137000BD292C0834020318C829721434082C0221
:10138000AE002D08AF003508031C350FAF02D2297F
:1013900072102C083402AE003508AF002D08031C73
:1013A0002D0FAF022908720601390319DA29B1019C
:1013B000B0013B2AAF08031D3B2A2E08FE3C031C4C
:1013C0003B2A8316A2016430A100831231088316E0
:1013D000A400831230088316A3001030A500F70183
:1013E000FA01A20CA10C031CFB292308F707031820
:1013F000FA0A2408FA07FA0CF70CF90CF80CA50BFA
:10140000F1297908F4007808F30083122E08F30715
:101410002F0803182F0FF40774088316B100730800
:10142000B0008A11831296218A157A088316B300B8
:101430007908B2007808B1007708B0000A30B70028
:10144000D730B6002330B5007A30B4008A11831249
:10145000B5218A157A088316AB007908AA007808A6
:10146000A9007708A8008A11831272238A157908C7
:10147000B1007808B0002E0DF3002F0DF400F30D2D
:10148000F40DFC30F30530087307B2007408B300A4
:1014900031080318310FB3073308033C0318542AEB
:1014A0000330B300FF30B200721C6B2A8710330880
:1014B000F9003208F800F90CF80CF90CF80CF90CEA
:1014C00078089500F90C790C3039F7001708CF39F6
:1014D00077049700842A87143208FF3CF300033016
:1014E000F4003308031C330FF402F40CF30CF40C77
:1014F000F30CF40C73089500F40C740C3039F700FD
:101500001708CF39770497002910721829140B1186
:101510008A110A121F28831603178C170C14000057
:1015200000000318BC2A83120C087F390313E5005E
:1015300003170D080313E60003170F080313E70052
:101540006508E9008A11FD268A15660803178D00D3
:101550000313670803178F0083168C170C14000001
:10156000000083120313E40BB62AB92A831603176B
:10157000BC2ADD2A8316031783120C0D0E0D7F394A
:101580000313E50003170D080313E60003170F0804
:101590000313E7006508E9008A11FD268A1566082D
:1015A00003178D000313670803178F008D0A0319B3
:1015B0008F0A03100313E40B8B2A08008316071607
:1015C000000087150000831207128316071200001F
:1015D00083128711831687118312A7018B1BA7170C
:1015E0008B13A0308316A6008A1183127F208A15E0
:1015F000A71B8B17A7018B1BA7178B136A088316D2
:10160000A6008A1183127F208A15A71B8B17A701BA
:101610008B1BA7178B136B088316A6008A118312E6
:101620007F208A15A71B8B178316071200008715CA
:101630008312871D192B00001D2B0000831607162F
:10164000000007160000871500008312071283169A
:101650000712000083128711831687118312A701D6
:101660008B1BA7178B13A0308316A6008A11831239
:101670007F208A15A71B8B1778086C1078186C14BC
:101680006C1C652B8316071600008715000083125B
:10169000871D482B0712831607120000831287113B
:1016A000831687118312A7018B1BA7178B13A030FA
:1016B0008316A6008A1183127F208A15A71B8B1719
:1016C00078086C1078186C14402B080083160716E5
:1016D000000087150000831207128316071200000E
:1016E00083128711831687118312A7018B1BA717FB
:1016F0008B13AE308316A6008A1183127F208A15C1
:10170000A71B8B176B08EE00EF01A7018B1BA71718
:101710008B136B088316A6008A1183127F208A150B
:10172000A71B8B17A7018B1BA7178B136A088316A0
:10173000A6008A1183127F208A15A71B8B17A70189
:101740008B1BA7178B136C088316A6008A118312B4
:101750007F208A15A71B8B17831607120000871599
:101760008312871DB12B0000B52B000083160716CE
:101770000000071600008715000083120712831669
:101780000712000083128711831687118312A701A5
:101790008B1BA7178B13AE308316A6008A118312FA
:1017A0007F208A15A71B8B1778086D1078186D1489
:1017B0006D1CFD2B83160716000087150000831291
:1017C000871DE02B07128316071200008312871172
:1017D000831687118312A7018B1BA7178B13AE30BB
:1017E0008316A6008A1183127F208A15A71B8B17E8
:1017F00078086D1078186D14D82B08004C08003A42
:101800000319092C013A0319842C033A0319282DD2
:10181000C82D4E3003178D0000308F0003100530A7
:101820000313E4008B224108E4005730E5008A11DD
:10183000D9278A15513003178D0000308F0003140B
:1018400006300313E4008B22BD080319832C6308C0
:10185000E400E501E601C1080319302C4108E60067
:101860003D080A3A03193B2C013A03193E2C073A6A
:1018700003193F2C652CC101BD01832C672C660820
:10188000C1000130CC00640B4B2C0430EA0041084D
:10189000EB00DE22632CA7018B1BA7178B130630EE
:1018A000FE004E088316A0008A11831225218A1596
:1018B000A71B8B177808033EE700EB016708EA00D7
:1018C0004108EC006623BD01832C3D08E500660855
:1018D000103C03186F2C6608203C031D782C660E04
:1018E000F700F030F70577086507233C03187B2CD9
:1018F0006508C100822C660EF700F030F705770806
:101900006507C100BD01C82D553003178D0000309B
:101910008F00031006300313E4008B224108E4001B
:101920005730E5008A11D9278A153A30E9008A1123
:10193000FD268A154308E4005730E5008A11D927AF
:101940008A153A30E9008A11FD268A155F30E900D0
:101950008A11FD268A155F30E9008A11FD268A1555
:10196000BD080319272D0230E4006308E500E601F5
:10197000E701C3080319BE2C4308E7003D080A3AF3
:101980000319C92C013A0319D22C073A0319D32C95
:10199000FD2CC3080319CE2CC301D02C0130CC027E
:1019A000BD01272DFF2C6708C3006408CC00650B20
:1019B000E12C6408053CE800EA004308EB00DE2265
:1019C000FB2C02306407E800A7018B1BA7178B13C1
:1019D0000630FE004E088316A0008A1183122521CE
:1019E0008A15A71B8B177808E807EB016808EA003F
:1019F0004308EC006623BD01272D3D08E60067087B
:101A0000103C0318132D6708203C0319132D670899
:101A1000303C0319132D6708403C0319132D670848
:101A2000503C031D1C2D670EF700F030F7057708BA
:101A30006607593C03181F2D6608C300262D670E44
:101A4000F700F030F70577086607C300BD01C82D21
:101A50005E3003178D0000308F0003100630031333
:101A6000E4008B224108E4005730E5008A11D927B1
:101A70008A153A30E9008A11FD268A154308E400E8
:101A80005730E5008A11D9278A153A30E9008A11C2
:101A9000FD268A154608E4005730E5008A11D9274B
:101AA0008A15BD080319C82D0330E4006308E5005A
:101AB000E601E701C60803195F2D4608E7003D0867
:101AC0000A3A03196A2D013A0319732D073A0319CB
:101AD000742D9E2DC60803196F2DC601712D01307E
:101AE000CC02BD01C82DA02D6708C6006408CC003B
:101AF000650B822D6408053CE800EA004608EB000F
:101B0000DE229C2D02306407E800A7018B1BA7177B
:101B10008B130630FE004E088316A0008A11831234
:101B200025218A15A71B8B177808E807EB016808A1
:101B3000EA004608EC006623BD01C82D3D08E6001A
:101B40006708103C0318B42D6708203C0319B42D16
:101B50006708303C0319B42D6708403C0319B42DC5
:101B60006708503C031DBD2D670EF700F030F705E8
:101B700077086607593C0318C02D6608C600C72DB4
:101B8000670EF700F030F70577086607C600BD015D
:101B900008004A08003A0319D42D013A0319142EFB
:101BA000033A03199C2E8B2F673003178D000030EA
:101BB0008F0003100B300313E4008B224908E4006C
:101BC0005730E5008A11D9278A15BD080319132E4D
:101BD000E401E5013D080A3A0319F52D013A03191C
:101BE000F82D073A0319F92D002EC901BD01132E56
:101BF000022ECB014918CB170130CA00BD01132EAC
:101C00003D08E4004908E5006508093C03180B2E6F
:101C10006408C900122E650EF700F030F70577084A
:101C20006407C900BD018B2F6E3003178D00003093
:101C30008F00031009300313E4008B224808E400EE
:101C40005730E5008A11D9278A152F30E9008A110B
:101C5000FD268A154908E4005730E5008A11D92786
:101C60008A15BD0803199B2E6308E400E501E6010F
:101C70004808E6003D080A3A0319452E013A0319BF
:101C8000482E073A0319492E7D2EC801BD019B2E0F
:101C90007F2EE608031D512EE508031D512E01304D
:101CA000C8000230CA00640B5B2E0630EA00480808
:101CB000EB00DE22762EA7018B1BA7178B130630B5
:101CC000FE004E088316A0008A11831225218A1572
:101CD000A71B8B177808013EE7004B084707E80071
:101CE000EB016708EA006808EC0066230630EA00AA
:101CF0004808EB00DE22BD019B2E3D08E5004808A8
:101D0000E6006608013C0318872E6508C800660EC9
:101D1000F700F030F70577086507123C0318932E9B
:101D20006508C8009A2E660EF700F030F7057708B0
:101D30006507C800BD018B2F763003178D0000307A
:101D40008F00031006300313E4008B224708E400E1
:101D50005730E5008A11D9278A152F30E9008A11FA
:101D6000FD268A154808E4005730E5008A11D92776
:101D70008A152F30E9008A11FD268A154908E400EA
:101D80005730E5008A11D9278A15BD0803198A2F13
:101D90006308E400E501E6014708E6003D080A3A69
:101DA0000319D92E013A0319DC2E073A0319DD2E47
:101DB0000F2FC701BD018A2F112FE608031DE52E45
:101DC000E508031DE52E0130C7000330CA00640B8F
:101DD000F22E4B084707E7000530EA006708EB00E2
:101DE000DE220D2FA7018B1BA7178B130630FE00D9
:101DF0004E088316A0008A11831225218A15A71B7D
:101E00008B177808023EE7004B084707E800EB0114
:101E10006708EA006808EC006623BD018A2F3D08C8
:101E2000E5004708E6006608033C03181A2F65081A
:101E3000C700892F480B1D2F352F4808033C031975
:101E4000352F4808053C0319352F4808073C03196E
:101E5000352F4808083C0319352F48080A3C031958
:101E6000352F48080C3C031D402F660EF700F0305C
:101E7000F70577086507313C0318402F6508C70050
:101E80004808043C0319502F4808063C0319502FFA
:101E90004808093C0319502F48080B3C031D5B2FD1
:101EA000660EF700F030F70577086507303C031839
:101EB0005B2F6508C7004808023C031D6E2FCB1B33
:101EC0006E2F4B1B6E2F660EF700F030F70577086C
:101ED0006507293C03186E2F6508C7004808023CB7
:101EE000031D822FCB1B762F4B1F822F660EF70010
:101EF000F030F70577086507283C0318822F65083E
:101F0000C700892F660EF700F030F70577086507E0
:101F1000C700BD018B2F08006A08F8016902031889
:101F2000942F6908F700A02FF7010830EB00E90DA6
:101F3000F70D6A0877020318F700F80DEB0B972FDF
:101F4000080078086308E9006430EA008C27770805
:101F5000E30078083030031DB42FE41CBD2FE419D2
:101F6000BD2F641A2030B72FE41164126414F807EF
:101F70007808E9008A11FD268A156308E9000A300D
:101F8000EA008C277708E30078083030031DCE2F55
:101F9000E419D42F641CD42F641A2030F807780871
:101FA000E9008A11FD268A153030E3076308E9004D
:081FB0008A11FD268A150800C4
:102000002030641E3030E5006308F700E31F0F281E
:10201000F709F70A7708E3002D30E500E4176308B5
:10202000E9006430EA000A128A158C270A168A1120
:102030007708E30030307807E6006308E9000A30EB
:10204000EA000A128A158C270A168A11303077079F
:10205000E80030307807E7006508F700E41D322813
:10206000E41F6411641A3F28E41F5A2864195A288F
:102070007708E600E4185A287708E7005A28303035
:102080006602031D5A287708E6002030E500E41DAB
:102090004D286411E414E41FE41030306702031D7E
:1020A0005A287708E7002030E600E41D4D28E410A8
:1020B000E41F6410641D61286508E9000A12FD260A
:1020C0000A16E41C68286608E9000A12FD260A16AA
:1020D000641C6F286708E9000A12FD260A166808C2
:1020E000E9000A12FD260A1608003D080A3A0319FB
:1020F0008028013A03198328073A03198528A8285C
:10210000C201BA01D528BD01A828A7018B1BA717BA
:102110008B134E08FE0006308316A0000A128312AD
:1021200025210A16A71B8B177808E300EB01780816
:10213000EA004208EC000A128A1566230A168A1180
:102140000130CE07BD01C201C0010530BF00D52856
:10215000C2080319BF28A7018B1BA7178B134208BE
:10216000FE000A308316A0000A12831225210A16E7
:10217000A71B8B173D087807B43C0318C2283D08FD
:10218000C200D428A7018B1BA7178B134208FE009F
:102190000A308316A0000A12831225210A16A71BF3
:1021A0008B173D087807C200BD018A110A168F2AD5
:1021B000840183131F308305FF30A8002914AA016E
:1021C000B501B401BB01C101C201C301C401C50114
:1021D000C601C701C801C901CA01CB01CC01CD01AB
:1021E000CE01CF01D501D601D701D801D901DA013D
:1021F000DB01DC01DD01DE01DF01E001E101E201E3
:1022000083161F149F141F159F1107309C00831203
:10221000D001D101D201D301D4010230831685004F
:10222000F830860000308700831286018316811300
:10223000831205168801AA010A30AB0083161F100D
:102240009F101F159F111F1383121F179F138316B3
:102250009F1783121F140830F8001F08C73978042D
:102260009F002130F700F70B332907110C3097003E
:102270000030F80004389200FF3083169200010805
:10228000C039063881002130F700F70B4529C030EE
:1022900083128B048B158B160A12CE2E0A160A3067
:1022A000EA000A1297260A16293003178D00063015
:1022B0008F000A12031332270A16BB01BE01043035
:1022C000E300FA30EA000A1297260A16E30B6129A6
:1022D000393003178D0006308F000A12031332279E
:1022E0000A164C08033C031980290A1278270A169B
:1022F0000130E3000A128A15FE230A168A11712999
:10230000403003178D0006308F000A120313322766
:102310000A164A08033C031998290A1278270A1654
:102320000130E3000A128A15C9250A168A11892983
:10233000BD01473003178D0006308F0003101630A3
:102340000313E4000A128A158B220A168A11560812
:10235000E4005730E5000A12D9270A163A30E9009E
:102360000A12FD260A165808E4005730E5000A1242
:10237000D9270A163A30E9000A12FD260A1659082A
:10238000E4005730E5000A12D9270A165730031720
:102390008D0006308F00031404300313E4000A128A
:1023A0008A158B220A168A11CD08031D122A0A30BB
:1023B000E9000A12FD260A162A08E3001B30E40091
:1023C0000A128A15A1270A168A115B3003178D009D
:1023D00006308F00031405300313E4000A128A1537
:1023E0008B220A168A115608E4005730E5000A12BB
:1023F000D9270A163A30E9000A12FD260A165808AB
:10240000E4005730E5000A12D9270A163A30E900ED
:102410000A12FD260A165908E4005730E5000A1290
:10242000D9270A160A1278270A163D080C3C031D04
:10243000FB2ACC01643003178D0006308F00031097
:1024400010300313E4000A128A158B220A168A112F
:102450004F08E3001F30E40000203A30E9000A1280
:10246000FD260A164C08033C0319402A0A12782755
:102470000A16E3010A128A15FE230A168A11322A65
:10248000CA016E3003178D0006308F0003100D3027
:102490000313E4000A128A158B220A168A114F08C8
:1024A000E3001F30E40000203A30E9000A12FD2664
:1024B0000A164A08033C0319672A0A1278270A16E3
:1024C000E3010A128A15C9250A168A11592A77309A
:1024D00003178D0006308F0003100E300313E40045
:1024E0000A128A158B220A168A114F08E3001F3040
:1024F000E40000203A30E9000A12FD260A16C00165
:10250000BF01C008031DB32A3F08023C031CB32AC5
:102510000A1278270A16BD080319AB2A75288030DD
:1025200003178D0006308F00031004300313E400FE
:102530000A128A158B220A168A114208E3001B3000
:10254000E4000A128A15A1270A168A110A30EA0045
:102550000A1297260A163F080319C003BF03BF0AD1
:102560000319C00A812AC001BF010130CF0784309E
:1025700003178D0006308F00031012300313E400A0
:102580000A128A158B220A168A112A08E3001B30C8
:10259000E4000A128A15A1270A168A118E30031741
:1025A0008D0006308F00031005300313E4000A127B
:1025B0008A158B220A168A115608E4005730E50066
:1025C0000A12D9270A163A30E9000A12FD260A161D
:1025D0005808E4005730E5000A12D9270A163A30A5
:1025E000E9000A12FD260A165908E4005730E500F2
:0A25F0000A12D9270A16D429630045
:02400E00713F00
:00000001FF
;PIC16F877A
;CRC=FB64  CREATED="22-jun-12 15:26"
