:1000000000308A0058280000FF00030E8301A10081
:100010000A08A0008A010408A2007708A300780853
:10002000A4007908A5007A08A6007B08A70083131E
:1000300083120B1E1D288B183028220884002308E9
:10004000F7002408F8002508F9002608FA00270818
:10005000FB0020088A00210E8300FF0E7F0E09009E
:100060008A110A1248282C308400000803194728F6
:100070000130F800F701F70B3B28F80B3A284A301B
:10008000F700F70B412800000000800B38280034EF
:100090009630AC003320061C4828A908031D5328BD
:1000A0000130A9005428A9018B108A110A121D28B9
:1000B00084011F30830583161F149F141F159F1181
:1000C000073083129F00A901C0308B040B168316E2
:1000D00001130030850088000130860081138312EF
:1000E0008601FF308800AA00A90803197E28880825
:1000F00003197E282A0CAB0CAA0CAA13A908031D0D
:1001000088282A0F842888282B0DAA0DAB0D2A14C5
:100110002A088800A8018B1BA8178B13C830AC00D5
:0A0120003320A81B8B17742863001E
:02400E00F13F80
:00000001FF
;PIC16F877A
