:1000000000308A008A290000FF00030E8301A1004E
:100010000A08A0008A010408A2007708A300780853
:10002000A4007908A5007A08A6007B08A70083131E
:1000300083128B1D1D280B1834280B1E21288B18AA
:100040003728220884002308F7002408F800250830
:10005000F9002608FA002708FB0020088A00210E74
:100060008300FF0E7F0E09008A110A127C288A1174
:100070000A124F2845308400000803194E28013029
:10008000F800F701F70B4228F80B41284A30F70037
:10009000F70B482800000000800B3F2800340608BA
:1000A000C2001E30C5003A200608420203195A2831
:1000B0000608C20006084202031D5128AC012C08A4
:1000C000073C031C6E2830302C0784008008031D79
:1000D0006C282C08AD006E28AC0A5F28081875281B
:1000E00030302D078400001608144630C5003A2031
:1000F0008B108A110A1221280608C4001E30C50080
:100100003A2006084402031987280608C400060896
:100110004402031D7E28AC012C08043C031C9B28D0
:1001200030302C0784008008031D99282C08AD006E
:100130009B28AC0A8C28061AA928071DA128071B92
:10014000A92830302D0784000014081A0715881AD2
:100150000717861AB228071AB22830302D078400F4
:1001600080140716061BBB288719BB2830302D07C3
:10017000840000158715861BC928871EC128871B88
:10018000C92830302D0784008015081B8716881B6E
:1001900087174630C5003A200B108A110A12212811
:1001A000871407100608F7002F08F8000319DC2849
:1001B0000310F70CF80BD8287718042938088400A6
:1001C0000008BA000608F7003A08F8000319EC28FE
:1001D0000310F70CF80BE828771CFE283908840078
:1001E0000008BB000608F7003B08F8000319FC28CC
:1001F0000310F70CF80BF828771801290E3085004A
:1002000003292F088500D228380884000008BA0086
:100210000608F7003A08F800031912290310F70C32
:10022000F80B0E29771C33290608F7002F08F80071
:1002300003191E290310F70CF80B1A29771C302913
:10024000390884000008BA000608F7003A08F800E8
:1002500003192E290310F70CF80B2A2977183229D5
:100260000E30850004290130AF07AC012C08073C93
:10027000031C89293008083C031D662930302C07EF
:1002800084000008043C03194C2930302C078400FA
:100290000008103C031D662930302C078400001133
:1002A00030302C07840000128711081087100230AC
:1002B00085000430BA00A8018B1BA8178B13FA30F5
:1002C000C5003A20A81B8B17BA0B5B293008023CEB
:1002D00003196E293008043C031D872930302C0790
:1002E00084000008023C03197C2930302C0784006C
:1002F0000008043C031D872930302C07840080103F
:1003000030302C0784000011871107128710AC0AC7
:100310003629003484011F30830583161F149F146F
:100320001F159F11073083129F000A30AF00B001E4
:10033000B101B201B301B401B501B601B70100309A
:1003400083168500FF308600F0308800003087007B
:1003500081130E30831285008701FF3086008801EB
:10036000C0308B048B150B168316011383122F08D4
:100370000A3C031DCA298618BF290130AF0006199F
:10038000C3290230AF008619C7290330AF00831696
:10039000B62983122F0885008618D1290130AF00B5
:1003A000AE070619D7290230AF000130AE07861913
:1003B000DD290330AF000130AE072E08013C0318E1
:1003C000E3290E308500AE01861CF029061DF029B8
:1003D000861DF029303C031DF0290E308500E429EC
:1003E0002F0885003008013A0319032A033A03193C
:1003F000B32B063A0319C12C0C3A0319CF2D183A26
:1004000003193C2E492F2F08013A03190E2A033AEB
:1004100003195A2A013A0319062BB22BA9010230FB
:10042000AA000630AB0007108710AC012C08073C6F
:10043000031C2C2A30302C0784000130F7002908D7
:10044000F8000319272A0310F70DF80B232A770861
:10045000FF3A8005AC0A162A0130F7002A08F80096
:100460000319362A0310F70DF80B322A7708FF3AE2
:1004700087050130F7002B08F8000319432A031001
:10048000F70DF80B3F2A7708FF3A87052F08023C43
:10049000031D4C2A081808100430B800A8018B1B53
:1004A000A8178B13FA30C5003A20A81B8B17B80B7E
:1004B0004E2AB22B0130A9000330AA00071487107E
:1004C0000608F7002F08F80003196A2A0310F70C32
:1004D000F80B662A77188A2A0608F7002908F80018
:1004E0000319762A0310F70CF80B722A771C842A5A
:1004F0000608F7002A08F8000319822A0310F70CEF
:10050000F80B7E2A7718872A0E308500892A2F0853
:100510008500602A0608F7002908F8000319942AC4
:100520000310F70CF80B902A771CB12A0608F70085
:100530002F08F8000319A02A0310F70CF80B9C2AC7
:10054000771CAE2A0608F7002A08F8000319AC2A1F
:100550000310F70CF80BA82A7718B02A0E30850084
:100560008A2A0130AF02AC012C08073C031C052B82
:10057000300BE22A30302C0784000008023C0319BB
:10058000C82A30302C0784000008103C031DE22AE2
:1005900030302C078400801030302C07840000128B
:1005A000071208100710023085000430B800A801B7
:1005B0008B1BA8178B13FA30C5003A20A81B8B178A
:1005C000B80BD72A3008023C0319EA2A3008043C49
:1005D000031D032B30302C0784000008023C031954
:1005E000F82A30302C0784000008043C031D032B3C
:1005F00030302C078400801030302C07840000112C
:10060000871107120710AC0AB42AB22B0230A900D6
:100610000130AA00071487100608F7002F08F80019
:100620000319162B0310F70CF80B122B7718362B27
:100630000608F7002908F8000319222B0310F70C0D
:10064000F80B1E2B771C302B0608F7002A08F80041
:1006500003192E2B0310F70CF80B2A2B7718332BCA
:100660000E308500352B2F0885000C2B0608F7006F
:100670002908F8000319402B0310F70CF80B3C2B4A
:10068000771C5D2B0608F7002F08F80003194C2B88
:100690000310F70CF80B482B771C5A2B0608F700B1
:1006A0002A08F8000319582B0310F70CF80B542BE9
:1006B00077185C2B0E308500362B0130AF02AC0171
:1006C0002C08073C031CB12B300B8E2B30302C0731
:1006D00084000008023C0319742B30302C0784007E
:1006E0000008103C031D8E2B30302C078400801036
:1006F00030302C0784000012071208100710023057
:1007000085000430B800A8018B1BA8178B13FA30A2
:10071000C5003A20A81B8B17B80B832B3008023C6E
:100720000319962B3008043C031DAF2B30302C07E7
:1007300084000008023C0319A42B30302C078400ED
:100740000008043C031DAF2B30302C0784008010C0
:1007500030302C0784000011871107120710AC0AF3
:10076000602BB22BB02F2F08013A0319BE2B033A8E
:100770000319C82B013A0319142CC02C0230A9000C
:100780000330AA002930B8002A30B900D020C02C8C
:100790000130A9000430AA00AB0007108710AC019B
:1007A0002C08073C031CE62B30302C07840001305A
:1007B000F7002908F8000319E12B0310F70DF80BD7
:1007C000DD2B7708FF3A8005AC0AD02B0130F7000B
:1007D0002A08F8000319F02B0310F70DF80BEC2B87
:1007E0007708FF3A87050130F7002B08F800031956
:1007F000FD2B0310F70DF80BF92B7708FF3A87054F
:100800002F08023C031D062C081808100430B800FD
:10081000A8018B1BA8178B13FA30C5003A20A81B20
:100820008B17B80B082CC02C0230A9000130AA008D
:10083000071487100608F7002F08F8000319242C66
:100840000310F70CF80B202C7718442C0608F7003F
:100850002908F8000319302C0310F70CF80B2C2C86
:10086000771C3E2C0608F7002A08F80003193C2CD8
:100870000310F70CF80B382C7718412C0E3085003C
:10088000432C2F0885001A2C0608F7002908F800C9
:1008900003194E2C0310F70CF80B4A2C771C6B2C09
:1008A0000608F7002F08F80003195A2C0310F70C5C
:1008B000F80B562C771C682C0608F7002A08F8005D
:1008C0000319662C0310F70CF80B622C77186A2CAE
:1008D0000E308500442C0130AF02AC012C08073CDF
:1008E000031CBF2C300B9C2C30302C0784000008DC
:1008F000023C0319822C30302C0784000008103C85
:10090000031D9C2C30302C078400801030302C07C5
:10091000840000120712081007100230850004300E
:10092000B800A8018B1BA8178B13FA30C5003A201A
:10093000A81B8B17B80B912C3008023C0319A42C70
:100940003008043C031DBD2C30302C078400000807
:10095000023C0319B22C30302C0784000008043C00
:10096000031DBD2C30302C078400801030302C0744
:1009700084000011871107120710AC0A6E2CC02CDE
:10098000B02F2F08013A0319CC2C033A0319D62CA7
:10099000013A0319222DCE2D0230A9000330AA00FE
:1009A0002930B8002A30B900D020CE2D0230A9005D
:1009B0000330AA00AB0007108710AC012C08073CDD
:1009C000031CF42C30302C0784000130F700290878
:1009D000F8000319EF2C0310F70DF80BEB2C770838
:1009E000FF3A8005AC0ADE2C0130F7002A08F80037
:1009F0000319FE2C0310F70DF80BFA2C7708FF3AB9
:100A000087050130F7002B08F80003190B2D0310A0
:100A1000F70DF80B072D7708FF3A87052F08023CE2
:100A2000031D142D081808100430B800A8018B1BF2
:100A3000A8178B13FA30C5003A20A81B8B17B80BE8
:100A4000162DCE2D0230A9000130AA000714871000
:100A50000608F7002F08F8000319322D0310F70CD1
:100A6000F80B2E2D7718522D0608F7002908F800EC
:100A700003193E2D0310F70CF80B3A2D771C4C2D63
:100A80000608F7002A08F80003194A2D0310F70C8E
:100A9000F80B462D77184F2D0E308500512D2F085D
:100AA0008500282D0608F7002908F80003195C2D99
:100AB0000310F70CF80B582D771C792D0608F7005A
:100AC0002F08F8000319682D0310F70CF80B642D9C
:100AD000771C762D0608F7002A08F8000319742DF4
:100AE0000310F70CF80B702D7718782D0E30850059
:100AF000522D0130AF02AC012C08073C031CCD2D58
:100B0000300BAA2D30302C0784000008023C03195A
:100B1000902D30302C0784000008103C031DAA2DB6
:100B200030302C078400801030302C0784000012F5
:100B3000071208100710023085000430B800A80121
:100B40008B1BA8178B13FA30C5003A20A81B8B17F4
:100B5000B80B9F2D3008023C0319B22D3008043C1D
:100B6000031DCB2D30302C0784000008023C0319F4
:100B7000C02D30302C0784000008043C031DCB2D11
:100B800030302C078400801030302C078400001196
:100B9000871107120710AC0A7C2DCE2DB02F2F081D
:100BA000013A0319DA2D033A0319E42D013A031926
:100BB000EE2D3B2E0230A9000330AA002930B800E8
:100BC0002A30B900D0203B2E0330A9000130AA0002
:100BD0002930B8002A30B900D0203B2E0330A900BC
:100BE0000530AA000730AB0007108710AC012C08B5
:100BF000073C031C0D2E30302C0784000130F70019
:100C00002908F8000319082E0310F70DF80B042E1D
:100C10007708FF3A8005AC0AF72D0130F7002A0863
:100C2000F8000319172E0310F70DF80B132E770891
:100C3000FF3A87050130F7002B08F8000319242E2E
:100C40000310F70DF80B202E7708FF3A87052F08C1
:100C5000023C031D2D2E081808100430B800A8010E
:100C60008B1BA8178B13FA30C5003A20A81B8B17D3
:100C7000B80B2F2E3B2EB02F2F08013A0319472E09
:100C8000033A0319512E013A03199D2E492F0230C0
:100C9000A9000330AA002930B8002A30B900D020BA
:100CA000492F0430A900AA000330AB0007108710B9
:100CB000AC012C08073C031C6F2E30302C0784003D
:100CC0000130F7002908F80003196A2E0310F70D08
:100CD000F80B662E7708FF3A8005AC0A592E0130D2
:100CE000F7002A08F8000319792E0310F70DF80B06
:100CF000752E7708FF3A87050130F7002B08F800BA
:100D00000319862E0310F70DF80B822E7708FF3A91
:100D100087052F08023C031D8F2E08180810043089
:100D2000B800A8018B1BA8178B13FA30C5003A2016
:100D3000A81B8B17B80B912E492F0230A900013048
:100D4000AA00071487100608F7002F08F8000319F7
:100D5000AD2E0310F70CF80BA92E7718CD2E060830
:100D6000F7002908F8000319B92E0310F70CF80B47
:100D7000B52E771CC72E0608F7002A08F8000319BD
:100D8000C52E0310F70CF80BC12E7718CA2E0E30A3
:100D90008500CC2E2F088500A32E0608F700290811
:100DA000F8000319D72E0310F70CF80BD32E771C7D
:100DB000F42E0608F7002F08F8000319E32E03109D
:100DC000F70CF80BDF2E771CF12E0608F7002A0827
:100DD000F8000319EF2E0310F70CF80BEB2E771821
:100DE000F32E0E308500CD2E0130AF02AC012C0861
:100DF000073C031C482F300B252F30302C07840074
:100E00000008023C03190B2F30302C078400000827
:100E1000103C031D252F30302C078400801030300B
:100E20002C078400001207120810071002308500FA
:100E30000430B800A8018B1BA8178B13FA30C5002B
:100E40003A20A81B8B17B80B1A2F3008023C031945
:100E50002D2F3008043C031D462F30302C07840012
:100E60000008023C03193B2F30302C078400000897
:100E7000043C031D462F30302C0784008010303096
:100E80002C0784000011871107120710AC0AF72EF7
:100E9000492F30302C0784008008031D6A2FAC01D5
:100EA0002C08043C031C6A2F01302C07303E8400C0
:100EB00080080319682F30302C07B80001302C0748
:100EC000303E84000008BA00380884003A088000E8
:100ED000AC0A502F01302C07303E8400000B902FBD
:100EE00001302C07303E84000008023C031D902F87
:100EF00001302C07303E84000008043C031D902F75
:100F000001302C07303E84000008083C031D902F60
:100F100001302C07303E84000008103C0319972F45
:100F200001302C07303E84008008031D0030303033
:100F30002C0784000008063C031DAF2F2F08023C3D
:100F4000031DAF2F30302C07B80030302C07840041
:100F500006300002BA00380884003A088000B02F3A
:040F6000CC29630035
:02400E00F93F78
:00000001FF
;PIC16F877A
